:400000000080002011000000890A0000890A000008B5044B1A6803F53F5302331A6000F03BFD00BFFA46004010B5054C237833B9044B13B10448AFF300800123237010BD19
:400040006082FF1F0000000078260000084B10B51BB108490848AFF300800848036803B910BD074B002BFBD0BDE81040184700BF000000006482FF1F78260000C880FF1F94
:400080000000000008B5002001F02AF808BD00BF684620F007018D4619B572B6EFF311841E4B1B68DBB20F2B10D9103B23F0030202F1604202F564421168DB0003F0180333
:4000C000E0229A400A4022FA03F306E00F2B03D1134B1B681B0E00E0002383F31188114A136801331360012B01D102F023F962B6FFF7C8FF72B684F3118801F0EBF9094AFA
:400100001368013B13601BB902F01DF902F0E1F862B6BDE819408546704700BF04ED00E020ED00E0E48AFF1F08B562B645F6BF52054B1A60054A136843F0020313600020CD
:4001400001F0B6FAFBE700BF14E000E010E000E008B5094800F0AAF901F00EFB074A136843F005031360022000F008FE012000F005FE01F0E3FA08BDC882FF1F10E000E08D
:4001800000B583B0002301933B2001F0CFF801A9022001F02BF8019800F0FAFF0199024800F094F9F0E700BFC882FF1FFEE700BF08B501F097FBC0B2732804D10221084695
:4001C00001F034F808BD6F2803D11021022001F02DF808BD684620F007018D4619B572B6EFF311841E4B1B68DBB20F2B10D9103B23F0030202F1604202F564421168DB00F9
:4002000003F01803E0229A400A4022FA03F306E00F2B03D1134B1B681B0E00E0002383F31188114A136801331360012B01D102F081F862B6FFF7BCFF72B684F3118801F090
:4002400049F9094A1368013B13601BB902F07BF802F03FF862B6BDE819408546704700BF04ED00E020ED00E0E48AFF1F08B50421022000F0DBFF08BD684620F007018D4690
:4002800019B572B6EFF311841E4B1B68DBB20F2B10D9103B23F0030202F1604202F564421168DB0003F01803E0229A400A4022FA03F306E00F2B03D1134B1B681B0E00E028
:4002C000002383F31188114A136801331360012B01D102F02FF862B6FFF7C8FF72B684F3118801F0F7F8094A1368013B13601BB902F029F801F0EDFF62B6BDE81940854629
:40030000704700BF04ED00E020ED00E0E48AFF1F08B501F0ADFF0121022000F087FF08BD684620F007018D4619B572B6EFF311841E4B1B68DBB20F2B10D9103B23F003021F
:4003400002F1604202F564421168DB0003F01803E0229A400A4022FA03F306E00F2B03D1134B1B681B0E00E0002383F31188114A136801331360012B01D101F0DBFF62B643
:40038000FFF7C6FF72B684F3118801F0A3F8094A1368013B13601BB901F0D5FF01F099FF62B6BDE819408546704700BF04ED00E020ED00E0E48AFF1F684620F007018D46E5
:4003C00019B572B6EFF311841D4B1B68DBB20F2B10D9103B23F0030202F1604202F564421168DB0003F01803E0229A400A4022FA03F306E00F2B03D1124B1B681B0E00E0E9
:40040000002383F31188104A136801331360012B01D101F08FFF62B672B684F3118801F059F8094A1368013B13601BB901F08BFF01F04FFF62B6BDE819408546704700BF9D
:4004400004ED00E020ED00E0E48AFF1F08B500F0F3F800F0F7F800F06DF900F06FF9002008BD00BF08B501280CD010B1022812D019E00021032000F0AFF80121002000F0D4
:40048000ABF810E00021032000F0A6F80121022000F0A2F807E00021032000F09DF80121084600F099F8002008BD00BF38B50546FFF7CCFF00242C702046FFF7D3FF6C7001
:4004C000AC70EC702C71204638BD00BF70B504460D460378012B15D013B1022B59D079E011F0010F76D00121002000F0F9F8012000F026F9012000F02FF901202070FFF782
:40050000B1FF67E011F0020F01D00123C37015F0040F22D0E3786BB90021084600F0E0F8002000F00DF9002000F016F92021022000F07CFEE378012B0FD10026E67031466E
:40054000304600F0CDF8304600F0FAF8304600F003F90821022000F069FE15F0200F09D00121002000F0BCF8012000F0E9F8012000F0F2F815F0080F0BD00021084600F0BE
:40058000AFF80121084600F0ABF802202070FFF769FF15F0100F1DD00021012000F0A0F863780133DBB26370092B08D801202070FFF758FF2021022000F038FE0AE00A2B7D
:4005C00008D1002525702846FFF74CFF6570A570E5702571002070BD38B504460D46032824D8DFE800F00209101E084601F024F9104B1D55002038BD084601F011F90D4B17
:400600001D55002038BD084601F0FEF8094B1D55002038BD29462046FFF7DEFF0134E4B200E00024022CF5D9002038BD6FF0130038BD00BF7C82FF1F08B501F037F900205B
:4006400008BD00BF70B541F6FF734FF480420121022001F0D1FD1D4E307000F01BFB1C4D28700623FE224FF4006100F02DFB194CA4B2224644F61061287800F039FB2978D6
:40068000307800F0D9FA4FF4804341F6FF720121022001F0CFFD104E307000F0FBFA0F4D28700523FE224FF4006100F00DFB46F24E422146287800F01BFB2978307800F057
:4006C000BBFA01F0DBFD002070BD00BFD682FF1FD082FF1FD882FF1FD582FF1FD482FF1F08B510B101280ED01BE0012904D10F4B187800F047FA17E0012915D10B4B1878A2
:4007000000F05CFA10E0012904D1094B187800F039FA09E0012907D1054B187800F04EFA02E06FF0130008BD08BD00BFD682FF1FD582FF1F08B501F015FC08BD0020704797
:4007400008B5012802D101F069F902E008B901F0F5F8002008BD00BF08B5012802D101F015FC02E008B901F019FC002008BD00BFFEE700BFF0B40022174611E050F82760B9
:40078000F3B226F0FF0608E001EB420511F812406D78A5550132013BDBB2002BF4D101371A2FEBD9F0BC70470C4B1B78DBB203F007010B4A11701B09013213703022094BC8
:4007C0001A70012203F683031A70022280331A704422A3F28A231A70704700BFCF0100496E580040FD51004008B50A46002101F03AFF08BD08B501F02BFF08BD38B50024C2
:40080000344B1C80502202331A70192502331D801823314A137040F65F11023211800232137041F2BF21023211800232137004222A492B48FFF7DEFF02222A4B1A70082246
:400840004FF040231A70032103F500731970264B1B78DBB225490B70254B1A8041F25122023B1A800CE0234B1B7803F0010343EA440404F003044FF4F07001F00DFD013D03
:400880000DB1032CEFD115B90320FFF771FF1A4B4FF480721A8007221A70002217490A704820023108701A700222033B1A7004220A331A70124A137843F00F031370013AF1
:4008C000137843F001031370013A137843F08003137038BD804000408640004090040048004100400043004008010049A1460040224200402542004004400040064000400B
:40090000A2430040012807D8044B53F820201844017A13780B431370704700BF7C260000012808D8044B53F820201844017A137823EA0103137070477C26000038B572B61E
:400940003C4A137843F00403137000240BE03A4863001A19510001440A46098AD068FFF743FF0134E4B2082CF1D900240BE03249A3001819420088188022816C406CFFF75F
:4009800039FF0134E4B2002CF1D02C494FF09040FFF7F0FE0A252A4B1D7004212948FFF723FF042228492948FFF724FF04212848FFF71AFF04212748FFF716FF264A1378A1
:4009C00043F0020313701032137843F002031370224C237843F040032370A2F58632513A137843F01003137008221D491D48FFF701FF08221C491D48FFF7FCFE2A461C49D0
:400A00001C48FFF7F7FE1C4A137843F0080313701A4D61232B70FFF7F1FE81232B700122174B1A70FFF7C0FE0E2221461548FFF7E1FE38BDE84600407C2600006C000048C6
:400A400083580040007600409404004850760040087600401076004003500140A043004074040048F25100407C040048125100408404004820510040224300400048004028
:400A800004000840B043004008B501F0B5FD03680C2B00D1FEE7FEE708B5104E104D16E029686B68AC68002204E051F8040B43F8040B0432A242F8D1E868002203E0002133
:400AC00043F8041B04328242F9D11035013E002EE6D101F097FDFFF727FBFEE7010000007C2D000008B5114A114B1A60114A136843F40073136000230AE0032B03D80E4AF4
:400B000052F8231000E00D490D4A42F8231001332F2BF2D90B4B1A780B4B1A70084A0B4B1A60FFF70BFF00F013F808BD0004FA050CED00E014ED00E000000000890A0000EB
:400B40000080FF1FBC760040C080FF1F08ED00E00B4A7F2313708021517007E0DA0002F1804202F5F042013BDBB21370002BF5D1DB0003F1804303F5F04300221A7070475A
:400B8000CC80FF1F172815D831B103010A495A5C42F020025A5405E0030107495A5C02F0DF025A540001044A835C43F00103835400207047012070471070004017280BD871
:400BC0000001064BC25C02F0FE02C254C25C02F0DF02C25400207047012070471070004017280BD80001064A835C03F0F103490001F00E01194381540020704701207047A5
:400C00001070004041F6FF73994201D14FF4005141F6FF739A4201D14FF40052172808D8C00000F1804000F5EC408180C280002070470120704700BF172805D8034B03EB64
:400C40000010417200207047012070471070004017281BD810B4C00000F1804404F5EC44D201D2B201F07F01114321709DF804201201D2B203F00F03134363709DF80830B6
:400C800003F00F03A3700020E07001E00120704710BC704710B501F007FB0A4B5B78182B0BD9084A1478013B5370E30003F1804303F5F0431B78137000E0FF2401F0F8FACB
:400CC000204610BDCC80FF1F10F0800F0CD111F4704F0BD1C00000F1804000F5F04001808270C37000207047012070470120704710F0800F08D1C00000F1804000F5F0408A
:400D00008180C280002070470120704701BE704708B5034B1B7A00FB03F001F0BDFA08BDD480FF1F70B504460E46074B1D681F2802D90020FFF7EAFF04F01F04103455F87B
:400D4000240045F8246070BD08ED00E038B504460D46072902D90020FFF7D8FF1F2C02D90020FFF7D3FF04F01F0000F1604000F564406D01EDB2057038BD00BF38B5EFF3BA
:400D8000108572B602284ED82D4B53F82030002B4BD02B4A013B42F820302A4B53F82030032B07D10222274B43F820200022264B43F8202000F0FEFB244B1B68002B36D150
:400DC000234B1C6800F0D4FBB0F1FF3F31D0214B53F82020204B1B689A422CD9B4F1FF3F03D00221174A42F824101C4A52F820201343194A13600022124B43F8202000F0EE
:400E000073FB174B53F820304BB10024144B43F8204040F0004001F09FFA20460CE001F09BFA002008E0032006E0042004E0002002E0002000E0002085F3108838BD00BF5C
:400E40001481FF1FB081FF1F9882FF1FE48AFF1FA081FF1F48280000AC82FF1F242800008082FF1F18B108B5C368984708BD704708B508B1406800E00020022816D80C4BAC
:400E800053F8203093B10A4A013B42F82030094B53F82030032B07D10222064B43F820200022054B43F8202000F084FB08BD00BF1481FF1FB081FF1F9882FF1F18B1034628
:400EC00040689B6801E00023184602281DD80F4A52F82020CAB10E4A52F82010032914D010B50C4C54F820201A4344F820200A4A52F82020134207D0012905D10222044B87
:400F000043F8202000F056FB10BD70470C280000B081FF1F9882FF1F8C82FF1F80B108B50378012B06D013B1032B06D008BDFFF79FFF08BDFFF7C2FF08BDFFF793FF08BD70
:400F4000704700BF30B400EB40029300214AD258214B03EBC2035C68B4F1FF3F04D11E4B03EBC20250602DE01C4B03EB04139B6899420AD2184D05EBC2025060174A02EB12
:400F800004125B1A93601DE01C46144B03EB04139A68891ADB68B3F1FF3F05D00F4A02EB031292689142EFD2B3F1FF3F05D00B4A02EB031295686D1A9560084A02EB04148A
:400FC000E0601C46054B03EB00108160C46030BC704700BFEC270000E880FF1FEC8EFF1F38B5394A02EBC0035C6852F83030013342F8303000EB40018A0034498A58934223
:4010000003D90022304B43F83020B4F1FF3F59D02F4B03EB04139B68002B4ED1214600E019462B4B03EB0113DB68B3F1FF3F05D0274A02EB03129268002AF1D0244A02EB09
:4010400001114FF0FF32CA601F4A02EBC0004360B3F1FF3F07D01E4A02EB03139A68013A9A6000E02C4604EB44029300194A13441B7A7BB904EB44029300164A13445A68D2
:40108000154B53F8223003EB83039A0013481044FFF744FF0E4B03EB0413DD68596821B101392046FFF74EFF03E024010022084B1A51B5F1FF3FD5D138BD054A02EB041469
:4010C000013BA36038BD00BFE880FF1F00280000EC8EFF1FEC270000FC270000D827000038B5EFF3108572B6002838D1FFF778FF204B1B68002B34D11F4B1C6800F038FA2A
:40110000B0F1FF3F2FD01D4B53F820201C4B1B689A422AD9B4F1FF3F03D00221194A42F82410194A52F820201343154A13600022144B43F8202000F0D7F9144B53F82030A0
:401140004BB10024114B43F8204040F0004001F003F920460AE001F0FFF8002006E0032004E0002002E0002000E0002085F3108838BD00BFE48AFF1FA081FF1F4828000095
:40118000AC82FF1FB081FF1F242800008082FF1FEFF3108372B6114A1168114A126882B9B1F1FF3F0FD00F4A52F821206AB110B40D4C54F8212022EA000044F821000020B6
:4011C00007E0022002E0022000E0012083F31088704783F3108810BC704700BFA081FF1FE48AFF1F0C2800009882FF1F02280FD80B4B53F820306BB10A4B53F82030032B59
:401200000AD059B1084B53F820300B60002070470320704701207047072070470E2070470C280000B081FF1F9882FF1F38B5EFF3108472B6022853D8324B53F82030002B47
:4012400050D0314B53F82030032B4DD02F4D55F820200A4345F820202D4A52F82020114244D0012B44D10222274B43F8202000F0A1F9284B1B68002B3CD1274B1D6800F0C0
:4012800077F9B0F1FF3F37D0244B53F82020244B1B689A4232D9B5F1FF3F03D002211A4A42F825101F4A52F8202013431C4A13600022154B43F8202000F016F91A4B53F88A
:4012C00020304BB10025184B43F8205040F0004001F042F8284612E001F03EF800200EE003200CE001200AE0072008E0002006E0002004E0002002E0002000E0002084F373
:40130000108838BD0C280000B081FF1F9882FF1F8C82FF1FE48AFF1FA081FF1F48280000AC82FF1F242800008082FF1F38B5EFF3108472B6364B1D68364B1B68002B5DD158
:40134000B5F1FF3F5CD0344B53F82530002B59D0324B53F82530034256D1314B43F825000122304B43F825202F4B53F825002F490B6823EA00030B602D4B43F825202D4BA7
:4013800053F82520224B1A6000F0F2F8B0F1FF3F06D0294B53F82020244B1B689A420DD81B4B1868B0F1FF3F03D000221D4B43F8202040F0004000F0CFFF1AE00021194A2C
:4013C00042F82010184A52F820201343174A136000F08AF8164B53F8203043B10022144B43F8202040F0004000F0B6FF01E000F0B3FF00200A4B43F8250006E0022004E0B6
:40140000022002E0012000E0002084F3108838BDA081FF1FE48AFF1F0C2800009882FF1F8C82FF1FB081FF1F24280000AC82FF1F8082FF1FA481FF1F4828000008B500F0B9
:4014400053F8084B53F8203043B10022054B43F8202040F00040044B186008BD024B186008BD00BF8082FF1FE88AFF1F10B500F07FF8124B1B68B0F1FF3F1AD0104A52F8E4
:401480002010104A1268914213D9B3F1FF3F03D002240D4941F8234000210B4B43F820100A4B53F820301A43064B1A60FFF7C6FF10BD43F00043064A136010BDA081FF1FD5
:4014C00048280000AC82FF1FB081FF1F24280000E88AFF1F034B1B6813B10022014B1A60704700BFD88AFF1FF0B4184B19880B0A174AD356B3F1FF3F01D1535601E00833D2
:401500005BB2144D55F82320134850F82200134E56F8224045F82340114D2F6846F822702A60B4F1FF3F09D10E4A42F82340012202FA03F321EA0301044B19800A4B196854
:401540000A4A42F820101860F0BC7047A882FF1FCC2600006081FF1FD48EFF1FFC80FF1FA482FF1F2081FF1FA081FF1FA481FF1F0C4B1A88130A0C49CB56B3F1FF3F01D1BA
:401580008B5601E008335BB2B3F1FF3F06D0074A52F82320064B53F8220070474FF0FF30704700BFA882FF1FCC2600006081FF1FD48EFF1F30B4144B53F82020134C2368C1
:4015C000134951F823502560124C44F823004FF0FF3441F82340104951F82210A1420AD10E4951F820400E480188214301800D4941F8223002E0064840F82130064941F80B
:40160000223030BC704700BF0881FF1FA482FF1FFC80FF1FD48EFF1F2081FF1F48280000A882FF1F6081FF1F10B150F8210070474FF0FF30704700BF0122014B1A60FEE7E8
:40164000E08AFF1F70B50546124B53F8306000241CE0104B03EBC50321465868FFF7E4FF0D4A52F82030013B42F820300B4B53F82030032B07D10222084B43F82020002247
:40168000074B43F82020FFF795FF0134B442E0D370BD00BFCC2700001481FF1FB081FF1F9882FF1F18B908B5FFF7CCFF08BD7047194B1A4ADA621A4A9A631A4ADA63EFF329
:4016C000108272B6184B1B6813BB10B5044600F053F8164B1C600122134B1A602046FFF7E1FFFFF745FFB0F1FF3F0ED0104B53F82030104A11680B43136000220E4B43F8E7
:401700002020FFF7F1FE00F027FE62B6FFF794FF82F31088072070470080FF1F19230000DD22000091000000E08AFF1FF090FF1F24280000AC82FF1FB081FF1F08B5EFF3CD
:40174000108272B6094B1968094B1B6833B94FF0FF30084B43F82100002000E0022010B9084600F052FE82F3108808BDA081FF1FE48AFF1FF080FF1F70B51C4B1D68EFF363
:40178000108672B600F098FD194A136843F07F431360184B6B6401210846FFF7D7FA164C236843F002032360144B2B6501210420FFF7CCFA236843F010032360104BEB64A0
:4017C00001210320FFF7C2FA236843F0080323600C4B2B6401210020FFF7B8FA236843F00103236086F3108870BD00BF08ED00E020ED00E07902000000E100E02103000072
:40180000D5010000B9030000044A137803F0BF03800100F0400018431070704720510040044A137803F0DF03400100F0200018431070704720510040044A137803F07F0304
:40184000C001C0B218431070704700BF205100407222074B1A70202201331A7006225F3B1A70472210331A70032251331A7070478B64004010B500F017FD04460A4A137836
:4018800043F0200313700132137843F0100313700232137843F01003137000F02DF8204600F006FD10BD00BF9B64004008B5054B1B7823B9FFF7CCFF0122024B1A70FFF7DA
:4018C000D9FF08BDB482FF1F014B1878704700BF4B640040024B187800F07F00704700BF6C64004010B5FFF7F5FF0402FFF7ECFF204380B210BD00BF054A137843F002031B
:4019000013701032137843F002031370704700BFA243004010B500F0E7F8074C01212078FFF730F901216078FFF72CF9002000F005F900F081F810BDB682FF1F10B500F0DD
:4019400089F8054C2078FFF739F96078FFF736F900F0D8F810BD00BFB682FF1F70B505460E464FF48043020C0121084600F080F8094C2070A078012302463146FFF7A4F913
:401980004FF4B742A9B2A078FFF7B2F9A1782078FFF752F970BD00BFB682FF1F70B505460E464FF48043020C0121084600F07EF8094C6070E078012302463146FFF784F922
:4019C0004FF4B742A9B2E078FFF792F9E1786078FFF732F970BD00BFB682FF1F10B500F0D5F8022000F09CF8042000F0BFF8FFF751F9084CA070FFF74DF9E070064C4FF42B
:401A00007A712046FFF7AAFF642104F57A70FFF7C5FF10BDB682FF1F0829000008B5054B1B7923B9FFF7DAFF0122024B1A71FFF771FF08BDB682FF1F054A137843F0040364
:401A400013701032137843F004031370704700BFA2430040054A137803F0FB0313701032137803F0FB031370704700BFA2430040F0B583B016461F460B4C012525700023C6
:401A8000019300930A4601462846FFF7E1F83A4631462078FFF7B6F802212078FFF7A0F8207803B0F0BD00BFF081FF1FF0B583B016461F460B4C0225257000230193009373
:401AC0000A4601462846FFF7C3F83A4631462078FFF798F829462078FFF782F8207803B0F0BD00BFF181FF1F054A137843F0010313701032137843F001031370704700BFCC
:401B0000A8430040054A137803F0FE0313701032137803F0FE031370704700BFA8430040054B1A7802F0FD021A701A7800F0020010431870704700BF20580040014B187086
:401B4000704700BF805B0040064B1B78C3F3810303F19243063393F82031DBB2024A1370704700BF205800400846004008B5064B1A7802F0F3021A701A7800F00C001043CE
:401B80001870FFF7E1FF08BD2058004008B50020074B187001331870064A137843F008031370FFF7E3FF0220FFF7BAFF08BD00BF20580040875A004010B59DF80840012C66
:401BC00051D1013809282ED8DFE800F0052D2D052D2D0F192D230F2B03D92548007840B222E02448007840B21EE00F2B03D92248007840B218E02148007840B214E00F2BC0
:401C000003D91F48007840B20EE01E48007840B20AE00F2B03D91C48007840B204E01B48007840B200E0002001EB401101FB02F1C90B8AB20D2B0BD8C3F10E0289B2114112
:401C40008AB2611E124800EB810101338B7005E0631E0F4901EB83030F219970013C0C4B23F8242010BD0020FFF750F810BD00BF180100491C010049190100491D0100490E
:401C80001A0100491E0100491B0100491F010049BC82FF1FF8B5074600F006FB06460D4D2B7843F003032B700B4C237843F0030323700A4B1F700320FFF72AF82B7803F0B3
:401CC000FC032B70237803F0FC032370304600F0EFFAF8BDF8460040F94600409258004038B500222F4B1A7101285AD138222E4B1A70042202331A70062201331A7000244B
:401D000001331C7001331C703F2201331A7002331C7001331C7001331C7001250A331D70502203F527631A700A23204A13702C2101321170013214704421033211704821FF
:401D400001321170013215700232147001321470013213704322164B1A705220FFF79AFF5822144B1A7001331C700223124A137001321370114B1C7001331C70204600F0A6
:401D800027F943F233320E4B1A602946052000F043F92946BA2000F0C3F90A491D20FEF7C1FF38BDBC82FF1F004E00408558004091580040945800409A5800409C580040E5
:401DC000F492FF1FAD1F0000F0B583B0284D01272F70284E00247471102000F00BF9102000F08CF907211D20FEF7B0FF0422224B1A7001331C7007331C70204A137843F043
:401E0000180313701E4B1C7003F2F5231C7001331C700A22A3F209331A7001331C7002331C705B2205331A705E2201331A7004331C701422A3F68C231A70009710234FF459
:401E4000004248F6F0510220FFF7B6FE2B78013B06EB83039A780B4B1A702B78013B36F82320094B1A802878FFF73AFF03B0F0BDF281FF1FBC82FF1F96580040075B004063
:401E8000935800400E4E00400C4E004070B500F00BFA06462A4B1B782A4B1A7842F001021A701A7842F010021A7010331A7842F001021A701A7842F010021A70224D2B7827
:401EC00043F002032B70214C237843F0020323701F4A137843F0030313700320FEF718FF2B7803F0FD032B70237803F0FD032370184A137843F0060313707A22164B1A70D8
:401F0000164A137843F0010313701032137843F0010313700F3A137843F0010313701032137843F0010313704FF000530C4A1360A2F5C0721360304600F0BAF970BD00BFC4
:401F4000F281FF1FAA430040F8460040F9460040915800407758004082580040A143004080E200E008B5084B9B794BB9064BDB7913F0FF0F01D1FFF727FF0122024B9A71A7
:401F8000FFF784FF08BD00BFBC82FF1F024A137843F0010313707047004E0040024A137803F0FE0313707047004E0040704700BF10B5002404E02046FEF7B2FC0134E4B248
:401FC000012CF8D9FF22014B1A7010BDF381FF1F10B50446FFF7ECFF2046FEF793FC014B1C7010BDF381FF1F014B188880B2704780400040034B1A7800F0F8001043187004
:40200000704700BF82400040024B187800F00700704700BF8240004070B505460E46FFF7F3FF0446FFF7E0FFA84256D02B4B1B7803F0010294B900B185B938B9284B1D80C5
:40204000284A137803F0BF03137070BD254A137843F040031370224B1D8070BD22B3002321490B7001240F310C7004310B700C390B7803F07F030B701A4B1B7813F0080F9C
:4020800000D08DB9194B18800721013B1970164B1B7813F0010FFAD110490B7803F0FE030B700021104B19700C4B1B7813F0010F0DD00E4B1D800EB1032200E001220A4BF3
:4020C0001A70094B1B7813F0010FFAD170BD044B1D8002490B7813430B7070BDA243004080400040824000400140004002400040014B188880B2704700410040034B1A784C
:4021000000F0F80010431870704700BF02410040024B187800F00700704700BF0241004070B505460E46FFF7F3FF0446FFF7E0FFA84256D02B4B1B7803F0010294B900B13E
:4021400085B938B9284B1D80284A137803F0BF03137070BD254A137843F040031370224B1D8070BD22B3002321490B70012413310C7004390B7008390B7803F07F030B7066
:402180001A4B1B7813F0080F00D08DB9194B18800721013B1970164B1B7813F0010FFAD110490B7803F0FE030B700021104B19700C4B1B7813F0010F0DD00E4B1D800EB15D
:4021C000032200E001220A4B1A70094B1B7813F0010FFAD170BD044B1D8002490B7813430B7070BDA143004000410040024100400140004002400040F0B583B016461F466A
:402200000B4C0A2525700023019300932B460A4601462846FEF71CFD3A4631462078FEF7F1FC02212078FEF7DBFC207803B0F0BDF481FF1FF0B583B016461F460B4D00241D
:402240002C700194009423460A4601462046FEF7FFFC3A4631462878FEF7D4FC02212878FEF7BEFC287803B0F0BD00BFF581FF1F1022014B1A60704780E200E0054A137857
:4022800043F0080313701032137843F008031370704700BFA24300400230800803D000BF01380046FCD17047EFF3108072B6704780F31088704700BF18484FF47F01026886
:4022C0000A43026016486FF07F4102680A400260704714484FF080510160704772B611484FF000610160FFF7C1F80F48006800F0C3F858B10C4800684FF080730B4A0C4925
:402300000FB40FB46FF00600004700BF6FF0060062B6004762B600DF08B0704720ED00E01CED00E004ED00E0E88AFF1F5923000015230000EFF308800549086005480068C2
:4023400080F3088870470248006880F308887047F681FF1FE081FF1F411C8900154A11440968154A136899421AD0F0B444464D4656465F46F0B400B5104C9B002344EFF3DE
:4023800008851D60116089002144096881F3088802BC8E46F0BCA046A946B246BB46F0BC002806DB00B500F05BF802BC8E46FFF7D3BF70476C280000B082FF1FE481FF1F4E
:4023C000F0B444464D4656465F46F0B400B5EFF3038308B48000174901440968164A0244EFF30883136088471448804704BC4FF08070024382F3038801BC8646F0BCA04601
:40240000A946B246BB46F0BC704780000A4901440A6882F3088804BC4FF08070024382F3038808BC9E46F0BCA046A946B246BB46F0BC704754280000E08EFF1F412400009C
:4024400008B572B6014B1868FFF7DFFFA081FF1F08B5024B1868FFF7B3FF08BDA081FF1F08B562B6FFF7F4FF72B600F041F8014B186808BDE88AFF1F00280BDA20F00040D5
:402480000130054B53F82000044B1B68181A18BF01207047012070476C280000B082FF1F054B53F82020054B53F820309A4201D101207047002070471481FF1F18280000AB
:4024C00008B5FFF711F8084B53F8203043B10022054B43F8202040F00040044B186008BD024B186008BD00BF8082FF1FE88AFF1F38B5364B1C680022354B1A60354A52F885
:402500002430013342F82430334B53F824502046FFF7C6FF012801D0A54204D103222F4B43F8242003E002222C4B43F824202C4B53F824102B4A136823EA010313602A4B77
:4025400053F82440214B1C60B5F1FF3F0FD0234B53F82530032B07D10222204B43F825200022224B43F825202846FFF723F8FEF7FFFFB0F1FF3F0BD1B4F1FF3F03D00022CA
:40258000164B43F8242044F00044194B1C6038BD184B53F82020134B1B689A4208D800220E4B43F8242044F00044114B1C6038BD00210A4A42F82010094A52F82020134312
:4025C000084A1360FFF77CFF38BD00BFA081FF1FD88AFF1F1481FF1FF080FF1FB081FF1F24280000AC82FF1FA481FF1F9882FF1FE88AFF1F48280000014B1868704700BF4D
:402600005C82FF1F0E4B70B51E460E4C0025E41AA410A54204D056F8253098470135F8E700F09AFB084B094C1E46E41AA4100025A54204D056F8253098470135F8E770BD52
:40264000642D0000642D0000642D00006C2D000010B5431E0A44914204D011F8014B03F8014FF8E710BD03460244934202D003F8011BFAE77047000000000000035B004024
:402680002443004040000000005100401000305100404000C0510040100000000140800A000B0140000500140140000800400140000A004C014000020050014020000000EC
:4026C000800A0140F403004880000000FF0001010202020203030303030303030404040404040404040404040404040405050505050505050505050505050505050505058B
:402700000505050505050505050505050606060606060606060606060606060606060606060606060606060606060606060606060606060606060606060606060606060625
:4027400006060606060606060606060607070707070707070707070707070707070707070707070707070707070707070707070707070707070707070707070707070707A5
:402780000707070707070707070707070707070707070707070707070707070707070707070707070707070707070707070707070707070707070707070707070707070759
:4027C00007070707070707070707070701000000D42700000000000000000000020000000000000000000000FFFFFFFF00000000000000000000000000000000000000008B
:4028000010270000010000000000000000000000000000000100000001000000010000000100000080000000020000000400000001000000020000000400000008000000C7
:40284000100000002000000001000000020000000400000051010000AD0100008101000051240000512400005124000000000000000000000100000002000000616C726D91
:402880005F6D61696E00000065765F70757368427574746F6E00000065765F7352656365697665640000000065765F73616D706C696E6746696E69736865640065765F735E
:4028C000656E640065765F6F52656365697665640000000065765F726553616D706C650074736B5F696E69740000000074736B5F6261636B67726F756E64000074736B5F77
:40290000636F6E74726F6C008080818182828384848585868787888889898A8B8B8C8C8D8E8E8F8F90909192929393949595969697979899999A9A9B9B9C9C9D9E9E9F9F30
:40294000A0A0A1A1A2A3A3A4A4A5A5A6A6A7A7A8A8A9AAAAABABACACADADAEAEAFAFB0B0B1B1B2B2B3B3B4B4B5B5B6B6B7B7B8B8B8B9B9BABABBBBBCBCBDBDBDBEBEBFBF4D
:40298000C0C0C1C1C1C2C2C3C3C3C4C4C5C5C5C6C6C7C7C7C8C8C8C9C9CACACACBCBCBCCCCCCCDCDCDCECECECFCFCFD0D0D0D0D1D1D1D2D2D2D2D3D3D3D4D4D4D4D5D5D541
:4029C000D5D6D6D6D6D6D7D7D7D7D8D8D8D8D8D8D9D9D9D9D9DADADADADADADADBDBDBDBDBDBDBDBDCDCDCDCDCDCDCDCDCDCDDDDDDDDDDDDDDDDDDDDDDDDDDDDDDDDDDDD3B
:402A0000DDDDDDDDDDDDDDDDDDDDDDDDDDDDDDDDDDDDDDDDDDDDDDDCDCDCDCDCDCDCDCDCDCDBDBDBDBDBDBDBDBDADADADADADADAD9D9D9D9D9D8D8D8D8D8D8D7D7D7D7D6D6
:402A4000D6D6D6D6D5D5D5D5D4D4D4D4D3D3D3D2D2D2D2D1D1D1D0D0D0D0CFCFCFCECECECDCDCDCCCCCCCBCBCBCACACAC9C9C8C8C8C7C7C7C6C6C5C5C5C4C4C3C3C3C2C216
:402A8000C1C1C1C0C0BFBFBEBEBDBDBDBCBCBBBBBABAB9B9B8B8B8B7B7B6B6B5B5B4B4B3B3B2B2B1B1B0B0AFAFAEAEADADACACABABAAAAA9A8A8A7A7A6A6A5A5A4A4A3A36D
:402AC000A2A1A1A0A09F9F9E9E9D9C9C9B9B9A9A99999897979696959594939392929190908F8F8E8E8D8C8C8B8B8A8989888887878685858484838282818180807F7E7ED1
:402B00007D7D7C7B7B7A7A79787877777676757474737372717170706F6F6E6D6D6C6C6B6A6A6969686867666665656464636362616160605F5F5E5E5D5C5C5B5B5A5A59DB
:402B40005958585757565555545453535252515150504F4F4E4E4D4D4C4C4B4B4A4A494948484747474646454544444343424242414140403F3F3E3E3E3D3D3C3C3C3B3B15
:402B80003A3A3A393938383837373736363535353434343333333232323131313030302F2F2F2F2E2E2E2D2D2D2D2C2C2C2B2B2B2B2A2A2A2A292929292928282828272722
:402BC00027272727262626262625252525252525242424242424242423232323232323232323222222222222222222222222222222222222222222222222222222222222FE
:402C000022222222222222222222222323232323232323232324242424242424242525252525252526262626262727272727272828282829292929292A2A2A2A2B2B2B2B34
:402C40002C2C2C2D2D2D2D2E2E2E2F2F2F2F303030313131323232333333343434353535363637373738383839393A3A3A3B3B3C3C3C3D3D3E3E3E3F3F40404141424242CC
:402C80004343444445454646474747484849494A4A4B4B4C4C4D4D4E4E4F4F505051515252535354545555565757585859595A5A5B5B5C5C5D5E5E5F5F606061616263637C
:402CC00064646565666667686869696A6A6B6C6C6D6D6E6F6F70707171727373747475767677777878797A7A7B7B7C7D7D7E7E7F80848A8F94989EA2A8ACB2B6BCC0C6CA4A
:402D0000D0D5DADEE4E8EEF2F8FCF8F2EEE8E4DEDAD4D0CAC6C0BCB6B2ADA8A29E98948F8A84807A76706B66615D58534E49443E39342F2A25211C17120D0803080D1217EA
:402D40001C21252A2F34393E44494E53585D61666B70767A43000000F8B500BFF8BC08BC9E4670474D000000E50A0000F8B500BFF8BC08BC9E46704729000000902D000015
:402D8000C880FF1F980100009810000000000000000000007F800000070400000000E02EC05D00001800000000366E017C28000000000000FFFFFFFFFFFFFFFFFFFFFFFFE2
:402DC000FFFFFFFF0100000002000000FFFFFFFF000000000100000002000000010000000100000001000000FFFFFFFFFFFFFFFFFFFFFFFFFFFFFFFFFFFFFFFFFFFFFFFFEA
:402E0000FFFFFFFFFFFFFFFFFFFFFFFFFFFFFFFFFFFFFFFFFFFFFFFFFFFFFFFFFFFFFFFFFFFFFFFFFFFFFFFFFFFFFFFFFFFFFFFFFFFFFFFFFFFFFFFFFFFFFFFFFFFFFFFFD2
:402E4000FFFFFFFFFFFFFFFFFFFFFFFFFFFFFFFFFFFFFFFFFFFFFFFFFFFFFFFFFFFFFFFFFFFFFFFFFFFFFFFFFFFFFFFFFFFFFFFFFFFFFFFFFFFFFFFF030000000300000084
:402E8000030000008828000098280000A8280000BC280000C4280000D4280000E0280000EC280000FC280000F492FF1F00000000C890FF1FAC8EFF1FFFFF01FFFFFF000055
:402EC000000000000000000000000000000000000000000000000000000000000000000000000000542D000000000000000000000000000000000000000000000000000051
:402F0000000000000000000000000000000000000000000000000000000000000000000000000000FC81FF1F000000000000000000000000000000000000000000000000F6
:402F40000000000000000000000000000000000000000000000000000000000000000000000000000000000000000000000000000000000000000000000000000000000051
:402F80000000000000000000000000000000000000000000000000000000000000000000000000000000000000000000000000000000000000000000000000000000000011
:402FC00000000000000000000000000000000000000000000000000000000000000000000000000000000000000000000000000000000000000000000000000000000000D1
:403000000000000000000000000000000000000000000000000000000000000000000000000000000000000000000000000000000000000000000000000000000000000090
:020000040003F7
:0200000480007A
:4000000002520040015A004003640040020301400205014004080140030901400E0A0140440B0140510C0140440D0140500E0140300F0140011901400B4001400B41014016
:400040000642014007430140044401400B45014007460140014701400648014003490140024C014003500140035101401102140187018B728C388E0FE602E820E002EE0297
:40008000B980BF40D904DF012001B140B2100404061108010A0E1807240226112807320734183E1058045C015F01001404020510060107100A040D020E62101011201680DF
:4000C0001728181019081B101E0B1F012402254027102E452F083540360837213D803E0A44204502471049104A084C014F2054205680582059105E086D206E046F09760B96
:4001000077289004924096059702981099109D089E019F28A210A420A550B012C0F6C2B2C476CAF0CCF0CED0D0E0D230D640E002EE020240030E040C05080804090E0C0844
:400140000F0C107F1301144C150C1623187319041A0C1C4F1E1022332403270128022B0E2C412D0E3102327C3301340F370C39023A2A3F0454185604580459045B045C1129
:400180005D105F01870D880189078B188E019132930C9801A507A738A802AB20AF30B003B13CB303B802B908BB02BF04C003C640C9FFCA07CBFFCC40CD20CEF0CF05D008D9
:4001C000D804D904DA04DC11DD01DF01E040E1A8E240E3200080011004010601072808200E6910081402168817041B011D101E681F042080210626012712282029042A10D5
:400200002B012C202E402F0431023410350836013704382839103C043D803E893F1041044404471049104B10500C52105F026404674287409025960499049C029E10A44810
:40024000A510A701B410B5A0C0F3C2F2C4F2CA7ECCE1CEF6D002D680D8B0E8200514080109100B0C0D1C0E010F02140118021B031D20250C2601271129102A012D092F10EC
:40028000300133203402351F3E113F0440364102450C460E470B481549FF4AFF4BFF4EF04F44500C5401580459045A045B045C105D115F0166C06A406B028308856086024F
:4002C00089608A058C068D0A8E018F049120935095039601970499409B209D039E069F0CA503A704AA03AB05B207B30FB560B710BA08BB08D804D904DC11DF0100900301B4
:4003000004200610070108080B040C080F021038140819201A401D04221423042435261029042A102B012CA82E0130803210340A35843610381839403C803D603E043F02C9
:4003400040184828508458105A49C0E3C2A6C446CA6ECCFCCEFED006D204D60FB4011280320433803402378039023B203F80C410CCF0CE7013808402950297209C029F8000
:40038000A7C0AE84B101C440E64087019502A7C0AF10E040EE40114051015B1095029F01A7C0C44031807D20CC08DE0100080B405B409B40A510B180B740C008C208D40177
:4003C000E80C45088508A510AF40B004D001EA04A51027119F11A740A940AB80C8A01B40A740C640B510EC0800020C020E0200FE0103100A000801000004100009000600AF
:40040000040000020F0100000E02010C000C00000E0E0100000C10020201000006010000000E00001000000E080007010000800000001100350402000600EC000CFFFFFF35
:4004400062A0F0410C00000000000212040404041111000100000000000040020010301000101012000000000000000000000000000000000000000000003000000B0B00EC
:4004800000000000120011E2E200020000000000BB001801000A00000000000000000000000000000000000000000000000000000000000000000000000000000000000075
:4004C00000000000000000000000000000000000000000000000000000000000000000000000000000000000000000000000000000000000000000000000000000000000FC
:4005000000000000000000000000000000000000000000000000000000000000000000000000000000000000000000000000000000000000000000000000000000000000BB
:40054000000000000000000000000000000000000000000000000000000000000000000000000000000000000000000000000000000000000000000000000000000000007B
:40058000000000000000000000000000000000000000000000000000000000000000000000000000000000000000000000000000000000000000000000000000000000003B
:0200000490006A
:0400000000004005B7
:0200000490105A
:04000000BC90ACAF55
:0200000490303A
:02000000B088C6
:0200000490402A
:4000000000000000000000000000000000000000000000000000000000000000000000000000000000000000000000000000000000000000000000000000000000000000C0
:400040000000000000000000000000000000000000000000000000000000000000000000000000000000000000000000000000000000000000000000000000000000000080
:400080000000000000000000000000000000000000000000000000000000000000000000000000000000000000000000000000000000000000000000000000000000000040
:4000C0000000000000000000000000000000000000000000000000000000000000000000000000000000000000000000000000000000000000000000000000000000000000
:0200000490501A
:0C00000000012E16006900012E28B0F14E
:00000001FF