:400000000080002011000000310900003109000008B5044B1A6803F53F5302331A6000F08FFC00BFFA46004010B5054C237833B9044B13B10448AFF300800123237010BD78
:400040006882FF1F00000000C8240000084B10B51BB108490848AFF300800848036803B910BD074B002BFBD0BDE81040184700BF000000006C82FF1FC8240000C880FF1FE8
:400080000000000008B5002000F07EFF08BD00BF684620F007018D4619B572B6EFF311841E4B1B68DBB20F2B10D9103B23F0030202F1604202F564421168DB0003F01803D9
:4000C000E0229A400A4022FA03F306E00F2B03D1134B1B681B0E00E0002383F31188114A136801331360012B01D102F04BF862B6FFF7C8FF72B684F3118801F03FF9094A7F
:400100001368013B13601BB902F045F802F009F862B6BDE819408546704700BF04ED00E020ED00E0E88AFF1F08B562B645F6BF52054B1A60054A136843F00203136000207A
:4001400001F00AFAFBE700BF14E000E010E000E02DE9F04100F064FA01F030FE01F0B4FF2E4C0025257041F6FF734FF480420121022001F06DFFDFF8B88088F8000000F0EB
:40018000DDFC274F38700623FE224FF4006100F0EFFC244EB6B2324644F61061387800F0FBFC397898F8000000F09AFC4FF4804341F6FF720121022001F068FFDFF8748010
:4001C00088F8000000F0BAFC174F38700523FE224FF4006100F0CCFC46F24E423146387800F0DAFC397898F8000000F079FC01F017FA0E4A136843F00503136025706570DF
:40020000A5702571E5706571022000F00BFD012000F008FD01F0E6F9BDE8F081D48AFF1FCC82FF1FD082FF1FD08AFF1F10E000E0D28AFF1FD18AFF1FFEE700BF00B583B0B3
:4002400000230193DF2000F0C5FF01A9022000F021FF019800F0F0FE404B1B78012B14D013B1022B56D0EDE7019B13F0010FE9D001213B4B187800F0D9FB01F0FFFA01F069
:40028000B1FD0122354B1A70DCE7019B13F0040F02D00121314A117113F0200F21D02F4B1B795BB92E4B187800F0DCFB01F076FA01F0A0FD0221084600F00CFF274B1B7987
:4002C000012B0ED10022254B1A71254B187800F0C9FB01F063FA01F08DFD4021022000F0F9FE019B13F0020F08D001211C4B187800F09CFB01F0C2FA01F074FD019B13F019
:40030000400F07D00121174B187800F08FFB0222124B1A70019B13F0800F93D0114B187800F0A0FB0D4A53780133DBB25370092B07D80122094B1A700221084600F0CAFE13
:4003400080E70A2B7FF47EAF044B00221A705A709A701A71DA705A7174E700BFD48AFF1FD28AFF1FD18AFF1F08B501F0EBF9C0B2094B1B78012B06D1732804D104210220A4
:4003800000F0A8FE08BD022B05D16F2803D18021022000F09FFE08BDD48AFF1F684620F007018D4619B572B6EFF311841E4B1B68DBB20F2B10D9103B23F0030202F1604249
:4003C00002F564421168DB0003F01803E0229A400A4022FA03F306E00F2B03D1134B1B681B0E00E0002383F31188114A136801331360012B01D101F0C5FE62B6FFF7B4FFC6
:4004000072B684F3118800F0B9FF094A1368013B13601BB901F0BFFE01F083FE62B6BDE819408546704700BF04ED00E020ED00E0E88AFF1F08B52021022000F04BFE08BDA8
:40044000684620F007018D4619B572B6EFF311841E4B1B68DBB20F2B10D9103B23F0030202F1604202F564421168DB0003F01803E0229A400A4022FA03F306E00F2B03D1B7
:40048000134B1B681B0E00E0002383F31188114A136801331360012B01D101F073FE62B6FFF7C8FF72B684F3118800F067FF094A1368013B13601BB901F06DFE01F031FE13
:4004C00062B6BDE819408546704700BF04ED00E020ED00E0E88AFF1F0122014B5A717047D48AFF1F684620F007018D4619B572B6EFF311841E4B1B68DBB20F2B10D9103BFD
:4005000023F0030202F1604202F564421168DB0003F01803E0229A400A4022FA03F306E00F2B03D1134B1B681B0E00E0002383F31188114A136801331360012B01D101F05B
:4005400021FE62B6FFF7C8FF72B684F3118800F015FF094A1368013B13601BB901F01BFE01F0DFFD62B6BDE819408546704700BF04ED00E020ED00E0E88AFF1F08B501219F
:40058000022000F0A7FD08BD684620F007018D4619B572B6EFF311841E4B1B68DBB20F2B10D9103B23F0030202F1604202F564421168DB0003F01803E0229A400A4022FAE5
:4005C00003F306E00F2B03D1134B1B681B0E00E0002383F31188114A136801331360012B01D101F0CFFD62B6FFF7C8FF72B684F3118800F0C3FE094A1368013B13601BB9AE
:4006000001F0C9FD01F08DFD62B6BDE819408546704700BF04ED00E020ED00E0E88AFF1F08B501F073F8002008BD00BFFEE700BFF0B40022174611E050F82760F3B226F0E4
:40064000FF0608E001EB420511F812406D78A5550132013BDBB2002BF4D101371A2FEBD9F0BC7047094B1B78DBB203F00701084A11701B0901321370102302F22122137083
:40068000703213704422034B1A707047CF0100496E5800407658004008B50A46002101F00AFF08BD08B501F0FBFE08BD38B50024354B1C80502202331A70EF2202331A805C
:4006C0001823324A13704FF49C71023211800232137042F6DF622E4B1A80192502331D7004222C492C48FFF7DDFF02222B4B1A7008224FF040231A70032103F500731970F5
:40070000274B1B78DBB227490B70274B1A8041F25122023B1A800CE0244B1B7803F0010343EA440404F003044FF4F07001F0DCFC013D0DB1032CEFD115B90320FFF776FFAB
:400740001B4B4FF480721A8007221A70002219490A704820023108701A700222033B1A7004220A331A70144A137843F00F031370013A137843F001031370013A137843F0F3
:400780008003137038BD00BF80400040864000408C400040A4030048004100400043004008010049A146004022420040254200400440004006400040A2430040012807D87F
:4007C000044B53F820201844017A13780B431370704700BFCC240000012808D8044B53F820201844017A137823EA010313707047CC24000038B572B63A4A137843F00403A8
:40080000137000240BE0384863001A19510001440A46098AD068FFF73FFF0134E4B2092CF1D900240BE03049A3001819420088188022C16C806CFFF735FF0134E4B2002C47
:40084000F1D02A494FF09040FFF7F2FE0A25284B1D7004212748FFF71FFF042226492748FFF720FF04212648FFF716FF04212548FFF712FF244A137843F002031370103232
:40088000137843F002031370204C237843F040032370A2F58632513A137843F01003137008221B491B48FFF7FDFE2A461A491B48FFF7F8FE1A4A137843F008031370194D9A
:4008C00061232B70FFF7F2FE81232B700122164B1A70FFF7C7FE0E2221461448FFF7E2FE38BD00BFE8460040CC2400006C0000488358004000760040A80300485076004092
:40090000087600401076004003500140A043004090030048125100409803004820510040224300400048004004000840B043004008B501F089FD03680C2B00D1FEE7FEE74D
:4009400008B5104E104D16E029686B68AC68002204E051F8040B43F8040B0432A242F8D1E868002203E0002143F8041B04328242F9D11035013E002EE6D101F06BFDFFF7BA
:40098000D3FBFEE701000000E42F000008B5114A114B1A60114A136843F40073136000230AE0032B03D80E4A52F8231000E00D490D4A42F8231001332F2BF2D90B4B1A7869
:4009C0000B4B1A70084A0B4B1A60FFF713FF00F013F808BD0004FA050CED00E014ED00E000000000310900000080FF1FBC760040C080FF1F08ED00E00B4A7F2313708021D8
:400A0000517007E0DA0002F1804202F5F042013BDBB21370002BF5D1DB0003F1804303F5F04300221A707047CC80FF1F172815D831B103010A495A5C42F020025A5405E08D
:400A4000030107495A5C02F0DF025A540001044A835C43F00103835400207047012070471070004017280BD80001064BC25C02F0FE02C254C25C02F0DF02C25400207047C8
:400A8000012070471070004017280BD80001064A835C03F0F103490001F00E011943815400207047012070471070004041F6FF73994201D14FF4005141F6FF739A4201D13B
:400AC0004FF40052172808D8C00000F1804000F5EC408180C280002070470120704700BF172805D8034B03EB0010417200207047012070471070004017281BD810B4C000BF
:400B000000F1804404F5EC44D201D2B201F07F01114321709DF804201201D2B203F00F03134363709DF8083003F00F03A3700020E07001E00120704710BC704710B501F065
:400B4000DBFA0A4B5B78182B0BD9084A1478013B5370E30003F1804303F5F0431B78137000E0FF2401F0CCFA204610BDCC80FF1F10F0800F0CD111F4704F0BD1C00000F185
:400B8000804000F5F04001808270C37000207047012070470120704710F0800F08D1C00000F1804000F5F0408180C280002070470120704701BE704708B5034B1B7A00FB22
:400BC00003F001F091FA08BDD480FF1F70B504460E46074B1D681F2802D90020FFF7EAFF04F01F04103455F8240045F8246070BD08ED00E038B504460D46072902D9002050
:400C0000FFF7D8FF1F2C02D90020FFF7D3FF04F01F0000F1604000F564406D01EDB2057038BD00BF38B5EFF3108572B602284ED82D4B53F82030002B4BD02B4A013B42F846
:400C400020302A4B53F82030032B07D10222274B43F820200022264B43F8202000F0FEFB244B1B68002B36D1234B1C6800F0D4FBB0F1FF3F31D0214B53F82020204B1B686C
:400C80009A422CD9B4F1FF3F03D00221174A42F824101C4A52F820201343194A13600022124B43F8202000F073FB174B53F820304BB10024144B43F8204040F0004001F0BF
:400CC00073FA20460CE001F06FFA002008E0032006E0042004E0002002E0002000E0002085F3108838BD00BF1481FF1FB081FF1F9C82FF1FE88AFF1FA081FF1FA426000005
:400D0000B082FF1F782600008482FF1F18B108B5C368984708BD704708B508B1406800E00020022816D80C4B53F8203093B10A4A013B42F82030094B53F82030032B07D11A
:400D40000222064B43F820200022054B43F8202000F084FB08BD00BF1481FF1FB081FF1F9C82FF1F18B1034640689B6801E00023184602281DD80F4A52F82020CAB10E4A71
:400D800052F82010032914D010B50C4C54F820201A4344F820200A4A52F82020134207D0012905D10222044B43F8202000F056FB10BD704760260000B081FF1F9C82FF1F59
:400DC0009082FF1F80B108B50378012B06D013B1032B06D008BDFFF79FFF08BDFFF7C2FF08BDFFF793FF08BD704700BF30B400EB40029300214AD258214B03EBC2035C6817
:400E0000B4F1FF3F04D11E4B03EBC20250602DE01C4B03EB04139B6899420AD2184D05EBC2025060174A02EB04125B1A93601DE01C46144B03EB04139A68891ADB68B3F118
:400E4000FF3F05D00F4A02EB031292689142EFD2B3F1FF3F05D00B4A02EB031295686D1A9560084A02EB0414E0601C46054B03EB00108160C46030BC704700BF40260000DB
:400E8000E880FF1FF08EFF1F38B5394A02EBC0035C6852F83030013342F8303000EB40018A0034498A58934203D90022304B43F83020B4F1FF3F59D02F4B03EB04139B6838
:400EC000002B4ED1214600E019462B4B03EB0113DB68B3F1FF3F05D0274A02EB03129268002AF1D0244A02EB01114FF0FF32CA601F4A02EBC0004360B3F1FF3F07D01E4A57
:400F000002EB03139A68013A9A6000E02C4604EB44029300194A13441B7A7BB904EB44029300164A13445A68154B53F8223003EB83039A0013481044FFF744FF0E4B03EB5F
:400F40000413DD68596821B101392046FFF74EFF03E024010022084B1A51B5F1FF3FD5D138BD054A02EB0414013BA36038BD00BFE880FF1F54260000F08EFF1F40260000EF
:400F8000502600002C26000038B5EFF3108572B6002838D1FFF778FF204B1B68002B34D11F4B1C6800F038FAB0F1FF3F2FD01D4B53F820201C4B1B689A422AD9B4F1FF3F94
:400FC00003D00221194A42F82410194A52F820201343154A13600022144B43F8202000F0D7F9144B53F820304BB10024114B43F8204040F0004001F0D7F820460AE001F0D7
:40100000D3F8002006E0032004E0002002E0002000E0002085F3108838BD00BFE88AFF1FA081FF1FA4260000B082FF1FB081FF1F782600008482FF1FEFF3108372B6114A00
:401040001168114A126882B9B1F1FF3F0FD00F4A52F821206AB110B40D4C54F8212022EA000044F82100002007E0022002E0022000E0012083F31088704783F3108810BC49
:40108000704700BFA081FF1FE88AFF1F602600009C82FF1F02280FD80B4B53F820306BB10A4B53F82030032B0AD059B1084B53F820300B6000207047032070470120704727
:4010C000072070470E20704760260000B081FF1F9C82FF1F38B5EFF3108472B6022853D8324B53F82030002B50D0314B53F82030032B4DD02F4D55F820200A4345F82020A4
:401100002D4A52F82020114244D0012B44D10222274B43F8202000F0A1F9284B1B68002B3CD1274B1D6800F077F9B0F1FF3F37D0244B53F82020244B1B689A4232D9B5F187
:40114000FF3F03D002211A4A42F825101F4A52F8202013431C4A13600022154B43F8202000F016F91A4B53F820304BB10025184B43F8205040F0004001F016F8284612E04C
:4011800001F012F800200EE003200CE001200AE0072008E0002006E0002004E0002002E0002000E0002084F3108838BD60260000B081FF1F9C82FF1F9082FF1FE88AFF1FFC
:4011C000A081FF1FA4260000B082FF1F782600008482FF1F38B5EFF3108472B6364B1D68364B1B68002B5DD1B5F1FF3F5CD0344B53F82530002B59D0324B53F82530034201
:4012000056D1314B43F825000122304B43F825202F4B53F825002F490B6823EA00030B602D4B43F825202D4B53F82520224B1A6000F0F2F8B0F1FF3F06D0294B53F82020C8
:40124000244B1B689A420DD81B4B1868B0F1FF3F03D000221D4B43F8202040F0004000F0A3FF1AE00021194A42F82010184A52F820201343174A136000F08AF8164B53F800
:40128000203043B10022144B43F8202040F0004000F08AFF01E000F087FF00200A4B43F8250006E0022004E0022002E0012000E0002084F3108838BDA081FF1FE88AFF1FF5
:4012C000602600009C82FF1F9082FF1FB081FF1F78260000B082FF1F8482FF1FA481FF1FA426000008B500F053F8084B53F8203043B10022054B43F8202040F00040044B08
:40130000186008BD024B186008BD00BF8482FF1FEC8AFF1F10B500F07FF8124B1B68B0F1FF3F1AD0104A52F82010104A1268914213D9B3F1FF3F03D002240D4941F8234066
:4013400000210B4B43F820100A4B53F820301A43064B1A60FFF7C6FF10BD43F00043064A136010BDA081FF1FA4260000B082FF1FB081FF1F78260000EC8AFF1F034B1B683A
:4013800013B10022014B1A60704700BFDC8AFF1FF0B4184B19880B0A174AD356B3F1FF3F01D1535601E008335BB2144D55F82320134850F82200134E56F8224045F8234053
:4013C000114D2F6846F822702A60B4F1FF3F09D10E4A42F82340012202FA03F321EA0301044B19800A4B19680A4A42F820101860F0BC7047AC82FF1F202500006081FF1FE1
:40140000D88EFF1FFC80FF1FA882FF1F2081FF1FA081FF1FA481FF1F0C4B1A88130A0C49CB56B3F1FF3F01D18B5601E008335BB2B3F1FF3F06D0074A52F82320064B53F889
:40144000220070474FF0FF30704700BFAC82FF1F202500006081FF1FD88EFF1F30B4144B53F82020134C2368134951F823502560124C44F823004FF0FF3441F82340104922
:4014800051F82210A1420AD10E4951F820400E480188214301800D4941F8223002E0064840F82130064941F8223030BC704700BF0881FF1FA882FF1FFC80FF1FD88EFF1F4C
:4014C0002081FF1FA4260000AC82FF1F6081FF1F10B150F8210070474FF0FF30704700BF0122014B1A60FEE7E48AFF1F70B50546124B53F8306000241CE0104B03EBC50320
:4015000021465868FFF7E4FF0D4A52F82030013B42F820300B4B53F82030032B07D10222084B43F820200022074B43F82020FFF795FF0134B442E0D370BD00BF2026000082
:401540001481FF1FB081FF1F9C82FF1F18B908B5FFF7CCFF08BD7047194B1A4ADA621A4A9A631A4ADA63EFF3108272B6184B1B6813BB10B5044600F053F8164B1C600122C2
:40158000134B1A602046FFF7E1FFFFF745FFB0F1FF3F0ED0104B53F82030104A11680B43136000220E4B43F82020FFF7F1FE00F0FBFD62B6FFF794FF82F310880720704747
:4015C0000080FF1F692100002D21000091000000E48AFF1FF490FF1F78260000B082FF1FB081FF1F08B5EFF3108272B6094B1968094B1B6833B94FF0FF30084B43F821006B
:40160000002000E0022010B9084600F026FE82F3108808BDA081FF1FE88AFF1FF080FF1F70B51C4B1D68EFF3108672B600F06CFD194A136843F07F431360184B2B640121CA
:401640000020FFF7D7FA164C236843F001032360144B6B6401210846FFF7CCFA236843F002032360104BEB6401210320FFF7C2FA236843F0080323600C4BAB6401210220A5
:40168000FFF7B8FA236843F00403236086F3108870BD00BF08ED00E020ED00E04104000000E100E0E5040000890500009D0300007222074B1A702022013B1A7006225D3B26
:4016C0001A70472210331A7001224F331A7070478D64004010B500F00FFD04460A4A137843F020031370013A137843F0100313700232137843F01003137000F02DF82046BE
:4017000000F0FEFC10BD00BF9D64004008B5054B1B7823B9FFF7CCFF0122024B1A70FFF7D9FF08BDB882FF1F014B1878704700BF4D640040024B187800F07F00704700BFCB
:401740006C64004010B5FFF7F5FF0402FFF7ECFF204380B210BD00BF054A137843F0040313701032137843F004031370704700BFA243004010B500F0E7F8074C0121207845
:40178000FFF754F901216078FFF750F9002000F005F900F081F810BDBA82FF1F10B500F089F8054C2078FFF75DF96078FFF75AF900F0D8F810BD00BFBA82FF1F70B505466D
:4017C0000E464FF48043020C0121084600F080F8094C2070A078012302463146FFF7C8F945F68232A9B2A078FFF7D6F9A1782078FFF776F970BD00BFBA82FF1F70B505461F
:401800000E464FF48043020C0121084600F07EF8094C6070E078012302463146FFF7A8F945F68232A9B2E078FFF7B6F9E1786078FFF756F970BD00BFBA82FF1F10B500F0BB
:40184000D5F8022000F09CF8042000F0BFF8FFF775F9084CA070FFF771F9E070064C4FF4FA612046FFF7AAFF642104F5FA60FFF7C5FF10BDBA82FF1F8827000008B5054B48
:401880001B7923B9FFF7DAFF0122024B1A71FFF771FF08BDBA82FF1F054A137843F0020313701032137843F002031370704700BFA2430040054A137803F0FD03137010321F
:4018C000137803F0FD031370704700BFA2430040F0B583B016461F460B4C012525700023019300930A4601462846FFF705F93A4631462078FFF7DAF802212078FFF7C4F89A
:40190000207803B0F0BD00BFF881FF1FF0B583B016461F460B4C022525700023019300930A4601462846FFF7E7F83A4631462078FFF7BCF829462078FFF7A6F8207803B06A
:40194000F0BD00BFF981FF1F054A137843F0040313701032137843F004031370704700BFA8430040054A137803F0FB0313701032137803F0FB031370704700BFA843004071
:40198000054B1A7802F0FD021A701A7800F0020010431870704700BF28580040014B1870704700BF825B0040064B1B78C3F3810303F19243063393F82831DBB2024A13706E
:4019C000704700BF285800400A46004008B5064B1A7802F0F3021A701A7800F00C0010431870FFF7E1FF08BD2858004008B50020074B187001331870064A137843F00803C0
:401A00001370FFF7E3FF0220FFF7BAFF08BD00BF28580040975A004010B59DF80840012C51D1013809282ED8DFE800F0052D2D052D2D0F192D230F2B03D92548007840B2CA
:401A400022E02448007840B21EE00F2B03D92248007840B218E02148007840B214E00F2B03D91F48007840B20EE01E48007840B20AE00F2B03D91C48007840B204E01B482D
:401A8000007840B200E0002001EB401101FB02F1C90B8AB20D2B0BD8C3F10E0289B211418AB2611E124800EB810101338B7005E0631E0F4901EB83030F219970013C0C4B66
:401AC00023F8242010BD0020FFF774F810BD00BF180100491C010049190100491D0100491A0100491E0100491B0100491F010049C082FF1FF8B5074600F0FEFA06460D4D98
:401B00002B7843F003032B700B4C237843F0030323700A4B1F700320FFF74EF82B7803F0FC032B70237803F0FC032370304600F0E7FAF8BDF8460040F946004092580040BA
:401B40000022324B1A7101285FD170B53822304B1A70042202331A70062201331A70002401331C7001331C703F2201331A7002331C7001331C7001331C7001250A331D709F
:401B8000502203F527631A70072201331A70292201331A7001331C70552203331A705A2201331A7001331C70022602331E70122201331A70282201331A70EB2201331A7016
:401BC0004420FFF797FF5822124B1A7001331C70052205331A7001331E7001331C7001331C70204600F020F942F6AB120A4B1A602946304600F03CF929460B2000F0BCF92D
:401C000006491D20FEF7E2FF70BD7047C082FF1F004E004094580040F892FF1F051E0000F0B583B0284D01272F70284E00247471102000F00BF9102000F08CF907211D20B8
:401C4000FEF7D8FF0422224B1A7001331C7007331C70204A137843F0180313701E4B1C7003F2F5231C7001331C700A22A3F209331A7001331C7002331C705B2205331A709A
:401C80005E2201331A7004331C701422A3F68C231A70009710234FF4004247F602710320FFF7BAFE2B78013B06EB83039A780B4B1A702B78013B36F82320094B1A80287825
:401CC000FFF73EFF03B0F0BDFA81FF1FC082FF1F96580040075B0040935800400E4E00400C4E004070B500F007FA06462A4B1B782A4B1A7842F001021A701A7842F0100221
:401D00001A7010331A7842F001021A701A7842F010021A70224D2B7843F002032B70214C237843F0020323701F4A137843F0030313700320FEF740FF2B7803F0FD032B7035
:401D4000237803F0FD032370184A137843F0060313707A22164B1A70164A137843F0010313701032137843F0010313700F3A137843F0010313701032137843F001031370CE
:401D80004FF000530C4A1360A2F5C0721360304600F0B6F970BD00BFFA81FF1FAA430040F8460040F9460040915800407758004082580040A143004080E200E008B5084B00
:401DC0009B794BB9064BDB7913F0FF0F01D1FFF727FF0122024B9A71FFF784FF08BD00BFC082FF1F024A137843F0010313707047004E0040024A137803F0FE031370704774
:401E0000004E0040704700BF10B5002404E02046FEF7E2FC0134E4B2012CF8D9FF22014B1A7010BDFB81FF1F10B50446FFF7ECFF2046FEF7C3FC014B1C7010BDFB81FF1F28
:401E4000014B188880B2704780400040034B1A7800F0F80010431870704700BF82400040024B187800F00700704700BF8240004070B505460E46FFF7F3FF0446FFF7E0FF5B
:401E8000A84256D02B4B1B7803F0010294B900B185B938B9284B1D80284A137803F0BF03137070BD254A137843F040031370224B1D8070BD22B3002321490B7001240F3108
:401EC0000C7004310B700C390B7803F07F030B701A4B1B7813F0080F00D08DB9194B18800721013B1970164B1B7813F0010FFAD110490B7803F0FE030B700021104B1970CB
:401F00000C4B1B7813F0010F0DD00E4B1D800EB1032200E001220A4B1A70094B1B7813F0010FFAD170BD044B1D8002490B7813430B7070BDA243004080400040824000403A
:401F40000140004002400040014B188880B2704700410040034B1A7800F0F80010431870704700BF02410040024B187800F00700704700BF0241004070B505460E46FFF7E5
:401F8000F3FF0446FFF7E0FFA84256D02B4B1B7803F0010294B900B185B938B9284B1D80284A137803F0BF03137070BD254A137843F040031370224B1D8070BD22B3002340
:401FC00021490B70012413310C7004390B7008390B7803F07F030B701A4B1B7813F0080F00D08DB9194B18800721013B1970164B1B7813F0010FFAD110490B7803F0FE03F8
:402000000B700021104B19700C4B1B7813F0010F0DD00E4B1D800EB1032200E001220A4B1A70094B1B7813F0010FFAD170BD044B1D8002490B7813430B7070BDA1430040BC
:4020400000410040024100400140004002400040F0B583B016461F460B4C0A2525700023019300932B460A4601462846FEF744FD3A4631462078FEF719FD02212078FEF765
:4020800003FD207803B0F0BDFC81FF1FF0B583B016461F460B4D00242C700194009423460A4601462046FEF727FD3A4631462878FEF7FCFC02212878FEF7E6FC287803B0C3
:4020C000F0BD00BFFD81FF1F054A137843F0080313701032137843F008031370704700BFA2430040000000000230800803D000BF01380046FCD17047EFF3108072B6704774
:4021000080F31088704700BF18484FF47F0102680A43026016486FF07F4102680A400260704714484FF080510160704772B611484FF000610160FFF7EDF80F48006800F008
:40214000C3F858B10C4800684FF080730B4A0C490FB40FB46FF00600004700BF6FF0060062B6004762B600DF08B0704720ED00E01CED00E004ED00E0EC8AFF1FA9210000E3
:4021800065210000EFF30880054908600548006880F3088870470248006880F308887047FE81FF1FE881FF1F411C8900154A11440968154A136899421AD0F0B444464D460F
:4021C00056465F46F0B400B5104C9B002344EFF308851D60116089002144096881F3088802BC8E46F0BCA046A946B246BB46F0BC002806DB00B500F05BF802BC8E46FFF7E6
:40220000D3BF7047C8260000B482FF1FEC81FF1FF0B444464D4656465F46F0B400B5EFF3038308B48000174901440968164A0244EFF30883136088471448804704BC4FF0FC
:402240008070024382F3038801BC8646F0BCA046A946B246BB46F0BC704780000A4901440A6882F3088804BC4FF08070024382F3038808BC9E46F0BCA046A946B246BB46DE
:40228000F0BC7047B0260000E48EFF1F9122000008B572B6014B1868FFF7DFFFA081FF1F08B5024B1868FFF7B3FF08BDA081FF1F08B562B6FFF7F4FF72B600F041F8014B4D
:4022C000186808BDEC8AFF1F00280BDA20F000400130054B53F82000044B1B68181A18BF0120704701207047C8260000B482FF1F054B53F82020054B53F820309A4201D17B
:4023000001207047002070471481FF1F6C26000008B5FFF73DF8084B53F8203043B10022054B43F8202040F00040044B186008BD024B186008BD00BF8482FF1FEC8AFF1FF5
:4023400038B5364B1C680022354B1A60354A52F82430013342F82430334B53F824502046FFF7C6FF012801D0A54204D103222F4B43F8242003E002222C4B43F824202C4BCA
:4023800053F824102B4A136823EA010313602A4B53F82440214B1C60B5F1FF3F0FD0234B53F82530032B07D10222204B43F825200022224B43F825202846FFF74FF8FFF788
:4023C0002BF8B0F1FF3F0BD1B4F1FF3F03D00022164B43F8242044F00044194B1C6038BD184B53F82020134B1B689A4208D800220E4B43F8242044F00044114B1C6038BD30
:4024000000210A4A42F82010094A52F820201343084A1360FFF77CFF38BD00BFA081FF1FDC8AFF1F1481FF1FF080FF1FB081FF1F78260000B082FF1FA481FF1F9C82FF1FE0
:40244000EC8AFF1FA4260000014B1868704700BF6482FF1F0E4B70B51E460E4C0025E41AA410A54204D056F8253098470135F8E700F0A6FD084B094C1E46E41AA4100025DD
:40248000A54204D056F8253098470135F8E770BDCC2F0000CC2F0000CC2F0000D42F000010B5431E0A44914204D011F8014B03F8014FF8E710BD03460244934202D003F811
:4024C000011BFAE77047000000000000035B00402443004040000000005100401000305100404000C05100401000F0510040100000000140800C000D01400003001401409C
:40250000000800400140000A004C01400002005001402000800C01401003004880000000FF00010102020202030303030303030304040404040404040404040404040404BF
:4025400005050505050505050505050505050505050505050505050505050505050505050606060606060606060606060606060606060606060606060606060606060606FB
:40258000060606060606060606060606060606060606060606060606060606060606060607070707070707070707070707070707070707070707070707070707070707077B
:4025C000070707070707070707070707070707070707070707070707070707070707070707070707070707070707070707070707070707070707070707070707070707071B
:40260000070707070707070707070707070707070707070707070707070707070707070701000000282600000000000000000000020000000000000000000000FFFFFFFF6D
:40264000000000000000000000000000000000000000000010270000010000000000000000000000000000000100000001000000010000000100000080000000020000009C
:4026800004000000010000000200000004000000080000001000000020000000400000008000000001000000020000000400000051010000390200003D020000A122000081
:4026C000A1220000A122000000000000000000000100000002000000616C726D5F6D61696E00000065765F70757368427574746F6E00000065765F6E6F5352656365697663
:402700006564000065765F7352656365697665640000000065765F636F756E744C65737354656E0065765F636F756E74457175616C54656E0000000065765F73616D706C02
:40274000696E6746696E69736865640065765F73656E640065765F554152544F7665720074736B5F696E69740000000074736B5F6261636B67726F756E64000074736B5F14
:40278000636F6E74726F6C007D7D7E7E7E7E7F7F7F808080818181818282828383838384848485858586868686878787888888888989898A8A8A8B8B8B8B8C8C8C8D8D8DFB
:4027C0008D8E8E8E8F8F8F8F90909091919191929292939393939494949595959596969697979797989898999999999A9A9A9B9B9B9B9C9C9C9C9D9D9D9E9E9E9E9F9F9F40
:40280000A0A0A0A0A1A1A1A1A2A2A2A3A3A3A3A4A4A4A4A5A5A5A5A6A6A6A7A7A7A7A8A8A8A8A9A9A9A9AAAAAAAAABABABABACACACACADADADADAEAEAEAEAFAFAFAFB0B0A0
:40284000B0B0B1B1B1B1B2B2B2B2B3B3B3B3B4B4B4B4B5B5B5B5B6B6B6B6B6B7B7B7B7B8B8B8B8B9B9B9B9B9BABABABABBBBBBBBBBBCBCBCBCBDBDBDBDBDBEBEBEBEBEBF70
:40288000BFBFBFBFC0C0C0C0C1C1C1C1C1C2C2C2C2C2C3C3C3C3C3C4C4C4C4C4C4C5C5C5C5C5C6C6C6C6C6C7C7C7C7C7C7C8C8C8C8C8C8C9C9C9C9C9CACACACACACACBCBD6
:4028C000CBCBCBCBCCCCCCCCCCCCCCCDCDCDCDCDCDCECECECECECECECFCFCFCFCFCFCFD0D0D0D0D0D0D0D1D1D1D1D1D1D1D1D2D2D2D2D2D2D2D2D3D3D3D3D3D3D3D3D4D4F7
:40290000D4D4D4D4D4D4D4D4D5D5D5D5D5D5D5D5D5D6D6D6D6D6D6D6D6D6D6D6D7D7D7D7D7D7D7D7D7D7D7D7D8D8D8D8D8D8D8D8D8D8D8D8D8D8D8D9D9D9D9D9D9D9D9D9EB
:40294000D9D9D9D9D9D9D9D9DADADADADADADADADADADADADADADADADADADADADADADADADADADADADADBDBDBDBDBDBDBDBDBDBDBDBDBDBDBDBDBDBDBDBDBDBDBDBDBDBDBC4
:40298000DBDBDBDBDBDBDBDBDBDBDBDBDBDBDBDBDBDBDBDBDADADADADADADADADADADADADADADADADADADADADADADADADADADADADAD9D9D9D9D9D9D9D9D9D9D9D9D9D9D992
:4029C000D9D9D8D8D8D8D8D8D8D8D8D8D8D8D8D8D8D7D7D7D7D7D7D7D7D7D7D7D7D6D6D6D6D6D6D6D6D6D6D6D5D5D5D5D5D5D5D5D5D4D4D4D4D4D4D4D4D4D4D3D3D3D3D353
:402A0000D3D3D3D2D2D2D2D2D2D2D2D1D1D1D1D1D1D1D1D0D0D0D0D0D0D0CFCFCFCFCFCFCFCECECECECECECECDCDCDCDCDCDCCCCCCCCCCCCCCCBCBCBCBCBCBCACACACACAF4
:402A4000CAC9C9C9C9C9C8C8C8C8C8C8C7C7C7C7C7C7C6C6C6C6C6C5C5C5C5C5C4C4C4C4C4C4C3C3C3C3C3C2C2C2C2C2C1C1C1C1C1C0C0C0C0BFBFBFBFBFBEBEBEBEBEBD6A
:402A8000BDBDBDBDBCBCBCBCBBBBBBBBBBBABABABAB9B9B9B9B9B8B8B8B8B7B7B7B7B6B6B6B6B6B5B5B5B5B4B4B4B4B3B3B3B3B2B2B2B2B1B1B1B1B0B0B0B0AFAFAFAFAE96
:402AC000AEAEAEADADADADACACACACABABABABAAAAAAAAA9A9A9A9A8A8A8A8A7A7A7A7A6A6A6A5A5A5A5A4A4A4A4A3A3A3A3A2A2A2A1A1A1A1A0A0A0A09F9F9F9E9E9E9E53
:402B00009D9D9D9C9C9C9C9B9B9B9B9A9A9A99999999989898979797979696969595959594949493939393929292919191919090908F8F8F8F8E8E8E8D8D8D8D8C8C8C8B7B
:402B40008B8B8B8A8A8A898989888888888787878686868685858584848483838383828282818181818080807F7F7F7E7E7E7E7D7D7D7C7C7C7C7B7B7B7A7A7A79797979DE
:402B80007878787777777776767675757574747474737373727272727171717070706F6F6F6F6E6E6E6D6D6D6D6C6C6C6B6B6B6B6A6A6A6969696968686867676767666650
:402BC000666565656564646463636363626262616161616060605F5F5F5F5E5E5E5E5D5D5D5C5C5C5C5B5B5B5A5A5A5A59595959585858575757575656565655555555549D
:402C00005454535353535252525251515151505050504F4F4F4F4E4E4E4E4D4D4D4D4C4C4C4C4B4B4B4B4A4A4A4A4949494948484848474747474646464645454545444494
:402C400044444443434343424242424141414141404040403F3F3F3F3F3E3E3E3E3D3D3D3D3D3C3C3C3C3C3B3B3B3B3B3A3A3A3A3939393939383838383837373737373612
:402C800036363636363535353535343434343433333333333332323232323231313131313030303030302F2F2F2F2F2F2E2E2E2E2E2E2E2D2D2D2D2D2D2C2C2C2C2C2C2CE8
:402CC0002B2B2B2B2B2B2B2A2A2A2A2A2A2A2929292929292929282828282828282827272727272727272626262626262626262625252525252525252524242424242424FC
:402D00002424242423232323232323232323232322222222222222222222222222222221212121212121212121212121212121212020202020202020202020202020202030
:402D4000202020202020202020202020201F1F1F1F1F1F1F1F1F1F1F1F1F1F1F1F1F1F1F1F1F1F1F1F1F1F1F1F1F1F1F1F1F1F1F1F1F1F1F1F1F1F1F1F1F1F1F2020202082
:402D800020202020202020202020202020202020202020202020202020212121212121212121212121212121212122222222222222222222222222222223232323232323CF
:402DC00023232323232424242424242424242424252525252525252525262626262626262626262727272727272727282828282828282829292929292929292A2A2A2A2A3D
:402E00002A2A2B2B2B2B2B2B2B2C2C2C2C2C2C2C2D2D2D2D2D2D2E2E2E2E2E2E2E2F2F2F2F2F2F3030303030303131313131323232323232333333333333343434343435C7
:402E4000353535353636363636363737373737383838383839393939393A3A3A3A3B3B3B3B3B3C3C3C3C3C3D3D3D3D3D3E3E3E3E3F3F3F3F3F40404040414141414142428A
:402E8000424243434343444444444445454545464646464747474748484848494949494A4A4A4A4B4B4B4B4C4C4C4C4D4D4D4D4E4E4E4E4F4F4F4F505050505151515152A0
:402EC00052525253535353545454555555555656565657575757585858595959595A5A5A5A5B5B5B5C5C5C5C5D5D5D5E5E5E5E5F5F5F5F6060606161616162626263636339
:402F0000636464646565656566666667676767686868696969696A6A6A6B6B6B6B6C6C6C6D6D6D6D6E6E6E6F6F6F6F70707071717172727272737373747474747575757673
:402F4000767677777777787878797979797A7A7A7B7B7B7C7C7C7C7D80848A8F94989EA2A8ACB2B6BCC0C6CAD0D5DADEE4E8EEF2F8FCF8F2EEE8E4DEDAD4D0CAC6C0BCB6E1
:402F8000B2ADA8A29E98948F8A84807A76706B66615D58534E49443E39342F2A25211C17120D0803080D12171C21252A2F34393E44494E53585D61666B70767A4300000009
:402FC000F8B500BFF8BC08BC9E4670474D0000008D090000F8B500BFF8BC08BC9E46704729000000F82F0000C880FF1FA00100009810000000000000000000007F800000F2
:40300000070400000000E02EC05D00001800000000366E01D826000000000000FFFFFFFFFFFFFFFFFFFFFFFFFFFFFFFF0100000002000000FFFFFFFF0000000001000000AF
:4030400002000000010000000100000001000000FFFFFFFFFFFFFFFFFFFFFFFFFFFFFFFFFFFFFFFFFFFFFFFFFFFFFFFFFFFFFFFFFFFFFFFFFFFFFFFFFFFFFFFFFFFFFFFF7B
:40308000FFFFFFFFFFFFFFFFFFFFFFFFFFFFFFFFFFFFFFFFFFFFFFFFFFFFFFFFFFFFFFFFFFFFFFFFFFFFFFFFFFFFFFFFFFFFFFFFFFFFFFFFFFFFFFFFFFFFFFFFFFFFFFFF50
:4030C000FFFFFFFFFFFFFFFFFFFFFFFFFFFFFFFFFFFFFFFFFFFFFFFFFFFFFFFFFFFFFFFF030000000300000003000000E4260000F426000004270000142700002427000012
:40310000382700004C27000054270000602700006C2700007C270000F892FF1F00000000CC90FF1FB08EFF1FFFFF01FFFFFF0000000000000000000000000000000000000B
:403140000000000000000000000000000000000000000000BC2F00000000000000000000000000000000000000000000000000000000000000000000000000000000000064
:4031800000000000000000000000000000000000000000000482FF1F000000000000000000000000000000000000000000000000000000000000000000000000000000006B
:4031C00000000000000000000000000000000000000000000000000000000000000000000000000000000000000000000000000000000000000000000000000000000000CF
:40320000000000000000000000000000000000000000000000000000000000000000000000000000000000000000000000000000000000000000000000000000000000008E
:40324000000000000000000000000000000000000000000000000000000000000000000000000000000000000000000000000000000000000000000000000000000000004E
:40328000000000000000000000000000000000000000000000000000000000000000000000000000000000000000000000000000000000000000000000000000000000000E
:020000040003F7
:0200000480007A
:4000000002520040015A0040036400400103014001050140050B0140110C0140430D01406C0E0140370F014001150140041A0140031B01400940014007410140064201402B
:400040000243014002440140074501400A460140034701400648014005490140034C0140064D014002500140025101401002140197018C388D728E0FE602EA02B002B10803
:40008000B380B680EA0209010E0112011E022A023001320237013E053F4054185604580459045B045D205F010044025804020640078208820A100D010E0110821328152023
:4000C00019061A191F0520042180220823822680288229042A10308232283620372038623B043C2040804188430248014A0851115A085D02674A69406A046B0470907328F3
:40010000874088028904904091089304954096049C029F04A011A302B484C08FC29DC44FCA0FCC0FCE2FD00BD20CD682D8B00013020404200590072C08400C400D200FC201
:400140001013120C15F81615184019F82208240A261428032A142D482F35304031E03220331834103501360F37063A803E143F404052410145EE46B0470C481B49FF4AFFE0
:400180004BFF4EF04F44500C5401580459045A045B045C225D225F0166C06A406B02818083138410864088148C108EAC930C952C960397439C0C9E71A009A171A2D0A30E98
:4001C000A4DCA622A708AA20AD71AF06B21FB330B50FB6E0B7C0B988BA80BB20BF04C003C640C9FFCA07CBFFCC40CD20CEF0CF05D008D804D904DA04DC22DD02DF01E040CA
:40020000E1A8E240E3200148038404200580061008190A040D881008132A1408170A180819841B021C201D881F802042210423042504270A28022C012D802FA0301033047F
:40024000370A384039083F0240084380450449894F02501856105720588059055B2088088B01C0EFC2AEC47ECAD8CCC6CE8AD04CD208D60FEC3039803F4059045F012002BF
:400280008801EC30128033883680370139083F80C410CCF0CE601140870895089F01A7C8C440E6409508A740A940AB80AF01EA409508A7407C08DE0100080F0457049C0877
:4002C000C008C201D402302045089C08AF04B004B704CC08D001E802EA049C08A420A5082080210425109508A740C8601B40A740B040B510C6409C08A420A50888089C08BC
:40030000B020B508E001EC0C00040E0400FF100A7FFF000034004B044F08300003C000000180000034E74B180018000000100B00200000E310DC0021303C00C20244000027
:40034000030038D8041F40388000082A00001000640301000500E0C028FFFFFF62A0F0410C000000000002120404040422220001000000000000400200103010001010126F
:4003800000000000000000000000000000000000000B0B0000000000820001F272000200000000000B001801000A0000000000000000000000000000000000000000000010
:4003C00000000000000000000000000000000000000000000000000000000000000000000000000000000000000000000000000000000000000000000000000000000000FD
:4004000000000000000000000000000000000000000000000000000000000000000000000000000000000000000000000000000000000000000000000000000000000000BC
:40044000000000000000000000000000000000000000000000000000000000000000000000000000000000000000000000000000000000000000000000000000000000007C
:40048000000000000000000000000000000000000000000000000000000000000000000000000000000000000000000000000000000000000000000000000000000000003C
:0200000490006A
:0400000000004005B7
:0200000490105A
:04000000BC90ACAF55
:0200000490303A
:02000000EE16FA
:0200000490402A
:4000000000000000000000000000000000000000000000000000000000000000000000000000000000000000000000000000000000000000000000000000000000000000C0
:400040000000000000000000000000000000000000000000000000000000000000000000000000000000000000000000000000000000000000000000000000000000000080
:400080000000000000000000000000000000000000000000000000000000000000000000000000000000000000000000000000000000000000000000000000000000000040
:4000C0000000000000000000000000000000000000000000000000000000000000000000000000000000000000000000000000000000000000000000000000000000000000
:0200000490501A
:0C00000000012E16006900012E29EE7F81
:00000001FF