:400000000080002011000000710C0000710C000008B5044B1A6803F53F5302331A6000F047FE00BFFA46004010B5054C237833B9044B13B10448AFF300800123237010BD38
:400040006882FF1F00000000983F0000084B10B51BB108490848AFF300800848036803B910BD074B002BFBD0BDE81040184700BF000000006C82FF1F983F0000C880FF1F12
:400080000000000008B5002001F036F908BD00BF684620F007018D4619B572B6EFF311841E4B1B68DBB20F2B10D9103B23F0030202F1604202F564421168DB0003F0180326
:4000C000E0229A400A4022FA03F306E00F2B03D1134B1B681B0E00E0002383F31188114A136801331360012B01D102F06FFA62B6FFF7C8FF72B684F3118801F0F7FA094AA0
:400100001368013B13601BB902F069FA02F02DFA62B6BDE819408546704700BF04ED00E020ED00E0F8CAFF1F08B562B645F6BF52054B1A60054A136843F0020313600020DE
:4001400001F0C2FBFBE700BF14E000E010E000E008B5094800F0FAF901F01AFC074A136843F005031360022000F014FF012000F011FF01F0EFFB08BDD882FF1F10E000E0EC
:4001800000B583B0002301937B2001F0DBF901A9022001F037F9019801F006F90199024800F0E4F9F0E700BFD882FF1FFEE700BF08B501F0AFFCC0B2732804D102210846BB
:4001C00001F040F908BD6F2803D11021022001F039F908BD684620F007018D4619B572B6EFF311841E4B1B68DBB20F2B10D9103B23F0030202F1604202F564421168DB00DF
:4002000003F01803E0229A400A4022FA03F306E00F2B03D1134B1B681B0E00E0002383F31188114A136801331360012B01D102F0CDF962B6FFF7BCFF72B684F3118801F043
:4002400055FA094A1368013B13601BB902F0C7F902F08BF962B6BDE819408546704700BF04ED00E020ED00E0F8CAFF1F08B50421022001F0E7F808BD684620F007018D468F
:4002800019B572B6EFF311841E4B1B68DBB20F2B10D9103B23F0030202F1604202F564421168DB0003F01803E0229A400A4022FA03F306E00F2B03D1134B1B681B0E00E028
:4002C000002383F31188114A136801331360012B01D102F07BF962B6FFF7C8FF72B684F3118801F003FA094A1368013B13601BB902F075F902F039F962B6BDE8194085463A
:40030000704700BF04ED00E020ED00E0F8CAFF1F08B50121022001F095F808BD684620F007018D4619B572B6EFF311841E4B1B68DBB20F2B10D9103B23F0030202F16042CB
:4003400002F564421168DB0003F01803E0229A400A4022FA03F306E00F2B03D1134B1B681B0E00E0002383F31188114A136801331360012B01D102F029F962B6FFF7C8FFD2
:4003800072B684F3118801F0B1F9094A1368013B13601BB902F023F902F0E7F862B6BDE819408546704700BF04ED00E020ED00E0F8CAFF1F08B54021022001F043F808BD14
:4003C000684620F007018D4619B572B6EFF311841E4B1B68DBB20F2B10D9103B23F0030202F1604202F564421168DB0003F01803E0229A400A4022FA03F306E00F2B03D138
:40040000134B1B681B0E00E0002383F31188114A136801331360012B01D102F0D7F862B6FFF7C8FF72B684F3118801F05FF9094A1368013B13601BB902F0D1F802F095F883
:4004400062B6BDE819408546704700BF04ED00E020ED00E0F8CAFF1F684620F007018D4619B572B6EFF311841D4B1B68DBB20F2B10D9103B23F0030202F1604202F5644251
:400480001168DB0003F01803E0229A400A4022FA03F306E00F2B03D1124B1B681B0E00E0002383F31188104A136801331360012B01D102F08BF862B672B684F3118801F063
:4004C00015F9094A1368013B13601BB902F087F802F04BF862B6BDE819408546704700BF04ED00E020ED00E0F8CAFF1F08B500F021F900F025F900F00FFA00F011FA002019
:4005000008BD00BF08B501280CD010B1022812D019E00021032000F0DDF80121002000F0D9F810E00021032000F0D4F80121084600F0D0F807E00021032000F0CBF801218B
:40054000022000F0C7F8002008BD00BF38B50546FFF7CCFF00242C702046FFF7D3FF6C70AC70EC702C71204638BD00BF2DE9F04180460C460378012B17D013B1022B62D004
:40058000A1E011F0010F00F09E800121002000F071F9012000F0C6F9012000F0CFF9012088F80000FFF7AEFF8DE011F0020F01D00123C37014F0040F15D00021084600F010
:4005C00059F998F803301BB92021022000F03AFF98F80330012B06D1002388F803300821022000F02FFF14F0200F03D00121002000F040F914F0080F65D04FF4806233491F
:40060000334802F045F9002414E0304B53F82400050EC0F30746C0F30727C0B201F084FA384601F081FA304601F07EFA284601F07BFA0134B4F5006FE7DB022088F80000EA
:40064000FFF760FF3FE011F0400F0DD00021012000F010F94FF480621C491D4802F018F90121022000F006F914F0100F2BD00021022000F0FFF898F801300133DBB288F82F
:400680000130092B09D8012088F80000FFF73AFF2021022000F0D6FE15E00A2B13D1002488F800402046FFF72DFF204600F03AF9204600F043F988F8014088F8024088F865
:4006C000034088F804400020BDE8F081EC82FF1FECA2FF1F38B504460D46032824D8DFE800F00209101E084601F0BEF9104B1D55002038BD084601F0ABF90D4B1D5500203F
:4007000038BD084601F098F9094B1D55002038BD29462046FFF7DEFF0134E4B200E00024022CF5D9002038BD6FF0130038BD00BF8482FF1F08B501F0D1F9002008BD00BF2B
:4007400070B541F6FF734FF480420121022001F077FE404E307000F0A9FB3F4D28700623FE224FF4006100F0BBFB3C4CA4B2224644F61061287800F0C7FB2978307800F007
:4007800067FB4FF4804341F6FF720121022001F075FE334E307000F089FB324D28700523FE224FF4006100F09BFB46F24B422146287800F0A9FB2978307800F049FB4FF443
:4007C000804341F6FF720121042001F083FE264E307000F06BFB254C207000F067FB607000F064FBA0700123627840F6FC71207800F076FB0123A27840F6FC71607800F0A7
:400800006FFB0523FE220821A07800F069FB184DADB246F24B422946207800F075FB05F5806146F24B4289B2607800F06DFB05F2FE7146F24B4289B2A07800F065FB21780F
:40084000307800F005FB01F037FE01F061FE002070BD00BFE682FF1FE082FF1FECA2FF1FE582FF1FE482FF1FEB82FF1FE882FF1FEC82FF1F10B5012813D010B102281FD059
:4008800038E0012905D1204B187800F087FA002010BD002931D11C4B187800F09BFA002010BD012905D1194B187800F077FA002010BD21BB154B187800F08CFA002010BDC2
:4008C00001290BD1124C134B1978207800F0C0FA0121207800F062FA002010BD89B90C4C0C4B1978207800F0B3FA207800F072FA002010BD6FF0130010BD002010BD00208C
:4009000010BD002010BD00BFE682FF1FE582FF1FEB82FF1FE882FF1F08B501F047FC08BD0020704708B5012802D101F09BF902E008B901F027F9002008BD00BF08B5012817
:4009400002D101F047FC02E008B901F04BFC002008BD00BFFEE700BFF0B40022174611E050F82760F3B226F0FF0608E001EB420511F812406D78A5550132013BDBB2002B2E
:40098000F4D101371B2FEBD9F0BC70470C4B1B78DBB203F007010B4A11701B09013213703022094B1A70012203F683031A70022280331A704422A3F28A231A70704700BF42
:4009C000CF0100496E580040FD51004008B50A46002103F01CFA08BD08B503F00DFA08BD38B50024364B1C80502202331A70192502331D801823334A137040F21F31023272
:400A00001180023213704BF67F322F490A8002310B7002310A802D4A137004222C492D48FFF7DAFF02222C4B1A7008224FF040231A70032103F500731970284B1B78DBB210
:400A400027490B70274B1A8041F25122023B1A800CE0254B1B7803F0010343EA440404F003044FF4F07001F063FD013D0DB1032CEFD115B90320FFF76DFF1C4B4FF48072DE
:400A80001A8007221A70002219490A704820023108701A700222033B1A7004220A331A70144A137843F01F031370013A137843F001031370013A137843F08003137038BD40
:400AC00080400040864000408C40004092400040A0040048004100400043004008010049A146004022420040254200400440004006400040A2430040012807D8044B53F84D
:400B000020201844017A13780B431370704700BF9C3F0000012808D8044B53F820201844017A137823EA0103137070479C3F000038B572B6374A137843F004031370002484
:400B40000BE0354863001A19510001440A46098AD068FFF73BFF0134E4B2072CF1D92F494FF09040FFF7F8FE0A252D4B1D7004212C48FFF72BFF04222B492C48FFF72CFF3F
:400B800004222B492B48FFF727FF04212A48FFF71DFF04212948FFF719FF294A137843F0020313701032137843F002031370254C237843F040032370A2F58632513A137804
:400BC00043F01003137008221F492048FFF704FF08221F491F48FFF7FFFE2A461E491F48FFF7FAFE1E4A137843F0080313701D4D61232B70FFF7F4FE81232B7001221A4B35
:400C00001A70FFF7C3FE0E2221461848FFF7E4FE38BD00BFE84600409C3F0000700000488358004000760040A404004850760040A8040048087600401076004018760040E2
:400C400003500140A043004084040048F25100408C040048125100409404004820510040224300400048004004000840B043004008B503F085F803680C2B00D1FEE7FEE748
:400C800008B5094B1A681044084BC31AB3F5005F02DC054B186005E003F072F80C2303604FF0FF32104608BDCC80FF1F10D3FF1F08B5104E104D16E029686B68AC6800229E
:400CC00004E051F8040B43F8040B0432A242F8D1E868002203E0002143F8041B04328242F9D11035013E002EE6D103F04FF8FFF71BFAFEE701000000C044020008B5114A45
:400D0000114B1A60114A136843F40073136000230AE0032B03D80E4A52F8231000E00D490D4A42F8231001332F2BF2D90B4B1A780B4B1A70084A0B4B1A60FFF7F9FE00F0E5
:400D400013F808BD0004FA050CED00E014ED00E000000000710C00000080FF1FBC760040C080FF1F08ED00E00B4A7F2313708021517007E0DA0002F1804202F5F042013B6F
:400D8000DBB21370002BF5D1DB0003F1804303F5F04300221A707047D080FF1F172815D831B103010A495A5C42F020025A5405E0030107495A5C02F0DF025A540001044AC8
:400DC000835C43F00103835400207047012070471070004017280BD80001064BC25C02F0FE02C254C25C02F0DF02C25400207047012070471070004017280BD80001064A14
:400E0000835C03F0F103490001F00E011943815400207047012070471070004041F6FF73994201D14FF4005141F6FF739A4201D14FF40052172808D8C00000F1804000F5A8
:400E4000EC408180C280002070470120704700BF172805D8034B03EB0010417200207047012070471070004017281BD810B4C00000F1804404F5EC44D201D2B201F07F01AF
:400E8000114321709DF804201201D2B203F00F03134363709DF8083003F00F03A3700020E07001E00120704710BC704710B501F047FB0A4B5B78182B0BD9084A1478013BDD
:400EC0005370E30003F1804303F5F0431B78137000E0FF2401F038FB204610BDD080FF1F10F0800F0CD111F4704F0BD1C00000F1804000F5F04001808270C370002070476D
:400F0000012070470120704710F0800F08D1C00000F1804000F5F0408180C280002070470120704701BE704708B5034B1B7A00FB03F001F0FDFA08BDD880FF1F70B504467B
:400F40000E46074B1D681F2802D90020FFF7EAFF04F01F04103455F8240045F8246070BD08ED00E038B504460D46072902D90020FFF7D8FF1F2C02D90020FFF7D3FF04F012
:400F80001F0000F1604000F564406D01EDB2057038BD00BF38B5EFF3108572B602284ED82D4B53F82030002B4BD02B4A013B42F820302A4B53F82030032B07D10222274B96
:400FC00043F820200022264B43F8202000F0FEFB244B1B68002B36D1234B1C6800F0D4FBB0F1FF3F31D0214B53F82020204B1B689A422CD9B4F1FF3F03D00221174A42F890
:4010000024101C4A52F820201343194A13600022124B43F8202000F073FB174B53F820304BB10024144B43F8204040F0004001F0DFFA20460CE001F0DBFA002008E0032074
:4010400006E0042004E0002002E0002000E0002085F3108838BD00BF1881FF1FB481FF1FA082FF1FF8CAFF1FA481FF1F58410000B482FF1F304100008882FF1F18B108B523
:40108000C368984708BD704708B508B1406800E00020022816D80C4B53F8203093B10A4A013B42F82030094B53F82030032B07D10222064B43F820200022054B43F8202052
:4010C00000F084FB08BD00BF1881FF1FB481FF1FA082FF1F18B1034640689B6801E00023184602281DD80F4A52F82020CAB10E4A52F82010032914D010B50C4C54F820208C
:401100001A4344F820200A4A52F82020134207D0012905D10222044B43F8202000F056FB10BD704718410000B481FF1FA082FF1F9482FF1F80B108B50378012B06D013B1CA
:40114000032B06D008BDFFF79FFF08BDFFF7C2FF08BDFFF793FF08BD704700BF30B400EB40029300214AD258214B03EBC2035C68B4F1FF3F04D11E4B03EBC20250602DE062
:401180001C4B03EB04139B6899420AD2184D05EBC2025060174A02EB04125B1A93601DE01C46144B03EB04139A68891ADB68B3F1FF3F05D00F4A02EB031292689142EFD229
:4011C000B3F1FF3F05D00B4A02EB031295686D1A9560084A02EB0414E0601C46054B03EB00108160C46030BC704700BFF8400000EC80FF1F00CFFF1F38B5394A02EBC003EB
:401200005C6852F83030013342F8303000EB40018A0034498A58934203D90022304B43F83020B4F1FF3F59D02F4B03EB04139B68002B4ED1214600E019462B4B03EB01138E
:40124000DB68B3F1FF3F05D0274A02EB03129268002AF1D0244A02EB01114FF0FF32CA601F4A02EBC0004360B3F1FF3F07D01E4A02EB03139A68013A9A6000E02C4604EBC0
:4012800044029300194A13441B7A7BB904EB44029300164A13445A68154B53F8223003EB83039A0013481044FFF744FF0E4B03EB0413DD68596821B101392046FFF74EFF85
:4012C00003E024010022084B1A51B5F1FF3FD5D138BD054A02EB0414013BA36038BD00BFEC80FF1F0C41000000CFFF1FF840000008410000E440000038B5EFF3108572B64B
:40130000002838D1FFF778FF204B1B68002B34D11F4B1C6800F038FAB0F1FF3F2FD01D4B53F820201C4B1B689A422AD9B4F1FF3F03D00221194A42F82410194A52F82020B0
:401340001343154A13600022144B43F8202000F0D7F9144B53F820304BB10024114B43F8204040F0004001F043F920460AE001F03FF9002006E0032004E0002002E0002033
:4013800000E0002085F3108838BD00BFF8CAFF1FA481FF1F58410000B482FF1FB481FF1F304100008882FF1FEFF3108372B6114A1168114A126882B9B1F1FF3F0FD00F4AD4
:4013C00052F821206AB110B40D4C54F8212022EA000044F82100002007E0022002E0022000E0012083F31088704783F3108810BC704700BFA481FF1FF8CAFF1F1841000075
:40140000A082FF1F02280FD80B4B53F820306BB10A4B53F82030032B0AD059B1084B53F820300B60002070470320704701207047072070470E20704718410000B481FF1FFB
:40144000A082FF1F38B5EFF3108472B6022853D8324B53F82030002B50D0314B53F82030032B4DD02F4D55F820200A4345F820202D4A52F82020114244D0012B44D10222E7
:40148000274B43F8202000F0A1F9284B1B68002B3CD1274B1D6800F077F9B0F1FF3F37D0244B53F82020244B1B689A4232D9B5F1FF3F03D002211A4A42F825101F4A52F817
:4014C000202013431C4A13600022154B43F8202000F016F91A4B53F820304BB10025184B43F8205040F0004001F082F8284612E001F07EF800200EE003200CE001200AE088
:40150000072008E0002006E0002004E0002002E0002000E0002084F3108838BD18410000B481FF1FA082FF1F9482FF1FF8CAFF1FA481FF1F58410000B482FF1F30410000CB
:401540008882FF1F38B5EFF3108472B6364B1D68364B1B68002B5DD1B5F1FF3F5CD0344B53F82530002B59D0324B53F82530034256D1314B43F825000122304B43F825204F
:401580002F4B53F825002F490B6823EA00030B602D4B43F825202D4B53F82520224B1A6000F0F2F8B0F1FF3F06D0294B53F82020244B1B689A420DD81B4B1868B0F1FF3FEE
:4015C00003D000221D4B43F8202040F0004001F00FF81AE00021194A42F82010184A52F820201343174A136000F08AF8164B53F8203043B10022144B43F8202040F00040DF
:4016000000F0F6FF01E000F0F3FF00200A4B43F8250006E0022004E0022002E0012000E0002084F3108838BDA481FF1FF8CAFF1F18410000A082FF1F9482FF1FB481FF1FD5
:4016400030410000B482FF1F8882FF1FA881FF1F5841000008B500F053F8084B53F8203043B10022054B43F8202040F00040044B186008BD024B186008BD00BF8882FF1F69
:40168000FCCAFF1F10B500F07FF8124B1B68B0F1FF3F1AD0104A52F82010104A1268914213D9B3F1FF3F03D002240D4941F8234000210B4B43F820100A4B53F820301A430E
:4016C000064B1A60FFF7C6FF10BD43F00043064A136010BDA481FF1F58410000B482FF1FB481FF1F30410000FCCAFF1F034B1B6813B10022014B1A60704700BFECCAFF1FF2
:40170000F0B4184B19880B0A174AD356B3F1FF3F01D1535601E008335BB2144D55F82320134850F82200134E56F8224045F82340114D2F6846F822702A60B4F1FF3F09D169
:401740000E4A42F82340012202FA03F321EA0301044B19800A4B19680A4A42F820101860F0BC7047B082FF1FD83F00006481FF1FE8CEFF1F0081FF1FAC82FF1F2481FF1F0D
:40178000A481FF1FA881FF1F0C4B1A88130A0C49CB56B3F1FF3F01D18B5601E008335BB2B3F1FF3F06D0074A52F82320064B53F8220070474FF0FF30704700BFB082FF1F16
:4017C000D83F00006481FF1FE8CEFF1F30B4144B53F82020134C2368134951F823502560124C44F823004FF0FF3441F82340104951F82210A1420AD10E4951F820400E48F3
:401800000188214301800D4941F8223002E0064840F82130064941F8223030BC704700BF0C81FF1FAC82FF1F0081FF1FE8CEFF1F2481FF1F58410000B082FF1F6481FF1F4B
:4018400010B150F8210070474FF0FF30704700BF0122014B1A60FEE7F4CAFF1F70B50546124B53F8306000241CE0104B03EBC50321465868FFF7E4FF0D4A52F82030013BF3
:4018800042F820300B4B53F82030032B07D10222084B43F820200022074B43F82020FFF795FF0134B442E0D370BD00BFD84000001881FF1FB481FF1FA082FF1F18B908B582
:4018C000FFF7CCFF08BD7047194B1A4ADA621A4A9A631A4ADA63EFF3108272B6184B1B6813BB10B5044600F053F8164B1C600122134B1A602046FFF7E1FFFFF745FFB0F11C
:40190000FF3F0ED0104B53F82030104A11680B43136000220E4B43F82020FFF7F1FE00F067FE62B6FFF794FF82F31088072070470080FF1FB12500007525000091000000A6
:40194000F4CAFF1F04D1FF1F30410000B482FF1FB481FF1F08B5EFF3108272B6094B1968094B1B6833B94FF0FF30084B43F82100002000E0022010B9084600F092FE82F344
:40198000108808BDA481FF1FF8CAFF1FF480FF1F70B5214B1D68EFF3108672B600F0D8FD1E4A136843F07F4313601D4B2B6401210020FFF7D7FA1B4C236843F001032360A3
:4019C000194B2B6501210420FFF7CCFA236843F010032360154BEB6401210320FFF7C2FA236843F008032360114B6B6401210846FFF7B8FA236843F0020323600D4BAB64BB
:401A000001210220FFF7AEFA236843F00403236086F3108870BD00BF08ED00E020ED00E07902000000E100E01D030000D501000059040000C1030000044A137803F0BF03DC
:401A4000800100F0400018431070704720510040044A137803F0DF03400100F0200018431070704720510040044A137803F0EF03000100F01000184310707047205100402E
:401A80007222074B1A702022023B1A7006225F3B1A70472210331A7003224E331A7070478E64004010B500F04BFD04460A4A137843F020031370023A137843F01003137083
:401AC000013A137843F01003137000F039F8204600F03AFD10BD00BF9E64004008B5054B1B7823B9FFF7CCFF0122024B1A70FFF7D9FF08BDBC82FF1F014B1878704700BF63
:401B00004C640040024B187800F07F00704700BF6C64004010B5FFF7F5FF0402FFF7ECFF204380B210BD00BF034B1B7813F0040FFAD1024B187070476B6400404B640040E0
:401B4000054A137843F0020313701032137843F002031370704700BFA243004010B500F0E7F8074C01212078FFF718F901216078FFF714F9002000F005F900F081F810BDC4
:401B8000BE82FF1F10B500F089F8054C2078FFF721F96078FFF71EF900F0D8F810BD00BFBE82FF1F70B505460E464FF48043020C0121084600F080F8094C2070A078012338
:401BC00002463146FFF78CF94FF4B742A9B2A078FFF79AF9A1782078FFF73AF970BD00BFBE82FF1F70B505460E464FF48043020C0121084600F07EF8094C6070E078012300
:401C000002463146FFF76CF94FF4B742A9B2E078FFF77AF9E1786078FFF71AF970BD00BFBE82FF1F10B500F0D5F8022000F09CF8042000F0BFF8FFF739F9084CA070FFF739
:401C400035F9E070064C4FF47A712046FFF7AAFF642104F57A70FFF7C5FF10BDBE82FF1F2442000008B5054B1B7923B9FFF7DAFF0122024B1A71FFF771FF08BDBE82FF1FDE
:401C8000054A137843F0040313701032137843F004031370704700BFA2430040054A137803F0FB0313701032137803F0FB031370704700BFA2430040F0B583B016461F46A5
:401CC0000B4C022525700023019300930A4601462846FFF7C9F83A4631462078FFF79EF829462078FFF788F8207803B0F0BD00BFF881FF1FF0B583B016461F460B4C0325CD
:401D000025700023019300930A4601462846FFF7ABF83A4631462078FFF780F802212078FFF76AF8207803B0F0BD00BFF981FF1F054A137843F0010313701032137843F033
:401D400001031370704700BFA8430040054A137803F0FE0313701032137803F0FE031370704700BFA8430040054B1A7802F0FD021A701A7800F0020010431870704700BFD3
:401D800020580040014B1870704700BF805B0040064B1B78C3F3810303F19243063393F82031DBB2024A1370704700BF205800400846004008B5064B1A7802F0F3021A70E1
:401DC0001A7800F00C0010431870FFF7E1FF08BD2058004008B50020074B187001331870064A137843F008031370FFF7E3FF0220FFF7BAFF08BD00BF20580040875A004012
:401E000010B59DF80840012C51D1013809282ED8DFE800F0052D2D052D2D0F192D230F2B03D92548007840B222E02448007840B21EE00F2B03D92248007840B218E0214846
:401E4000007840B214E00F2B03D91F48007840B20EE01E48007840B20AE00F2B03D91C48007840B204E01B48007840B200E0002001EB401101FB02F1C90B8AB20D2B0BD889
:401E8000C3F10E0289B211418AB2611E124800EB810101338B7005E0631E0F4901EB83030F219970013C0C4B23F8242010BD0020FFF738F810BD00BF180100491C0100495D
:401EC000190100491D0100491A0100491E0100491B0100491F010049C482FF1FF8B5074600F02EFB06460D4D2B7843F003032B700B4C237843F0030323700A4B1F70032025
:401F0000FFF712F82B7803F0FC032B70237803F0FC032370304600F017FBF8BDF8460040F94600409258004038B500222F4B1A7101285AD138222E4B1A70042202331A7053
:401F4000062201331A70002401331C7001331C703F2201331A7002331C7001331C7001331C7001250A331D70502203F527631A700A23204A13702C21013211700132147037
:401F8000442103321170482101321170013215700232147001321470013213704322164B1A705220FFF79AFF5822144B1A7001331C700223124A137001321370114B1C70F6
:401FC00001331C70204600F027F943F233320E4B1A602946052000F043F92946BA2000F0C3F90A491D20FEF7A9FF38BDC482FF1F004E004085580040915800409458004003
:402000009A5800409C58004008D3FF1FF5210000F0B583B0284D01272F70284E00247471102000F00BF9102000F08CF907211D20FEF798FF0422224B1A7001331C700733C7
:402040001C70204A137843F0180313701E4B1C7003F2F5231C7001331C700A22A3F209331A7001331C7002331C705B2205331A705E2201331A7004331C701422A3F68C23FA
:402080001A70009710234FF4004248F6F0510220FFF7B6FE2B78013B06EB83039A780B4B1A702B78013B36F82320094B1A802878FFF73AFF03B0F0BDFA81FF1FC482FF1F4A
:4020C00096580040075B0040935800400E4E00400C4E004070B500F033FA06462A4B1B782A4B1A7842F001021A701A7842F010021A7010331A7842F001021A701A7842F09B
:4021000010021A70224D2B7843F002032B70214C237843F0020323701F4A137843F0030313700320FEF700FF2B7803F0FD032B70237803F0FD032370184A137843F0060309
:4021400013707A22164B1A70164A137843F0010313701032137843F0010313700F3A137843F0010313701032137843F0010313704FF000530C4A1360A2F5C0721360304607
:4021800000F0E2F970BD00BFFA81FF1FAA430040F8460040F9460040915800407758004082580040A143004080E200E008B5084B9B794BB9064BDB7913F0FF0F01D1FFF747
:4021C00027FF0122024B9A71FFF784FF08BD00BFC482FF1F024A137843F0010313707047004E0040024A137803F0FE0313707047004E0040704700BF10B5002404E02046CB
:40220000FEF788FC0134E4B2012CF8D9FF22014B1A7010BDFB81FF1F10B50446FFF7ECFF2046FEF769FC014B1C7010BDFB81FF1F014B188880B2704780400040034B1A785A
:4022400000F0F80010431870704700BF82400040024B187800F00700704700BF8240004070B505460E46FFF7F3FF0446FFF7E0FFA84256D02B4B1B7803F0010294B900B1FF
:4022800085B938B9284B1D80284A137803F0BF03137070BD254A137843F040031370224B1D8070BD22B3002321490B7001240F310C7004310B700C390B7803F07F030B702D
:4022C0001A4B1B7813F0080F00D08DB9194B18800721013B1970164B1B7813F0010FFAD110490B7803F0FE030B700021104B19700C4B1B7813F0010F0DD00E4B1D800EB11C
:40230000032200E001220A4B1A70094B1B7813F0010FFAD170BD044B1D8002490B7813430B7070BDA243004080400040824000400140004002400040014B188880B27047ED
:4023400000410040034B1A7800F0F80010431870704700BF02410040024B187800F00700704700BF0241004070B505460E46FFF7F3FF0446FFF7E0FFA84256D02B4B1B788F
:4023800003F0010294B900B185B938B9284B1D80284A137803F0BF03137070BD254A137843F040031370224B1D8070BD22B3002321490B70012413310C7004390B700839A3
:4023C0000B7803F07F030B701A4B1B7813F0080F00D08DB9194B18800721013B1970164B1B7813F0010FFAD110490B7803F0FE030B700021104B19700C4B1B7813F0010F3A
:402400000DD00E4B1D800EB1032200E001220A4B1A70094B1B7813F0010FFAD170BD044B1D8002490B7813430B7070BDA1430040004100400241004001400040024000402E
:40244000F0B583B016461F460B4C0A2525700023019300932B460A4601462846FEF704FD3A4631462078FEF7D9FC02212078FEF7C3FC207803B0F0BDFC81FF1FF0B583B0BF
:4024800016461F460B4C012525700023019300932B460A4601462846FEF7E6FC3A4631462078FEF7BBFC02212078FEF7A5FC207803B0F0BDFD81FF1F054A137843F008037A
:4024C00013701032137843F008031370704700BFA2430040F0B583B016461F460B4D00242C700194009423460A4601462046FEF7BBFC3A4631462878FEF790FC0221287869
:40250000FEF77AFC287803B0F0BD00BFFE81FF1F054A137843F0100313701032137843F010031370704700BFA2430040000000000230800803D000BF01380046FCD17047B1
:40254000EFF3108072B6704780F31088704700BF18484FF47F0102680A43026016486FF07F4102680A400260704714484FF080510160704772B611484FF000610160FFF707
:4025800081F80F48006800F0C3F858B10C4800684FF080730B4A0C490FB40FB46FF00600004700BF6FF0060062B6004762B600DF08B0704720ED00E01CED00E004ED00E0D5
:4025C000FCCAFF1FF1250000AD250000EFF30880054908600548006880F3088870470248006880F308887047FF81FF1FE881FF1F411C8900154A11440968154A136899422F
:402600001AD0F0B444464D4656465F46F0B400B5104C9B002344EFF308851D60116089002144096881F3088802BC8E46F0BCA046A946B246BB46F0BC002806DB00B500F0D1
:402640005BF802BC8E46FFF7D3BF70477C410000B882FF1FEC81FF1FF0B444464D4656465F46F0B400B5EFF3038308B48000174901440968164A0244EFF30883136088472C
:402680001448804704BC4FF08070024382F3038801BC8646F0BCA046A946B246BB46F0BC704780000A4901440A6882F3088804BC4FF08070024382F3038808BC9E46F0BC46
:4026C000A046A946B246BB46F0BC704764410000F4CEFF1FD926000008B572B6014B1868FFF7DFFFA481FF1F08B5024B1868FFF7B3FF08BDA481FF1F08B562B6FFF7F4FF65
:4027000072B600F041F8014B186808BDFCCAFF1F00280BDA20F000400130054B53F82000044B1B68181A18BF01207047012070477C410000B882FF1F054B53F82020054BBF
:4027400053F820309A4201D101207047002070471881FF1F2441000008B5FEF7D1FF084B53F8203043B10022054B43F8202040F00040044B186008BD024B186008BD00BFAF
:402780008882FF1FFCCAFF1F38B5364B1C680022354B1A60354A52F82430013342F82430334B53F824502046FFF7C6FF012801D0A54204D103222F4B43F8242003E00222E7
:4027C0002C4B43F824202C4B53F824102B4A136823EA010313602A4B53F82440214B1C60B5F1FF3F0FD0234B53F82530032B07D10222204B43F825200022224B43F8252078
:402800002846FEF7E3FFFEF7BFFFB0F1FF3F0BD1B4F1FF3F03D00022164B43F8242044F00044194B1C6038BD184B53F82020134B1B689A4208D800220E4B43F8242044F027
:402840000044114B1C6038BD00210A4A42F82010094A52F820201343084A1360FFF77CFF38BD00BFA481FF1FECCAFF1F1881FF1FF480FF1FB481FF1F30410000B482FF1FD3
:40288000A881FF1FA082FF1FFCCAFF1F58410000F0B587B006460F461446012300222146684600F03BFAA00001F096FA0546002304E036F8132045F823200133A342F8DB7D
:4028C0003A462946684600F0F1F9284601F08CFA07B0F0BD2DE9F04F9BB00546189008461991249C0834129409010439249C0C44139405F10807C1001791A1F1040CAC44ED
:402900002599C900169102EB010E0B44421E049205930197CFE0DEF80020DEF80430019800684FEAE0791446D517CDE91445294600FB01F102FB0911A0FB02670F4416F190
:40294000004647F10007DD179A46AB4600FB05F403FB0944A0FB0301214410F1004841F1000903970021029101994C68E71703FB07F6CDE906AB04FB0566A3FB04013144C8
:40298000DDE902ABBAEB000A6BEB010B504610F100404BF10001CDF82490DDE902ABCDF820A0019D0835019502FB07F0159D04FB0500A2FB04450544DDE9086736196F4190
:4029C000344614F1004447F100050B91CDF828A0DCF80040E71703FB07F2079904FB0122A3FB04011144DDE90A89B8EB000869EB0109404610F1004049F10001059A106870
:402A00000D95CDF830A04FEAE07904FB09F200FB0722A4FB00451544DDE90C67361B67EB0507344614F1004447F100050F91CDF838A05CF8042CD71700FB07F402FB09449B
:402A4000A0FB02012144DDE90E8918EB000849EB0109404610F1004049F100011195CDF840A0ACF1080C03FB07F0079C02FB0400A3FB02230344DDE91045A41A65EB0305DB
:402A8000224612F1004245F10003129C224642F8081B63605842139C234643F8080944F8041C1698059C04440594864404990139049113931292049B002B7FF42CAF189927
:402AC0000B684A689B1A5B10249A199842F83030179B043300222498C2500B4609685B680B445B10036042601BB0BDE8F08F00BF2DE9F04F95B011900391964610934FEA36
:402B0000C10C0CF1040C8444C8E0DEF80020DEF80430119F39684FEAE1791446D517CDE91245284601FB00F002FB0900A1FB0245054414F1004445F1000558424FEAE07BD6
:402B400000FB09F401FB0B44A0FB0101214410F1004841F100090195002100917E684FEAE67B1846D917CDE9040106FB01F403FB0B44A6FB03012144DDE9004524184D4199
:402B8000204610F1004045F10001CDF81C90DDE90089CDF8188007F10804119402FB0BF0139C06FB0400A2FB06670744DDE90645A4197D41264616F1004445F10005099158
:402BC000CDF82080DCF80040E71703FB07F2059904FB0122A3FB04011144DDE908AB1AEB000A4BEB010B504610F100404BF10001109A10680B95C246CDF828804FEAE07908
:402C000004FB09F200FB0722A4FB00451544DDE90A67361B67EB0507344614F1004447F100050D91CDF830A05CF8042CD71700FB07F402FB0944A0FB02012144DDE90C9AFF
:402C400019EB00094AEB010A484610F100404AF100010F95009C0E94ACF1080C03FB07F0059C02FB0400A3FB02230344DDE90E45A4185D41224612F1004245F100031E9AB7
:402C800042F8081B1E9843601F9BDB001099194410919E44039B013B03931E92039B002B7FF433AF15B0BDE8F08F00BF2DE9F04182B0044688461546476906687608027957
:402CC000012A1AD18368019300950369C26831464046FFF70DFF637922792946384600F021FA002305E055F82320520045F82320013322689342F6D30CE04379384600F0CA
:402D000011FA2369E268A1680191009531464046FFF7E0FD02B0BDE8F08100BF10B489B201602F4CC4602F4C046102714371B1F5007F32D00BD8402941D002D8202944D06A
:402D40004AE0802935D0B1F5807F2CD044E0B1F5006F16D003D8B1F5806F18D03CE0B1F5805F08D0B1F5005F36D1012383601E4B4361002032E0022383601C4B4361002065
:402D80002CE0042383601A4B4361002026E008238360184B4361002020E010238360164B436100201AE020238360144B4361002014E040238360124B436100200EE080232F
:402DC0008360104B4361002008E04FF4807383600D4B4361002001E04FF0FF3010BC70477046000070C60000F0460100E0460100B046010080460100A0460100D0460100DC
:402E0000C046010070460100904601002DE9F04F8FB083460D910C924FEA510A4FF00009CC46CDF814A0CA467FE04FEACA030C9951F83A00043351F803E00AF1010A059B57
:402E40000CEB03024FEACC015BF83C309C104FEAC2080A925BF832309A10A31A22444BF83C2004315BF80120941008F104020B925BF802209510621B2C444BF801401C464F
:402E8000DD17C71703FB07F1CDE9064500FB0511A3FB00450D4414F1004845F10009D51700FB05F402FB0744A0FB0201214410F1004641F10007CDE90867CDF8049000212E
:402EC00000917046C11702FB01F00EFB0500A2FB0E450544DDE9008918EB040649EB0507344614F1004447F10005099E0396CDF8088003FB01F1079A0EFB0211A3FB0E23D9
:402F00000B44DDE90201801A61EB0301024612F1004241F100036A000A994BF831205B000B9A4BF802300CF1010C059B9C45FFF47CAF9A4602230C9C22465146584600F0D4
:402F40004FF90223224651460D980BEB800000F047F900221BE013015BF8035003F1040E5BF80E4003F108075BF8070003F10C065BF806106D006400400049004BF8035060
:402F80004BF80E404BF807004BF8061001325245E1D30FB0BDE8F08F2DE9F04F8FB083460D910C924FEA510A4FF00009CC46CDF814A0CA467EE04FEACA030C9951F83A00E0
:402FC000043351F803E00AF1010A059B0CEB03024FEACC015BF83C309C104FEAC2080A925BF832309A10A31A22444BF83C2004315BF80120941008F104020B925BF802203D
:403000009510621B2C444BF801401C46DD17C71703FB07F1CDE9064500FB0511A3FB00450D4414F1004845F10009D51700FB05F402FB0744A0FB0201214410F1004641F1DA
:403040000007CDE90867CDF80490002100917046C11702FB01F00EFB0500A2FB0E450544DDE90089B8EB040669EB0507344614F1004447F10005099E0396CDF8088003FB6F
:4030800001F1079A0EFB0211A3FB0E230B44DDE9020180185941024612F1004241F100036A000A994BF831205B000B9A4BF802300CF1010C059B9C45FFF47DAF9A460223C1
:4030C0000C9C22465146584600F042FB0223224651460D980BEB800000F03AFB00221BE013015BF8035003F1040E5BF80E4003F108075BF8070003F10C065BF806106D0043
:403100006400400049004BF803504BF80E404BF807004BF8061001325245E1D30FB0BDE8F08F00BF70B504460D461E460188012A27D1B1F5807F19D00AD820291CD002D867
:40314000102945D112E0402910D0802914D03FE0B1F5806F0AD003D8B1F5007F0CD037E0B1F5006F08D0B1F5805F31D101236268284600F0EDFA2BE062682846FFF70CFFCC
:4031800026E0B1F5807F19D00AD820291CD002D810291DD112E0402910D0802914D017E0B1F5806F0AD003D8B1F5007F0CD00FE0B1F5006F08D0B1F5805F09D10123626830
:4031C000284600F00DF803E062682846FFF71EFE26B1A268A189284600F072FD70BD00BF2DE9F04FA5B020901991219211938B0819462393DB00C618F418029404EB030922
:40320000044608914FF00008CDF80480CA46934623681B110298026812119D18C2EB030C3168DAF80020131103EB211362681211406800111718121A0492EA18214641F8D9
:40324000082B0991EB1A1D467068DAF804100A1102EB2012B9186160BA1A7068DAF804100911C1EB201E3068DAF800100911C1EB20170A97019908015BF8001004305BF854
:4032800000004FEAE37844469846A1460B46CC17CDE90E3405FB04F4CDE90C8901FB09440695A5FB018904EB09054FEAE2794FEAE07802FB08F700FB0977A2FB00342744D9
:4032C000EC196400334643F8084B109301FB09F70F9C02FB0477A1FB02452F44069B03FB08F20D9D00FB0522A3FB00010A44BA1A530073600CEB0E01CEEB0C03049A0A9CE8
:40330000C4EB020C22440198C4005BF8300004345BF804E0CE170F46B046C51701FB05F4CDE9047800FB0644A1FB00673C444FEAEC78C146E0467646F717CDE90A670CFB5E
:4033400007F6CDE906890EFB0966ACFB0E78464434446400029FB84648F8084BCDF83080079E00FB06F60CFB0566A0FB0C452E440B9C01FB04F405980EFB0044A1FB0E01BD
:403380002144761A71007960019901EB4100C1005BF830E004315BF801C04FEAE3797446E51703FB05F40EFB0944A3FB0E010C44D7176046C117CDE9020102FB01F00CFBEB
:4033C00007010491A2FB0C01084604990144084620444400504640F8084B0EFB07F602FB0566AEFB02452E44039903FB01F10CFB0911A3FB0C230B44F61A7300CAF804302D
:403400000199119A8A180192099C109E0C9F02978246089B013B08937FF4FAAE119B9B001F93199B9B082293239B119342E1119B9B081D9300231C931E932DE11E9D05EB59
:403440004502EB00219850F835101A910433C35806932B01C1581B910433C3580993D30050F832200A92043350F803B01F9BEB181E93209B19461C9A01EBC20A1D9BDB009B
:403480000AEB030808EB030909EB030E0492CDF840A0CDF80480CDF80890CDF830B0F3E0109F3A6802990B68D418D31A0E937A684B68D018C3EB020B019E3268DEF800305F
:4034C000D1186518AD103D60611A7268DEF804301344C21892107A60119AD200089214463A4622441092C3EB000C7268DEF80430C3EB020A3068DEF80030C01ACE170F46FD
:40350000B0461B9E3446F517CDE914452C4601FB04F4CDE9127806FB0844A1FB06231C441894E0464FEAEC79CDE91689099D4FEAE57843460CFB08F2DDE9168905FB092214
:40354000ACFB05452A44189C22445210019C226006FB09F2159D0CFB0522A6FB0C45541901FB03F5139B099E06FB0355A1FB06231D44651B6D10019B5D60089D1946294487
:4035800001910E9B03EB0A0CCAEB0302C0EB0B080BEB00036046C11764460D461A9E4FEAE67B0CFB0BF9CDE9124506FB0199ACFB060189444046C117CDE90E01069D2C4628
:4035C000E91708FB01F02F460F9D04FB0500A8FB0745284448444010029C20600F9C06FB04F408FB0B40A6FB088900EB09040CFB01F513980746069E304606FB0755ACFB2E
:4036000000010D44651B6D10029C6560089D611902914FEAE27B0A9E4FEAE67902FB09FC06FB0BCCA2FB06018C441846D917CDE90E010C9DEF17394603FB07F02E460F9CAD
:4036400005FB0400A3FB0667384460444010CEF800000A9F0F9C07FB04F403FB0940A7FB0345284402FB01F10C9D05FB0B11A2FB05231944401A4010CEF80400089DAE4439
:40368000049B119A13440493049B199A9342FFF407AF1C9B01331C931D9B013B1C9A9A427FF6CCAE1F9B9B001F93229B9B0822931D9B1193229B042B3FF6B9AEDDF880E0BE
:4036C000239CDEF80020DEF80470DEF80830DEF80C90DEF81080DEF81460DEF81850DEF81CC0D0184044284407EB090131446144CEF80000CEF80410D01A4044401BC9EBA0
:4037000007013144CCEB0101CEF80800CEF80C1002EB0900C8EB0000CCEB0000F91A891B2944CEF81000CEF81410C9EB0202C8EB020262443B449B1B5B1BCEF81820CEF8DB
:403740001C300EF1200E013CBBD125B0BDE8F08F2DE9F04FA5B020901991219211938B0819462393DB00C618F418029404EB0309044608914FF00008CDF80480CA46934659
:4037800023681B110298026812119D18C2EB030C3168DAF80020131103EB211362681211406800111718121A0492EA18214641F8082B0991EB1A1D467068DAF804100A11A2
:4037C00002EB2012B9186160BA1A7068DAF804100911C1EB201E3068DAF800100911C1EB20170A97019908015BF8001004305BF800004FEAE37844469846A1460B46CC17C6
:40380000CDE90E3405FB04F4CDE90C8901FB09440695A5FB018904EB09054FEAE2794FEAE07802FB08F700FB0977A2FB00342744EC1B6400334643F8084B109301FB09F759
:403840000F9C02FB0477A1FB02452F44069B03FB08F20D9D00FB0522A3FB00010A443A4453007360CEEB0C010CEB0E03049A0A9C02EB040C121B0198C4005BF83000043485
:403880005BF804E0CE170F46B046C51701FB05F4CDE9047800FB0644A1FB00673C444FEAEC78C146E0467646F717CDE90A670CFB07F6CDE906890EFB0966ACFB0E784644A3
:4038C000A41B6400029FB84648F8084BCDF83080079E00FB06F60CFB0566A0FB0C452E440B9C01FB04F405980EFB0044A1FB0E0121440E4471007960019901EB4100C100D9
:403900005BF830E004315BF801C04FEAE3797446E51703FB05F40EFB0944A3FB0E010C44D7176046C117CDE9020102FB01F00CFB07010491A2FB0C01084604990144601A3B
:403940004400504640F8084B0EFB07F602FB0566AEFB02452E44039903FB01F10CFB0911A3FB0C230B441E447300CAF804300199119A8A180192099C109E0C9F02978246A5
:40398000089B013B08937FF4FBAE119B9B001F93199B9B082293239B119344E1119B9B081D9300231C931E932FE11E9D05EB4502EB00219850F835101A910433C35806939A
:4039C0002B01C1581B910433C3580993D30050F832200A92043350F803B01F9BEB181E93209B19461C9A01EBC20A1D9BDB000AEB030808EB030909EB030E0492CDF840A0E5
:403A0000CDF80480CDF80890CDF830B0F5E0109F3A6802990B68D418D31A0E937A684B68D018C3EB020B019E3268DEF80030D1186518AD103D60611A7268DEF804301344A0
:403A4000C21892107A60119AD200089214463A4622441092C3EB000C7268DEF80430C3EB020A3068DEF80030C01ACE170F46B0461B9E3446F517CDE914452C4601FB04F443
:403A8000CDE9127806FB0844A1FB06231C441894E0464FEAEC79CDE91689099D4FEAE57843460CFB08F2DDE9168905FB0922ACFB05452A44189CA21A5210019C226006FBE8
:403AC00009F2159D0CFB0522A6FB0C45541901FB03F5139B099E06FB0355A1FB06231D4425446D10019B5D60089D1946294401910E9BCAEB030C53441A460BEB0008C0EB75
:403B00000B036046C11764460D461A9E4FEAE67B0CFB0BF9CDE9124506FB0199ACFB060189444046C117CDE90E01069D2C46E91708FB01F02F460F9D04FB0500A8FB07453C
:403B40002844C0EB09004010029C20600F9C06FB04F408FB0B40A6FB088900EB09040CFB01F513980746069E304606FB0755ACFB00010D4425446D10029C6560089D6119CE
:403B800002914FEAE27B0A9E4FEAE67902FB09FC06FB0BCCA2FB06018C441846D917CDE90E010C9DEF17394603FB07F02E460F9C05FB0400A3FB06673844C0EB0C00401067
:403BC000CEF800000A9F0F9C07FB04F403FB0940A7FB0345284402FB01F10C9D05FB0B11A2FB0523194408444010CEF80400089DAE44049B119A13440493049B199A9342E2
:403C0000FFF405AF1C9B01331C931D9B013B1C9A9A427FF6CAAE1F9B9B001F93229B9B0822931D9B1193229B042B3FF6B7AEDDF880E0239CDEF80090DEF80430DEF8087020
:403C4000DEF80C20DEF81080DEF81460DEF81850DEF81CC009EB070040442844991831446144CEF80000CEF80410C7EB09004044401B991A3144CCEB0101CEF80800CEF83D
:403C80000C10C2EB0900C8EB00006044D919891B491BCEF81000CEF814104A44C8EB0202CCEB0202DB1B9B1B2B44CEF81820CEF81C300EF1200E013CBCD125B0BDE8F08F06
:403CC0004B1C012B98BF70472DE9F003911C9B08B1F80480B1F802900A8831F802CC8044814402448444D9F80070D8F800601568DCF80040C9F80060C8F80070CCF80050DB
:403D00001460D9F80470D8F804605568DCF80440C9F80460C8F80470CCF8045054600831013BD5D1BDE8F00370474B1C012B98BF70472DE9F003911C9B08B1F80480B1F862
:403D400002900A8831F802CC00EB580800EB590900EB520200EB5C0CD9F80070D8F800601568DCF80040C9F80060C8F80070CCF8005014600831013BDFD1BDE8F0037047AF
:403D8000014B1868704700BF6482FF1F0E4B70B51E460E4C0025E41AA410A54204D056F8253098470135F8E720F078FB084B094C1E46E41AA4100025A54204D056F8253094
:403DC00098470135F8E770BDA8440200A8440200A8440200B0440200024B0146186800F06BB800BF6482FF1F024B0146186800F017B800BF6482FF1F10B5431E0A4491421B
:403E000004D011F8014B03F8014FF8E710BD03460244934202D003F8011BFAE77047000038B50546002944D051F8043C0C1F002BB8BFE41800F0AEF81E4A1368114613B91A
:403E40006360146030E0A3420DD92268A018834201BF18685B681218226063600C6023E0A24203D813465A68002AF9D118681918A1420BD12168014458188242196013D1AB
:403E800010685268014419605A600DE002D90C232B6009E021686018824201BF106852680918216062605C602846BDE8384000F072B838BDD482FF1F70B5CD1C25F00305DD
:403EC00008350C2D38BF0C25002D064601DBA94202D90C23336046E000F05CF8234B1C681A462146A1B10B685B1B0ED40B2B03D90B60CC18CD501EE08C420BBF63684B6875
:403F00001360636018BF0C4615E00C464968E9E7174C23681BB9304600F02CF820602946304600F027F8431C18D0C41C24F00304A0420DD12560304600F02DF804F10B0088
:403F4000231D20F00700C31A0ED05A42E25070BD211A304600F00EF80130EBD10C233360304600F018F8002070BD00BFD482FF1FD082FF1F38B5064C0023054608462360FA
:403F8000FCF77EFE431C02D1236803B12B6038BD0CD3FF1F7047704700000000035B00402443004040000000005100401000305100404000C051004010000000014000105D
:403FC00000140140000800400140000A004C01400002005001402000FF00010102020202030303030303030304040404040404040404040404040404050505050505050510
:404000000505050505050505050505050505050505050505050505050606060606060606060606060606060606060606060606060606060606060606060606060606060618
:404040000606060606060606060606060606060606060606060606060707070707070707070707070707070707070707070707070707070707070707070707070707070798
:404080000707070707070707070707070707070707070707070707070707070707070707070707070707070707070707070707070707070707070707070707070707070740
:4040C00007070707070707070707070707070707070707070707070701000000E04000000000000000000000020000000000000000000000FFFFFFFF0000000000000000F9
:4041000000000000000000000000000010270000010000000000000000000000000000000100000001000000010000000100000080000000020000000400000001000000BC
:4041400002000000040000000800000010000000200000004000000001000000020000000400000051010000AD01000081010000E9260000E9260000E9260000000000000B
:40418000000000000100000002000000616C726D5F6D61696E00000065765F70757368427574746F6E00000065765F7352656365697665640000000065765F73616D706CAB
:4041C000696E6746696E69736865640065765F73656E640065765F6F52656365697665640000000065765F726553616D706C650065765F73656E64464654000074736B5FBB
:40420000696E69740000000074736B5F6261636B67726F756E64000074736B5F636F6E74726F6C008080818182828384848585868787888889898A8B8B8C8C8D8E8E8F8F77
:4042400090909192929393949595969697979899999A9A9B9B9C9C9D9E9E9F9FA0A0A1A1A2A3A3A4A4A5A5A6A6A7A7A8A8A9AAAAABABACACADADAEAEAFAFB0B0B1B1B2B2DD
:40428000B3B3B4B4B5B5B6B6B7B7B8B8B8B9B9BABABBBBBCBCBDBDBDBEBEBFBFC0C0C1C1C1C2C2C3C3C3C4C4C5C5C5C6C6C7C7C7C8C8C8C9C9CACACACBCBCBCCCCCCCDCDD0
:4042C000CDCECECECFCFCFD0D0D0D0D1D1D1D2D2D2D2D3D3D3D4D4D4D4D5D5D5D5D6D6D6D6D6D7D7D7D7D8D8D8D8D8D8D9D9D9D9D9DADADADADADADADBDBDBDBDBDBDBDB5D
:40430000DCDCDCDCDCDCDCDCDCDCDDDDDDDDDDDDDDDDDDDDDDDDDDDDDDDDDDDDDDDDDDDDDDDDDDDDDDDDDDDDDDDDDDDDDDDDDDDDDDDDDDDCDCDCDCDCDCDCDCDCDCDBDBDB57
:40434000DBDBDBDBDBDADADADADADADAD9D9D9D9D9D8D8D8D8D8D8D7D7D7D7D6D6D6D6D6D5D5D5D5D4D4D4D4D3D3D3D2D2D2D2D1D1D1D0D0D0D0CFCFCFCECECECDCDCDCC07
:40438000CCCCCBCBCBCACACAC9C9C8C8C8C7C7C7C6C6C5C5C5C4C4C3C3C3C2C2C1C1C1C0C0BFBFBEBEBDBDBDBCBCBBBBBABAB9B9B8B8B8B7B7B6B6B5B5B4B4B3B3B2B2B120
:4043C000B1B0B0AFAFAEAEADADACACABABAAAAA9A8A8A7A7A6A6A5A5A4A4A3A3A2A1A1A0A09F9F9E9E9D9C9C9B9B9A9A99999897979696959594939392929190908F8F8EC5
:404400008E8D8C8C8B8B8A8989888887878685858484838282818180807F7E7E7D7D7C7B7B7A7A79787877777676757474737372717170706F6F6E6D6D6C6C6B6A6A6969B4
:40444000686867666665656464636362616160605F5F5E5E5D5C5C5B5B5A5A595958585757565555545453535252515150504F4F4E4E4D4D4C4C4B4B4A4A4949484847477A
:40448000474646454544444343424242414140403F3F3E3E3E3D3D3C3C3C3B3B3A3A3A393938383837373736363535353434343333333232323131313030302F2F2F2F2E9D
:4044C0002E2E2D2D2D2D2C2C2C2B2B2B2B2A2A2A2A2929292929282828282727272727272626262626252525252525252424242424242424232323232323232323232222FA
:4045000022222222222222222222222222222222222222222222222222222222222222222222222222222223232323232323232323242424242424242425252525252525CC
:4045400026262626262727272727272828282829292929292A2A2A2A2B2B2B2B2C2C2C2D2D2D2D2E2E2E2F2F2F2F30303031313132323233333334343435353536363737ED
:404580003738383839393A3A3A3B3B3C3C3C3D3D3E3E3E3F3F404041414242424343444445454646474747484849494A4A4B4B4C4C4D4D4E4E4F4F505051515252535354C7
:4045C000545555565757585859595A5A5B5B5C5C5D5E5E5F5F6060616162636364646565666667686869696A6A6B6C6C6D6D6E6F6F70707171727373747475767677777847
:4046000078797A7A7B7B7C7D7D7E7E7F80848A8F94989EA2A8ACB2B6BCC0C6CAD0D5DADEE4E8EEF2F8FCF8F2EEE8E4DEDAD4D0CAC6C0BCB6B2ADA8A29E98948F8A84807A94
:4046400076706B66615D58534E49443E39342F2A25211C17120D0803080D12171C21252A2F34393E44494E53585D61666B70767A00000040000000C0026FF33F3C0100C0DF
:4046800005DEE63FEF0400C0094DDA3F1A0B00C00FBCCD3FBD1300C0162BC13FD81E00C01F9AB43F6A2C00C02C09A83F743C00C03C789B3FF54E00C050E78E3FEE6300C059
:4046C0006856823F5F7B00C085C5753F479500C0A834693FA7B100C0D0A35C3F7ED000C0FE12503FCEF100C03482433F941501C070F1363FD33B01C0B4602A3F896401C0BF
:4047000001D01D3FB68F01C0563F113F5CBD01C0B5AE043F78ED01C01D1EF83E0D2002C08F8DEB3E195502C00CFDDE3E9C8C02C0946CD23E97C602C028DCC53E0A0303C0D1
:40474000C84BB93EF44103C074BBAC3E568303C02E2BA03E2FC703C0F59A933E800D04C0CA0A873E485604C0AE7A7A3E88A104C0A1EA6D3E3FEF04C0A35A613E6E3F05C0E3
:40478000B5CA543E149205C0D83A483E31E705C00BAB3B3EC63E06C0501B2F3ED39806C0A78B223E56F506C011FC153E525407C08D6C093EC4B507C01DDDFC3DAE1908C054
:4047C000C04DF03D0F8008C078BEE33DE8E808C0452FD73D385409C027A0CA3DFFC109C01E11BE3D3D320AC02C82B13DF3A40AC051F3A43D201A0BC08D64983DC4910BC096
:40480000E1D58B3DE00B0CC04D477F3D72880CC0D2B8723D7C070DC0702A663DFD880DC0289C593DF50C0EC0F90D4D3D64930EC0E67F403D4A1C0FC0EDF1333DA8A70FC014
:404840001064273D7C3510C050D61A3DC7C510C0AB480E3D8A5811C024BB013DC3ED11C0BB2DF53C748512C06FA0E83C9B1F13C04213DC3C39BC13C03486CF3C4E5B14C05C
:4048800045F9C23CDAFC14C0776CB63CDDA015C0C8DFA93C574716C03B539D3C47F016C0CFC6903CAE9B17C0853A843C8C4918C05EAE773CE1F918C059226B3CACAC19C006
:4048C00078965E3CEE611AC0BA0A523CA7191BC0217F453CD6D31BC0ACF3383C7C901CC05D682C3C994F1DC034DD1F3C2B111EC03152133C35D51EC054C7063CB59B1FC09C
:404900009F3CFA3BAB6420C012B2ED3B183021C0AC27E13BFBFD21C0709DD43B54CE22C05C13C83B24A123C07389BB3B6A7624C0B3FFAE3B274E25C01E76A23B592826C0DE
:40494000B4EC953B020527C07563893B21E427C063DA7C3BB6C528C07D51703BC1A929C0C4C8633B42902AC03940573B39792BC0DBB74A3BA6642CC0AC2F3E3B89522DC077
:40498000ACA7313BE2422EC0DC1F253BB1352FC03B98183BF52A30C0CB100C3BB02231C08C89FF3AE01C32C07E02F33A861933C0A27BE63AA21834C0F8F4D93A331A35C035
:4049C000816ECD3A3A1E36C03DE8C03AB62437C02D62B43AA82D38C052DCA73A103939C0AB569B3AED463AC039D18E3A3F573BC0FD4B823A076A3CC0F8C6753A447F3DC0E4
:404A00002942693AF6963EC091BD5C3A1DB13FC03039503ABACD40C008B5433ACCEC41C01931373A530E43C062AD2A3A4F3244C0E5291E3AC05845C0A3A6113AA68146C065
:404A40009A23053A01AD47C0CDA0F839D1DA48C03B1EEC39160B4AC0E69BDF39CF3D4BC0CC19D339FE724CC0F097C639A1AA4DC05116BA39B8E44EC0F094AD39452150C0AC
:404A8000CD13A139456051C0EA929439BBA152C045128839A5E553C0E1917B39032C55C0BC116F39D67456C0D99162391DC057C037125639D80D59C0D7924939075E5AC0A2
:404AC000B8133D39ABB05BC0DD943039C3055DC0451624394E5D5EC0F09717394EB75FC0E0190B39C21361C0159CFE38AA7262C08E1EF23805D463C04DA1E538D43765C05F
:404B00005224D938189E66C09EA7CC38CE0668C0312BC038F97169C00CAFB33897DF6AC02E33A738A84F6CC099B79A382EC26DC04D3C8E3826376FC04BC1813892AE70C0EE
:404B400092467538712872C024CC6838C3A473C001525C38892375C029D84F38C2A476C09D5E43386E2878C05DE536388CAE79C06A6C2A381E377BC0C5F31D3823C27CC072
:404B80006D7B11389B4F7EC06403053885DF7FC0A98BF837E27181C03E14EC37B20683C0229DDF37F49D84C05726D337A93786C0DCAFC637D0D387C0B339BA376A7289C023
:404BC000DBC3AD3776138BC0554EA137F5B68CC022D99437E55C8EC042648837480590C0B5EF7B371DB091C07D7B6F37645D93C0990763371D0D95C00A94563748BF96C02F
:404C0000D0204A37E47398C0EDAD3D37F32A9AC0603B313773E49BC02AC9243765A09DC04B571837C85E9FC0C4E50B379D1FA1C09674FF36E3E2A2C0C003F3369BA8A4C0F3
:404C40004493E636C470A6C02123DA365E3BA8C059B3CD366A08AAC0EC43C136E6D7ABC0D9D4B436D4A9ADC02366A836337EAFC0C9F79B360255B1C0CB898F36422EB3C0BC
:404C80002B1C8336F309B5C0E8AE763615E8B6C003426A36A7C8B8C07DD55D36AAABBAC0566951361D91BCC08FFD44360179BEC0289238365563C0C021272C361950C2C0EB
:404CC0007BBC1F364D3FC4C037521336F230C6C054E806360625C8C0D47EFA358A1BCAC0B715EE357F14CCC0FDACE135E30FCEC0A744D535B60DD0C0B6DCC835FA0DD2C006
:404D00002975BC35AD10D4C0020EB035CF15D6C040A7A335611DD8C0E54097356227DAC0F0DA8A35D233DCC063757E35B242DEC03D1072350154E0C080AB6535BE67E2C07F
:404D40002B475935EB7DE4C03FE34C358696E6C0BD7F403590B1E8C0A51C343509CFEAC0F7B92735F1EEECC0B5571B354711EFC0DEF50E350B36F1C0739402353E5DF3C0EE
:404D80007433F634DF86F5C0E3D2E934EEB2F7C0BE72DD346BE1F9C00813D1345712FCC0C0B3C434B045FEC0E754B834777B00C17EF6AB34ACB302C184989F344FEE04C1F6
:404DC000FA3A93345F2B07C1E1DD8634DD6A09C139817A34C8AC0BC104256E3420F10DC140C96134E63710C1EF6D5534198112C111134934B9CC14C1A7B83C34C61A17C12B
:404E0000B05E30343F6B19C12F05243426BE1BC122AC173479131EC18B530B34396B20C16AFBFE3366C522C1BFA3F233FF2125C18C4CE633048127C1CFF5D93376E229C169
:404E40008B9FCD3353462CC1BF49C1339DAC2EC16CF4B433531531C1929FA833758033C1324B9C3302EE35C14DF78F33FB5D38C1E2A3833360D03AC1F250773330453DC16A
:404E80007EFE6A336CBC3FC186AC5E33133642C10B5B523325B244C10D0A4633A33047C18DB939338BB149C18A692D33DF344CC1071A21339DBA4EC102CB1433C64251C1FC
:404EC0007D7C08335ACD53C1772EFC32585A56C1F2E0EF32C1E958C1EF93E332947B5BC16C47D732D10F5EC16BFBCA3278A660C1EDAFBE328A3F63C1F264B23205DB65C11A
:404F00007A1AA632EB7868C185D099323A196BC115878D32F3BB6DC12A3E8132156170C1C3F57432A10873C1E3AD683296B275C188665C32F45E78C1B51F5032BB0D7BC19D
:404F400068D94332ECBE7DC1A3933732857280C1664E2B32882883C1B1091F32F3E085C185C51232C69B88C1E381063203598BC1CB3EFA31A7188EC13DFCED31B4DA90C19F
:404F80003ABAE131299F93C1C278D531066696C1D637C9314C2F99C177F7BC31F9FA9BC1A4B7B0310DC99EC15E78A4318A99A1C1A63998316E6CA4C17DFB8B31B941A7C128
:404FC000E2BD7F316C19AAC1D680733186F3ACC15944673107D0AFC16D085B31F0AEB2C111CD4E313F90B5C147924231F573B8C10D583631115ABBC1661E2A319442BEC14E
:4050000051E51D317E2DC1C1CFAC1131CE1AC4C1E0740531840AC7C1863DF930A0FCC9C1BF06ED3022F1CCC18DD0E0300AE8CFC1F19AD43058E1D2C1EA65C8300CDDD5C151
:405040007A31BC3025DBD8C1A0FDAF30A3DBDBC15DCAA33087DEDEC1B2979730D0E3E1C19F658B307EEBE4C124347F3091F5E7C1420373300902EBC1FAD26630E510EEC160
:405080004CA35A302722F1C138744E30CC35F4C1C0454230D64BF7C1E21736304564FAC1A1EA2930177FFDC1FBBD1D304E9C00C2F3911130E8BB03C287660530E6DD06C2C6
:4050C000BA3BF92F48020AC28A11ED2F0D290DC2F9E7E02F365210C208BFD42FC27D13C2B596C82FB1AB16C2036FBC2F03DC19C2F247B02FB80E1DC28121A42FD04320C2E6
:40510000B2FB972F4B7B23C285D68B2F28B526C2FAB17F2F67F129C2128E732F09302DC2CE6A672F0D7130C22D485B2F73B433C230264F2F3BFA36C2D804432F65423AC226
:4051400026E4362FF18C3DC219C42A2FDED940C2B2A41E2F2C2944C2F285122FDC7A47C2D967062FEDCE4AC2674AFA2E5E254EC29D2DEE2E317E51C27C11E22E65D954C2FF
:4051800004F6D52EF93658C235DBC92EEE965BC210C1BD2E43F95EC296A7B12EF85D62C2C68EA52E0EC565C2A176992E832E69C2295F8D2E589A6CC25C48812E8E0870C2FB
:4051C0003C32752E227973C2C91C692E16EC76C204085D2E6A617AC2EDF3502E1CD97DC284E0442E2E5381C2CBCD382E9FCF84C2C1BB2C2E6E4E88C267AA202E9CCF8BC2A9
:40520000BD99142E29538FC2C489082E14D992C27C7AFC2D5D6196C2E66BF02D05EC99C2035EE42D0A799DC2D250D82D6D08A1C25444CC2D2E9AA4C28A38C02D4D2EA8C2B0
:40524000742DB42DC9C4ABC21323A82DA25DAFC267199C2DD8F8B2C27010902D6C96B6C22F08842D5C36BAC2A500782DA9D8BDC2D1F96B2D527DC1C2B5F35F2D5924C5C2C7
:4052800051EE532DBBCDC8C2A5E9472D7979CCC2B1E53B2D9427D0C277E22F2D0AD8D3C2F7DF232DDD8AD7C231DE172D0A40DBC225DD0B2D94F7DEC2D4DCFF2C78B1E2C2B7
:4052C0003FDDF32CB86DE6C266DEE72C532CEAC24AE0DB2C49EDEDC2EAE2CF2C99B0F1C248E6C32C4476F5C263EAB72C4A3EF9C23DEFAB2CA908FDC2D6F49F2C63D500C347
:405300002EFB932C77A404C34502882CE57508C31D0A7C2CAD490CC3B512702CCE1F10C30E1C642C48F813C32926582C1CD317C306314C2C49B01BC3A53C402CCF8F1FC34D
:405340000849342CAE7123C32D56282CE55527C317641C2C753C2BC3C472102C5E252FC33782042C9E1033C36F92F82B37FE36C36CA3EC2B27EE3AC32FB5E02B70E03EC3DC
:40538000BAC7D42B10D542C30BDBC82B07CC46C323EFBC2B56C54AC30404B12BFCC04EC3AD19A52BF9BE52C31F30992B4DBF56C35B478D2BF7C15AC3605F812BF8C65EC3E9
:4053C0002F78752B50CE62C3CA91692BFDD766C32FAC5D2B01E46AC360C7512B5BF26EC35DE3452B0A0373C327003A2B0F1677C3BE1D2E2B6A2B7BC3223C222B19437FC373
:40540000545B162B1E5D83C3547B0A2B787987C3249CFE2A27988BC3C3BDF22A2AB98FC331E0E62A82DC93C37003DB2A2F0298C37F27CF2A2F2A9CC3604CC32A8454A0C3B2
:405440001272B72A2C81A4C39698AB2A28B0A8C3EDBF9F2A78E1ACC317E8932A1B15B1C31411882A114BB5C3E53A7C2A5A83B9C38A65702AF6BDBDC30591642AE5FAC1C3C4
:4054800054BD582A263AC6C379EA4C2ABA7BCAC37418412AA0BFCEC34647352AD805D3C3EF76292A624ED7C370A71D2A3E99DBC3C8D8112A6CE6DFC3F90A062AEA35E4C3F2
:4054C000033EFA29BB87E8C3E671EE29DCDBECC3A3A6E2294E32F1C33BDCD629108BF5C3AD12CB2924E6F9C3FA49BF298843FEC32382B3293CA302C428BBA729400507C47D
:4055000009F59B2994690BC4C72F902937D00FC4636B84292B3914C4DDA778296DA418C435E56C29FF111DC46C236129E08121C48262552910F425C478A249298F682AC4CC
:405540004EE33D295CDF2EC405253229775833C49C672629E1D337C416AB1A2999513CC471EF0E299ED140C4AF340329F25345C4CF7AF72892D849C4D3C1EB28805F4EC44F
:40558000BA09E028BCE852C48652D428447457C4379CC82819025CC4CDE6BC283B9260C44832B128A92465C4A97EA52863B969C4F1CB992869506EC4201A8E28BCE972C480
:4055C000366982285A8577C434B9762844237CC41A0A6B2879C380C4E95B5F28F96585C4A1AE5328C40A8AC443024828DBB18EC4CF563C283C5B93C445AC3028E70698C4EB
:40560000A7022528DDB49CC4F45919281C65A1C42DB20D28A617A6C4520B02287ACCAAC46465F6279783AFC463C0EA27FD3CB4C4501CDF27ADF8B8C42B79D327A6B6BDC433
:40564000F4D6C727E876C2C4AD35BC277239C7C45595B02745FECBC4EDF5A42760C5D0C476579927C38ED5C4EFB98D276F5ADAC4591D82276228DFC4B68176279CF8E3C405
:4056800004E76A271ECBE8C4454D5F27E79FEDC479B45327F776F2C4A11C48274E50F7C4BC853C27EC2BFCC4CCEF3027D00901C5D15A2527FBE905C5CBC619276BCC0AC513
:4056C000BB330E2721B10FC5A1A102271D9814C57E10F7265F8119C55280EB26E66C1EC51DF1DF26B25A23C5E162D426C34A28C59CD5C826183D2DC55149BD26B33132C52B
:40570000FFBDB126912837C5A633A626B4213CC548AA9A261B1D41C5E5218F26C61A46C57C9A8326B41A4BC510147826E51C50C59F8E6C265A2155C52A0A612612285AC533
:40574000B38655260D315FC538044A264A3C64C5BC823E26CA4969C53E0233268C596EC5BE822726906B73C53D041C26D67F78C5BC8610265D967DC53B0A052626AF82C516
:40578000BB8EF92531CA87C53B14EE257CE78CC5BC9AE225080792C54022D725D52897C5C5AACB25E34C9CC54D34C0253073A1C5D8BEB425BE9BA6C5674AA9258CC6ABC5D9
:4057C000F9D69D2599F3B0C590649225E622B6C52CF386257254BBC5CD827B253D88C0C57413702547BEC5C521A5642590F6CAC5D53759251831D0C58FCB4D25DD6DD5C579
:4058000051604225E1ACDAC51BF6362522EEDFC5EE8C2B25A131E5C5C92420255E77EAC5ADBD142558BFEFC59B5709258F09F5C594F2FD240356FAC5968EF224B3A4FFC514
:40584000A42BE724A0F504C6BDC9DB24C9480AC6E268D0242E9E0FC61409C524CFF514C652AAB924AC4F1AC69D4CAE24C4AB1FC6F6EFA224180A25C65D949724A66A2AC6DF
:40588000D3398C246FCD2FC657E08024733235C6EB877524B1993AC68F306A24290340C643DA5E24DB6E45C607855324C7DC4AC6DD304824ED4C50C6C4DD3C244CBF55C614
:4058C000BE8B3124E4335BC6C93A2624B5AA60C6E8EA1A24BE2366C61A9C0F24019F6BC6604E04247B1C71C6BA01F9232E9C76C628B6ED23181E7CC6AC6BE2233AA281C603
:405900004522D723942887C6F4D9CB2324B18CC6B992C023EC3B92C6954CB523EBC897C68807AA2320589DC693C39E238BE9A2C6B68093232D7DA8C6F23E88230413AEC611
:4059400047FE7C2312ABB3C6B5BE71235445B9C63C806623CDE1BEC6DF425B237A80C4C69B0650235C21CAC673CB442372C4CFC667913923BE69D5C676582E233D11DBC69F
:40598000A2202323F0BAE0C6EBE91723D766E6C651B40C23F214ECC6D57F012340C5F1C6774CF622C177F7C6371AEB22752CFDC617E9DF225CE302C716B9D422759C08C738
:4059C000358AC922C0570EC7745CBE223E1514C7D42FB322EDD419C75604A822CE961FC7F8D99C22E05A25C7BDB0912223212BC7A488862297E930C7AF617B223CB436C75C
:405A0000DC3B702211813CC72E176522165042C7A3F359224C2148C73DD14E22B1F44DC7FCAF432246CA53C7E18F38220AA259C7EB702D22FE7B5FC71C532222205865C7B9
:405A40007436172271366BC7F31A0C22F01671C7990001229DF976C768E7F52179DE7CC75FCFEA2182C582C77FB8DF21B9AE88C7C8A2D4211D9A8EC73B8EC921AE8794C7FF
:405A8000D87ABE216C779AC7A068B3215769A0C79357A8216E5DA6C7B1479D21B153ACC7FB389221204CB2C7722B8721BA46B8C7151F7C218143BEC7E51371217242C4C7E4
:405AC000E30966218F43CAC710015B21D646D0C76AF94F21474CD6C7F3F24421E353DCC7ACED3921AA5DE2C795E92E219A69E8C7ADE62321B377EEC7F6E41821F687F4C747
:405B000070E40D21629AFAC71CE50221F7AE00C8F9E6F720B5C506C809EAEC209BDE0CC84BEEE120A9F912C8C1F3D620DF1619C86AFACB203D361FC84702C120C35725C8FB
:405B4000580BB620707B2BC89E15AB2043A131C81A21A0203EC937C8CB2D95205FF33DC8B23B8A20A61F44C8CF4A7F20144E4AC8245B7420A77E50C8B06C692060B156C8F6
:405B8000747F5E203EE65CC86F935320421D63C8A4A848206A5669C811BF3D20B7916FC8B8D6322028CF75C899EF2720BD0E7CC8B4091D20775082C80A251220549488C846
:405BC0009B41072054DA8EC8675FFC1F782295C8707EF11FBF6C9BC8B49EE61F28B9A1C836C0DB1FB407A8C8F5E2D01F6258AEC8F106C61F32ABB4C82C2CBB1F2300BBC8FB
:405C0000A552B01F3657C1C85D7AA51F6BB0C7C854A39A1FC00BCEC88BCD8F1F3669D4C802F9841FCDC8DAC8BA257A1F842AE1C8B3536F1F5B8EE7C8ED82641F52F4EDC834
:405C400069B3591F685CF4C827E54E1F9EC6FAC82818441FF23201C96B4C391F66A107C9F3812E1FF7110EC9BEB8231FA88414C9CEF0181F76F91AC9222A0E1F627021C91D
:405C8000BC64031F6BE927C99BA0F81E92642EC9C0DDED1ED6E134C92B1CE31E37613BC9DD5BD81EB4E241C9D79CCD1E4D6648C918DFC21E03EC4EC9A122B81ED47355C915
:405CC0007367AD1EC1FD5BC98DADA21EC98962C9F1F4971EEC1769C99E3D8D1E2AA86FC99687821E833A76C9D8D2771EF5CE7CC9651F6D1E826583C93E6D621E29FE89C961
:405D000062BC571EE99890C9D20C4D1EC23597C98F5E421EB4D49DC999B1371EBF75A4C9F1052D1EE318ABC9965B221E1EBEB1C98AB2171E7265B8C9CC0A0D1EDD0EBFC967
:405D40005D64021E60BAC5C93EBFF71DFA67CCC96E1BED1DAB17D3C9EF78E21D73C9D9C9C1D7D71D517DE0C9E437CD1D4633E7C95899C21D50EBEDC91EFCB71D70A5F4C9AC
:405D80003660AD1DA561FBC9A2C5A21DEF1F02CA602C981D4FE008CA72948D1DC3A20FCAD8FD821D4B6716CA9268781DE72D1DCAA2D46D1D98F623CA0642631D5BC12ACAA6
:405DC000C0B0581D328E31CAD0204E1D1D5D38CA3692431D192E3FCAF404391D290146CA08792E1D4BD64CCA74EE231D7EAD53CA3865191DC4865ACA55DD0E1D1B6261CAF9
:405E0000CA56041D833F68CA99D1F91CFC1E6FCAC24DEF1C860076CA44CBE41C20E47CCA214ADA1CCAC983CA59CACF1C84B18ACAEC4BC51C4E9B91CADBCEBA1C278798CA5F
:405E40002653B01C0F759FCACDD8A51C0665A6CAD25F9B1C0C57ADCA34E8901C1F4BB4CAF371861C4141BBCA11FD7B1C7139C2CA8D89711CAE33C9CA6817671CF82FD0CA7B
:405E8000A2A65C1C4F2ED7CA3C37521CB32EDECA36C9471C2331E5CA915C3D1CA035ECCA4DF1321C283CF3CA6A87281CBC44FACAE91E1E1C5B4F01CBC9B7131C055C08CB24
:405EC0000D52091CBA6A0FCBB3EDFE1B797B16CBBD8AF41B438E1DCB2B29EA1B16A324CBFCC8DF1BF4B92BCB326AD51BDAD232CBCE0CCB1BCAED39CBCEB0C01BC30A41CB3F
:405F00003456B61BC42948CB01FDAB1BCD4A4FCB34A5A11BDF6D56CBCE4E971BF8925DCBCFF98C1B19BA64CB38A6821B41E36BCB0954781B700E73CB42036E1BA53B7ACBAA
:405F4000E5B3631BE16A81CBF165591B239C88CB67194F1B6BCF8FCB46CE441BB90497CB91843A1B0B3C9ECB463C301B6375A5CB66F5251BBFB0ACCBF2AF1B1B20EEB3CB75
:405F8000EB6B111B852DBBCB5029071BEE6EC2CB21E8FC1A5AB2C9CB60A8F21ACAF7D0CB0D6AE81A3D3FD8CB282DDE1AB388DFCBB1F1D31A2BD4E6CBA9B7C91AA521EECBA9
:405FC000117FBF1A2171F5CBE847B51A9FC2FCCB2F12AB1A1E1604CCE7DDA01A9E6B0BCC0FAB961A1FC312CCA9798C1AA01C1ACCB449821A227821CC311B781AA3D528CC5A
:4060000021EE6D1A243530CC84C2631AA59637CC5998591A25FA3ECCA36F4F1AA35F46CC6048451A20C74DCC92223B1A9B3055CC38FE301A149C5CCC54DB261A8B0964CCD1
:40604000E5B91C1AFF786BCCEC99121A70EA72CC697B081ADE5D7ACC5E5EFE1949D381CCC942F419AF4A89CCAC28EA1912C490CC0610E019703F98CCD9F8D519CABC9FCC51
:4060800025E3CB191E3CA7CCE9CEC1196EBDAECC27BCB719B840B6CCDFAAAD19FCC5BDCC119BA3193A4DC5CCBE8C991971D6CCCCE67F8F19A261D4CC89748519CCEEDBCC24
:4060C000A86A7B19EF7DE3CC436271190A0FEBCC5A5B67191DA2F2CCEF555D192937FACC015253192BCE01CD904F4919256709CD9E4E3F19160211CD2A4F3519FE9E18CDA3
:4061000035512B19DC3D20CDBF542119B0DE27CDC95917197B812FCD53600D193A2637CD5D680319EFCC3ECDE871F918997546CDF47CEF1837204ECD8289E518CACC55CD5E
:406140009297DB18507B5DCD24A7D118CB2B65CD38B8C71839DE6CCDD0CABD189A9274CDEBDEB318EE487CCD8AF4A918340184CDAE0BA0186DBB8BCD56249618987793CDD7
:40618000833E8C18B4359BCD355A8218C2F5A2CD6D777818C0B7AACD2B966E18B07BB2CD70B664189041BACD3CD85A186009C2CD8EFB501820D3C9CD69204718D09ED1CDA1
:4061C000CC463D186F6CD9CDB76E3318FD3BE1CD2B982918790DE9CD28C31F18E4E0F0CDAEEF15183DB6F8CDBF1D0C18848D00CE594D0218B86608CE7F7EF817D94110CE65
:4062000030B1EE17E81E18CE6CE5E417E2FD1FCE341BDB17C9DE27CE8852D1179CC12FCE688BC7175BA637CED6C5BD17058D3FCED101B4179A7547CE5A3FAA1719604FCEE5
:40624000707EA017844C57CE16BF9617D83A5FCE4A018D17162B67CE0D4583173D1D6FCE608A79174E1177CE43D16F1748077FCEB61966172AFF86CEBA635C17F4F88ECEE6
:406280004FAF5217A7F496CE75FC481741F29ECE2E4B3F17C2F1A6CE789B35172BF3AECE55ED2B177AF6B6CEC5402217B0FBBECEC9951817CB02C7CE60EC0E17CD0BCFCE58
:4062C0008B440517B416D7CE4B9EFB168023DFCE9FF9F1163132E7CE8956E816C742EFCE08B5DE164155F7CE1D15D5169F69FFCEC976CB16E17F07CF0BDAC11605980FCF15
:40630000E43EB8160DB217CF55A5AE16F8CD1FCF5D0DA516C5EB27CFFE769B16740B30CF37E29116052D38CF094F8816775040CF74BD7E16CA7548CF792D7516FE9C50CF1F
:40634000189F6B1613C658CF5112621608F160CF25875816DD1D69CF94FD4E16914C71CF9F754516247D79CF46EF3B1697AF81CF886A3216E8E389CF67E72816171A92CF95
:40638000E4651F1625529ACFFDE51516108CA2CFB4670C16D8C7AACF0AEB02167D05B3CFFD6FF9150045BBCF90F6EF155E86C3CFC17EE61599C9CBCF9208DD15AF0ED4CF94
:4063C0000394D315A155DCCF1521CA156D9EE4CFC6AFC01515E9ECCF1940B7159735F5CF0DD2AD15F483FDCFA365A4152AD405D0DBFA9A1539260ED0B5919115227A16D04B
:40640000322A8815E4CF1ED052C47E157E2727D016607515F1802FD07DFD6B153BDC37D0899C62155D3940D03A3D5915569848D08FDF4F1526F950D089834615CD5B59D0FF
:406440002A293D154AC061D070D033159D266AD05D792A15C68E72D0F0232115C4F87AD02BD01715976483D00D7E0E153FD28BD0972D0515BB4194D0C9DEFB140BB39CD010
:40648000A491F2142F26A5D02746E914269BADD054FCDF14F111B6D02BB4D6148D8ABED0AB6DCD14FD04C7D0D628C4143E81CFD0ABE5BA1451FFD7D02CA4B114367FE0D0E2
:4064C0005864A814EC00E9D030269F147284F1D0B3E99514C909FAD0E4AE8C14F09002D1C1758314E7190BD14B3E7A14ADA413D18308711442311CD169D46714A6BF24D1E2
:40650000FDA15E14D94F2DD140715514D9E135D132424C14A8753ED1D3144314440B47D123E93914ADA24FD124BF3014E23B58D1D5962714E5D660D137701E14B37369D1A6
:406540004A4B15144D1272D10E280C14B3B27AD184060314E45483D1ADE6F913E0F88BD187C8F013A69E94D115ACE71336469DD15691DE1390EFA5D14A78D513B49AAED1D1
:40658000F260CC13A047B7D14F4BC31356F6BFD16037BA13D4A6C8D12625B1131A59D1D1A214A813280DDAD1D3059F13FDC2E2D1BAF895139A7AEBD157ED8C13FD33F4D105
:4065C000ABE3831327EFFCD1B6DB7A1317AC05D279D57113CC6A0ED2F3D06813482B17D226CE5F1388ED1FD211CD56138DB128D2B4CD4D13567731D211D04413E43E3AD2F8
:4066000027D43B13350843D2F7D932134AD34BD281E1291321A054D2C6EA2013BC6E5DD2C6F51713193F66D280020F1338116FD2F710061318E577D22921FD12BBBA80D286
:406640001833F4121E9289D2C346EB12416B92D22B5CE21226469BD25073D912CA22A4D2338CD0122E01ADD2D4A6C71251E1B5D233C3BE1233C3BED251E1B512D4A6C7D291
:406680002E01AD12338CD0D2CA22A4125073D9D226469B122B5CE2D2416B9212C346EBD21E9289121833F4D2BBBA80122921FDD218E57712F71006D338116F1280020FD301
:4066C000193F6612C6F517D3BC6E5D12C6EA20D321A0541281E129D34AD34B12F7D932D33508431227D43BD3E43E3A1211D044D356773112B4CD4DD38DB1281211CD56D3E4
:4067000088ED1F1226CE5FD3482B1712F3D068D3CC6A0E1279D571D317AC0512B6DB7AD327EFFC11ABE383D3FD33F41157ED8CD39A7AEB11BAF895D3FDC2E211D3059FD34E
:40674000280DDA11A214A8D31A59D1112625B1D3D4A6C8116037BAD356F6BF114F4BC3D3A047B711F260CCD3B49AAE114A78D5D390EFA5115691DED336469D1115ACE7D358
:40678000A69E941187C8F0D3E0F88B11ADE6F9D3E4548311840603D4B3B27A110E280CD44D1272114A4B15D4B373691137701ED4E5D66011D59627D4E23B581124BF30D440
:4067C000ADA24F1123E939D4440B4711D31443D4A8753E1132424CD4D9E13511407155D4D94F2D11FDA15ED4A6BF241169D467D442311C11830871D4ADA413114B3E7AD44E
:40680000E7190B11C17583D4F0900211E4AE8CD4C909FA10B3E995D47284F11030269FD4EC00E9105864A8D4367FE0102CA4B1D451FFD710ABE5BAD43E81CF10D628C4D4E9
:40684000FD04C710AB6DCDD48D8ABE102BB4D6D4F111B61054FCDFD4269BAD102746E9D42F26A510A491F2D40BB39C10C9DEFBD4BB419410972D05D53FD28B100D7E0ED569
:40688000976483102BD017D5C4F87A10F02321D5C68E72105D792AD59D266A1070D033D54AC061102A293DD5CD5B5910898346D526F950108FDF4FD5569848103A3D59D550
:4068C0005D394010899C62D53BDC37107DFD6BD5F1802F10166075D57E27271052C47ED5E4CF1E10322A88D5227A1610B59191D539260E10DBFA9AD52AD40510A365A4D52C
:40690000F483FD0F0DD2ADD59735F50F1940B7D515E9EC0FC6AFC0D56D9EE40F1521CAD5A155DC0F0394D3D5AF0ED40F9208DDD599C9CB0FC17EE6D55E86C30F90F6EFD5A6
:406940000045BB0FFD6FF9D57D05B30F0AEB02D6D8C7AA0FB4670CD6108CA20FFDE515D625529A0FE4651FD6171A920F67E728D6E8E3890F886A32D697AF810F46EF3BD659
:40698000247D790F9F7545D6914C710F94FD4ED6DD1D690F258758D608F1600F511262D613C6580F189F6BD6FE9C500F792D75D6CA75480F74BD7ED67750400F094F88D615
:4069C000052D380F37E291D6740B300FFE769BD6C5EB270F5D0DA5D6F8CD1F0F55A5AED60DB2170FE43EB8D605980F0F0BDAC1D6E17F070FC976CBD69F69FF0E1D15D5D6AB
:406A00004155F70E08B5DED6C742EF0E8956E8D63132E70E9FF9F1D68023DF0E4B9EFBD6B416D70E8B4405D7CD0BCF0E60EC0ED7CB02C70EC99518D7B0FBBE0EC54022D702
:406A40007AF6B60E55ED2BD72BF3AE0E789B35D7C2F1A60E2E4B3FD741F29E0E75FC48D7A7F4960E4FAF52D7F4F88E0EBA635CD72AFF860EB61966D748077F0E43D16FD703
:406A80004E11770E608A79D73D1D6F0E0D4583D7162B670E4A018DD7D83A5F0E16BF96D7844C570E707EA0D719604F0E5A3FAAD79A75470ED101B4D7058D3F0ED6C5BDD7B6
:406AC0005BA6370E688BC7D79CC12F0E8852D1D7C9DE270E341BDBD7E2FD1F0E6CE5E4D7E81E180E30B1EED7D941100E7F7EF8D7B866080E594D02D8848D000EBF1D0CD845
:406B00003DB6F80DAEEF15D8E4E0F00D28C31FD8790DE90D2B9829D8FD3BE10DB76E33D86F6CD90DCC463DD8D09ED10D692047D820D3C90D8EFB50D86009C20D3CD85AD8C6
:406B40009041BA0D70B664D8B07BB20D2B966ED8C0B7AA0D6D7778D8C2F5A20D355A82D8B4359B0D833E8CD89877930D562496D86DBB8B0DAE0BA0D83401840D8AF4A9D876
:406B8000EE487C0DEBDEB3D89A92740DD0CABDD839DE6C0D38B8C7D8CB2B650D24A7D1D8507B5D0D9297DBD8CACC550D8289E5D837204E0DF47CEFD89975460DE871F9D8A6
:406BC000EFCC3E0D5D6803D93A26370D53600DD97B812F0DC95917D9B0DE270DBF5421D9DC3D200D35512BD9FE9E180D2A4F35D91602110D9E4E3FD92567090D904F49D9A3
:406C00002BCE010D015253D92937FA0CEF555DD91DA2F20C5A5B67D90A0FEB0C436271D9EF7DE30CA86A7BD9CCEEDB0C897485D9A261D40CE67F8FD971D6CC0CBE8C99D9F5
:406C40003A4DC50C119BA3D9FCC5BD0CDFAAADD9B840B60C27BCB7D96EBDAE0CE9CEC1D91E3CA70C25E3CBD9CABC9F0CD9F8D5D9703F980C0610E0D912C4900CAC28EAD904
:406C8000AF4A890CC942F4D949D3810C5E5EFED9DE5D7A0C697B08DA70EA720CEC9912DAFF786B0CE5B91CDA8B09640C54DB26DA149C5C0C38FE30DA9B30550C92223BDA60
:406CC00020C74D0C604845DAA35F460CA36F4FDA25FA3E0C599859DAA596370C84C263DA2435300C21EE6DDAA3D5280C311B78DA2278210CB44982DAA01C1A0CA9798CDAB1
:406D00001FC3120C0FAB96DA9E6B0B0CE7DDA0DA1E16040C2F12ABDA9FC2FC0BE847B5DA2171F50B117FBFDAA521EE0BA9B7C9DA2BD4E60BB1F1D3DAB388DF0B282DDEDAAD
:406D40003D3FD80B0D6AE8DACAF7D00B60A8F2DA5AB2C90B21E8FCDAEE6EC20B502907DB852DBB0BEB6B11DB20EEB30BF2AF1BDBBFB0AC0B66F525DB6375A50B463C30DB15
:406D80000B3C9E0B91843ADBB904970B46CE44DB6BCF8F0B67194FDB239C880BF16559DBE16A810BE5B363DBA53B7A0B42036EDB700E730B095478DB41E36B0B38A682DBAC
:406DC00019BA640BCFF98CDBF8925D0BCE4E97DBDF6D560B34A5A1DBCD4A4F0B01FDABDBC429480B3456B6DBC30A410BCEB0C0DBCAED390BCE0CCBDBDAD2320B326AD5DB6E
:406E0000F4B92B0BFCC8DFDB16A3240B2B29EADB438E1D0BBD8AF4DB797B160BB3EDFEDBBA6A0F0B0D5209DC055C080BC9B713DC5B4F010BE91E1EDCBC44FA0A6A8728DC3E
:406E4000283CF30A4DF132DCA035EC0A915C3DDC2331E50A36C947DCB32EDE0A3C3752DC4F2ED70AA2A65CDCF82FD00A681767DCAE33C90A8D8971DC7139C20A11FD7BDC32
:406E80004141BB0AF37186DC1F4BB40A34E890DC0C57AD0AD25F9BDC0665A60ACDD8A5DC0F759F0A2653B0DC2787980ADBCEBADC4E9B910AEC4BC5DC84B18A0A59CACFDC5E
:406EC000CAC9830A214ADADC20E47C0A44CBE4DC8600760AC24DEFDCFC1E6F0A99D1F9DC833F680ACA5604DD1B62610A55DD0EDDC4865A0A386519DD7EAD530A74EE23DDE1
:406F00004BD64C0A08792EDD2901460AF40439DD192E3F0A369243DD1D5D380AD0204EDD328E310AC0B058DD5BC12A0A064263DD98F6230AA2D46DDDE72D1D0A926878DDFA
:406F40004B67160AD8FD82DDC3A20F0A72948DDD4FE0080A602C98DDEF1F020AA2C5A2DDA561FB093660ADDD70A5F4091EFCB7DD50EBED095899C2DD4633E709E437CDDD02
:406F8000517DE009C1D7D7DD73C9D909EF78E2DDAB17D3096E1BEDDDFA67CC093EBFF7DD60BAC5095D6402DEDD0EBF09CC0A0DDE7265B8098AB217DE1EBEB109965B22DE45
:406FC000E318AB09F1052DDEBF75A40999B137DEB4D49D098F5E42DEC2359709D20C4DDEE998900962BC57DE29FE89093E6D62DE82658309651F6DDEF5CE7C09D8D277DE2C
:40700000833A7609968782DE2AA86F099E3D8DDEEC176909F1F497DEC98962098DADA2DEC1FD5B097367ADDED4735509A122B8DE03EC4E0918DFC2DE4D664809D79CCDDE3D
:40704000B4E24109DD5BD8DE37613B092B1CE3DED6E13409C0DDEDDE92642E099BA0F8DE6BE92709BC6403DF62702109222A0EDF76F91A09CEF018DFA8841409BEB823DF01
:40708000F7110E09F3812EDF66A107096B4C39DFF2320109281844DF9EC6FA0827E54EDF685CF40869B359DF52F4ED08ED8264DF5B8EE708B3536FDF842AE108BA257ADF1E
:4070C000CDC8DA0802F984DF3669D4088BCD8FDFC00BCE0854A39ADF6BB0C7085D7AA5DF3657C108A552B0DF2300BB082C2CBBDF32ABB408F106C6DF6258AE08F5E2D0DF45
:40710000B407A80836C0DBDF28B9A108B49EE6DFBF6C9B08707EF1DF78229508675FFCDF54DA8E089B4107E0549488080A2512E077508208B4091DE0BD0E7C0899EF27E026
:4071400028CF7508B8D632E0B7916F0811BF3DE06A566908A4A848E0421D63086F9353E03EE65C08747F5EE060B15608B06C69E0A77E5008245B74E0144E4A08CF4A7FE0A2
:40718000A61F4408B23B8AE05FF33D08CB2D95E03EC937081A21A0E043A131089E15ABE0707B2B08580BB6E0C35725084702C1E03D361F086AFACBE0DF161908C1F3D6E096
:4071C000A9F912084BEEE1E09BDE0C0809EAECE0B5C50608F9E6F7E0F7AE00081CE502E1629AFA0770E40DE1F687F407F6E418E1B377EE07ADE623E19A69E80795E92EE1FF
:40720000AA5DE207ACED39E1E353DC07F3F244E1474CD6076AF94FE1D646D00710015BE18F43CA07E30966E17242C407E51371E18143BE07151F7CE1BA46B807722B87E1C8
