:400000000080002011000000DD090000DD09000008B5044B1A6803F53F5302331A6000F0E5FC00BFFA46004010B5054C237833B9044B13B10448AFF300800123237010BDCA
:400040006082FF1F00000000A8250000084B10B51BB108490848AFF300800848036803B910BD074B002BFBD0BDE81040184700BF000000006482FF1FA8250000C880FF1F36
:400080000000000008B5002000F0D4FF08BD00BF684620F007018D4619B572B6EFF311841E4B1B68DBB20F2B10D9103B23F0030202F1604202F564421168DB0003F0180383
:4000C000E0229A400A4022FA03F306E00F2B03D1134B1B681B0E00E0002383F31188114A136801331360012B01D102F0BBF862B6FFF7C8FF72B684F3118801F095F9094AB9
:400100001368013B13601BB902F0B5F802F079F862B6BDE819408546704700BF04ED00E020ED00E0E48AFF1F08B562B645F6BF52054B1A60054A136843F00203136000209E
:4001400001F060FAFBE700BF14E000E010E000E008B5094800F05EF901F0B8FA074A136843F005031360022000F0B2FD012000F0AFFD01F08DFA08BDC882FF1F10E000E08A
:4001800000B583B0002301933B2001F079F801A9022000F0D5FF019800F0A4FF0199024800F052F9F0E700BFC882FF1FFEE700BF08B501F035FBC0B2732804D10221084635
:4001C00000F0DEFF08BD6F2803D11021022000F0D7FF08BD684620F007018D4619B572B6EFF311841E4B1B68DBB20F2B10D9103B23F0030202F1604202F564421168DB0099
:4002000003F01803E0229A400A4022FA03F306E00F2B03D1134B1B681B0E00E0002383F31188114A136801331360012B01D102F019F862B6FFF7BCFF72B684F3118801F0F8
:40024000F3F8094A1368013B13601BB902F013F801F0D7FF62B6BDE819408546704700BF04ED00E020ED00E0E48AFF1F08B50421022000F085FF08BD684620F007018D4607
:4002800019B572B6EFF311841E4B1B68DBB20F2B10D9103B23F0030202F1604202F564421168DB0003F01803E0229A400A4022FA03F306E00F2B03D1134B1B681B0E00E028
:4002C000002383F31188114A136801331360012B01D101F0C7FF62B6FFF7C8FF72B684F3118801F0A1F8094A1368013B13601BB901F0C1FF01F085FF62B6BDE819408546AB
:40030000704700BF04ED00E020ED00E0E48AFF1F08B50121022000F033FF08BD684620F007018D4619B572B6EFF311841E4B1B68DBB20F2B10D9103B23F0030202F160427B
:4003400002F564421168DB0003F01803E0229A400A4022FA03F306E00F2B03D1134B1B681B0E00E0002383F31188114A136801331360012B01D101F075FF62B6FFF7C8FF81
:4003800072B684F3118801F04FF8094A1368013B13601BB901F06FFF01F033FF62B6BDE819408546704700BF04ED00E020ED00E0E48AFF1F08B500F0F9F800F0FDF800F0E6
:4003C00073F900F075F9002008BD00BF08B501280CD010B1022812D019E00021032000F0B5F80121002000F0B1F810E00021032000F0ACF80121022000F0A8F807E00021A7
:40040000032000F0A3F80121084600F09FF8002008BD00BF70B50646FFF7CCFF012535702846FFF7D3FF00247470B470F47034712946204600F00EF9284600F03BF928463F
:4004400000F044F9204670BD38B504460D460378012B15D013B1022B44D074E011F0010F71D00121002000F0F5F8012000F022F9012000F02BF901202070FFF7A7FF62E0EC
:4004800011F0020F01D00123C37015F0040F12D00021084600F0DEF8E3781BB92021022000F06EFEE378012B05D10023E3700821022000F065FE15F0200F03D0012100202B
:4004C00000F0C8F815F0080F3DD00021084600F0C1F80121084600F0BDF802202070FFF775FF30E011F0100F2DD00021012000F0B1F863780133DBB26370092B08D801202E
:400500002070FFF763FF2021022000F039FE1AE00A2B18D1012525702846FFF757FF002000F0C8F8002000F0D1F800206070A070E0702071294600F08DF8284600F0BAF83E
:40054000284600F0C3F8002038BD00BF38B504460D46032824D8DFE800F00209101E084601F008F9104B1D55002038BD084601F0F5F80D4B1D55002038BD084601F0E2F8A7
:40058000094B1D55002038BD29462046FFF7DEFF0134E4B200E00024022CF5D9002038BD6FF0130038BD00BF7C82FF1F08B501F01BF9002008BD00BF70B541F6FF734FF41F
:4005C00080420121022001F0B5FD1D4E307000F00BFB1C4D28700623FE224FF4006100F01DFB194CA4B2224644F61061287800F029FB2978307800F0C9FA4FF4804341F6A0
:40060000FF720121022001F0B3FD104E307000F0EBFA0F4D28700523FE224FF4006100F0FDFA46F24D422146287800F00BFB2978307800F0ABFA01F0B9FD002070BD00BF75
:40064000D682FF1FD082FF1FD882FF1FD582FF1FD482FF1F08B510B101280ED01BE0012904D10F4B187800F037FA17E0012915D10B4B187800F04CFA10E0012904D1094B43
:40068000187800F029FA09E0012907D1054B187800F03EFA02E06FF0130008BD08BD00BFD682FF1FD582FF1F08B501F0F9FB08BD0020704708B5012802D101F04DF902E00C
:4006C00008B901F0D9F8002008BD00BF08B5012802D101F0F9FB02E008B901F0FDFB002008BD00BFFEE700BFF0B40022174611E050F82760F3B226F0FF0608E001EB4205A3
:4007000011F812406D78A5550132013BDBB2002BF4D10137152FEBD9F0BC70470C4B1B78DBB203F007010B4A11701B09013213703022094B1A70012203F683031A7002224E
:4007400080331A704422A3F28A231A70704700BFCF0100496E580040FD51004008B50A46002101F018FF08BD08B501F009FF08BD38B50024344B1C80502202331A701925D6
:4007800002331D801823314A137040F65F11023211800232137041F2BF21023211800232137004222A492B48FFF7DEFF02222A4B1A7008224FF040231A70032103F5007396
:4007C0001970264B1B78DBB225490B70254B1A8041F25122023B1A800CE0234B1B7803F0010343EA440404F003044FF4F07001F0EBFC013D0DB1032CEFD115B90320FFF7CE
:4008000071FF1A4B4FF480721A8007221A70002217490A704820023108701A700222033B1A7004220A331A70124A137843F00F031370013A137843F001031370013A1378FA
:4008400043F08003137038BD804000408640004090040048004100400043004008010049A146004022420040254200400440004006400040A2430040012807D8044B53F8CF
:4008800020201844017A13780B431370704700BFAC250000012808D8044B53F820201844017A137823EA010313707047AC25000038B572B6344A137843F00403137000241E
:4008C0000BE0324863001A19510001440A46098AD068FFF743FF0134E4B2072CF1D92C494FF09040FFF700FF0A252A4B1D7004212948FFF733FF042228492948FFF734FFB3
:4009000004212848FFF72AFF04212748FFF726FF264A137843F0020313701032137843F002031370224C237843F040032370A2F58632513A137843F01003137008221D4946
:400940001D48FFF711FF08221C491D48FFF70CFF2A461C491C48FFF707FF1C4A137843F0080313701A4D61232B70FFF701FF81232B700122174B1A70FFF7D0FE0E2221460B
:400980001548FFF7F1FE38BDE8460040AC2500005800004883580040007600409404004850760040087600401076004003500140A043004074040048F25100407C04004824
:4009C000125100408404004820510040224300400048004004000840B043004008B501F0A3FD03680C2B00D1FEE7FEE708B5104E104D16E029686B68AC68002204E051F867
:400A0000040B43F8040B0432A242F8D1E868002203E0002143F8041B04328242F9D11035013E002EE6D101F085FDFFF77DFBFEE701000000982C000008B5114A114B1A6004
:400A4000114A136843F40073136000230AE0032B03D80E4A52F8231000E00D490D4A42F8231001332F2BF2D90B4B1A780B4B1A70084A0B4B1A60FFF71BFF00F013F808BD8B
:400A80000004FA050CED00E014ED00E000000000DD0900000080FF1FBC760040C080FF1F08ED00E00B4A7F2313708021517007E0DA0002F1804202F5F042013BDBB2137089
:400AC000002BF5D1DB0003F1804303F5F04300221A707047CC80FF1F172815D831B103010A495A5C42F020025A5405E0030107495A5C02F0DF025A540001044A835C43F08D
:400B00000103835400207047012070471070004017280BD80001064BC25C02F0FE02C254C25C02F0DF02C25400207047012070471070004017280BD80001064A835C03F016
:400B4000F103490001F00E011943815400207047012070471070004041F6FF73994201D14FF4005141F6FF739A4201D14FF40052172808D8C00000F1804000F5EC40818010
:400B8000C280002070470120704700BF172805D8034B03EB0010417200207047012070471070004017281BD810B4C00000F1804404F5EC44D201D2B201F07F0111432170BA
:400BC0009DF804201201D2B203F00F03134363709DF8083003F00F03A3700020E07001E00120704710BC704710B501F0F5FA0A4B5B78182B0BD9084A1478013B5370E30032
:400C000003F1804303F5F0431B78137000E0FF2401F0E6FA204610BDCC80FF1F10F0800F0CD111F4704F0BD1C00000F1804000F5F04001808270C370002070470120704754
:400C40000120704710F0800F08D1C00000F1804000F5F0408180C280002070470120704701BE704708B5034B1B7A00FB03F001F0ABFA08BDD480FF1F70B504460E46074BC6
:400C80001D681F2802D90020FFF7EAFF04F01F04103455F8240045F8246070BD08ED00E038B504460D46072902D90020FFF7D8FF1F2C02D90020FFF7D3FF04F01F0000F16B
:400CC000604000F564406D01EDB2057038BD00BF38B5EFF3108572B602284ED82D4B53F82030002B4BD02B4A013B42F820302A4B53F82030032B07D10222274B43F82020EE
:400D00000022264B43F8202000F0FEFB244B1B68002B36D1234B1C6800F0D4FBB0F1FF3F31D0214B53F82020204B1B689A422CD9B4F1FF3F03D00221174A42F824101C4A33
:400D400052F820201343194A13600022124B43F8202000F073FB174B53F820304BB10024144B43F8204040F0004001F08DFA20460CE001F089FA002008E0032006E004206B
:400D800004E0002002E0002000E0002085F3108838BD00BF1481FF1FB081FF1F9882FF1FE48AFF1FA081FF1F64270000AC82FF1F402700008082FF1F18B108B5C368984776
:400DC00008BD704708B508B1406800E00020022816D80C4B53F8203093B10A4A013B42F82030094B53F82030032B07D10222064B43F820200022054B43F8202000F084FBB0
:400E000008BD00BF1481FF1FB081FF1F9882FF1F18B1034640689B6801E00023184602281DD80F4A52F82020CAB10E4A52F82010032914D010B50C4C54F820201A4344F834
:400E400020200A4A52F82020134207D0012905D10222044B43F8202000F056FB10BD704728270000B081FF1F9882FF1F8C82FF1F80B108B50378012B06D013B1032B06D040
:400E800008BDFFF79FFF08BDFFF7C2FF08BDFFF793FF08BD704700BF30B400EB40029300214AD258214B03EBC2035C68B4F1FF3F04D11E4B03EBC20250602DE01C4B03EBD4
:400EC00004139B6899420AD2184D05EBC2025060174A02EB04125B1A93601DE01C46144B03EB04139A68891ADB68B3F1FF3F05D00F4A02EB031292689142EFD2B3F1FF3F5F
:400F000005D00B4A02EB031295686D1A9560084A02EB0414E0601C46054B03EB00108160C46030BC704700BF08270000E880FF1FEC8EFF1F38B5394A02EBC0035C6852F8E3
:400F40003030013342F8303000EB40018A0034498A58934203D90022304B43F83020B4F1FF3F59D02F4B03EB04139B68002B4ED1214600E019462B4B03EB0113DB68B3F178
:400F8000FF3F05D0274A02EB03129268002AF1D0244A02EB01114FF0FF32CA601F4A02EBC0004360B3F1FF3F07D01E4A02EB03139A68013A9A6000E02C4604EB4402930091
:400FC000194A13441B7A7BB904EB44029300164A13445A68154B53F8223003EB83039A0013481044FFF744FF0E4B03EB0413DD68596821B101392046FFF74EFF03E0240119
:401000000022084B1A51B5F1FF3FD5D138BD054A02EB0414013BA36038BD00BFE880FF1F1C270000EC8EFF1F0827000018270000F426000038B5EFF3108572B6002838D164
:40104000FFF778FF204B1B68002B34D11F4B1C6800F038FAB0F1FF3F2FD01D4B53F820201C4B1B689A422AD9B4F1FF3F03D00221194A42F82410194A52F820201343154AEF
:4010800013600022144B43F8202000F0D7F9144B53F820304BB10024114B43F8204040F0004001F0F1F820460AE001F0EDF8002006E0032004E0002002E0002000E0002051
:4010C00085F3108838BD00BFE48AFF1FA081FF1F64270000AC82FF1FB081FF1F402700008082FF1FEFF3108372B6114A1168114A126882B9B1F1FF3F0FD00F4A52F8212090
:401100006AB110B40D4C54F8212022EA000044F82100002007E0022002E0022000E0012083F31088704783F3108810BC704700BFA081FF1FE48AFF1F282700009882FF1FEC
:4011400002280FD80B4B53F820306BB10A4B53F82030032B0AD059B1084B53F820300B60002070470320704701207047072070470E20704728270000B081FF1F9882FF1FD4
:4011800038B5EFF3108472B6022853D8324B53F82030002B50D0314B53F82030032B4DD02F4D55F820200A4345F820202D4A52F82020114244D0012B44D10222274B43F83D
:4011C000202000F0A1F9284B1B68002B3CD1274B1D6800F077F9B0F1FF3F37D0244B53F82020244B1B689A4232D9B5F1FF3F03D002211A4A42F825101F4A52F820201343F1
:401200001C4A13600022154B43F8202000F016F91A4B53F820304BB10025184B43F8205040F0004001F030F8284612E001F02CF800200EE003200CE001200AE0072008E075
:40124000002006E0002004E0002002E0002000E0002084F3108838BD28270000B081FF1F9882FF1F8C82FF1FE48AFF1FA081FF1F64270000AC82FF1F402700008082FF1F13
:4012800038B5EFF3108472B6364B1D68364B1B68002B5DD1B5F1FF3F5CD0344B53F82530002B59D0324B53F82530034256D1314B43F825000122304B43F825202F4B53F875
:4012C00025002F490B6823EA00030B602D4B43F825202D4B53F82520224B1A6000F0F2F8B0F1FF3F06D0294B53F82020244B1B689A420DD81B4B1868B0F1FF3F03D0002281
:401300001D4B43F8202040F0004000F0BDFF1AE00021194A42F82010184A52F820201343174A136000F08AF8164B53F8203043B10022144B43F8202040F0004000F0A4FF4F
:4013400001E000F0A1FF00200A4B43F8250006E0022004E0022002E0012000E0002084F3108838BDA081FF1FE48AFF1F282700009882FF1F8C82FF1FB081FF1F40270000DE
:40138000AC82FF1F8082FF1FA481FF1F6427000008B500F053F8084B53F8203043B10022054B43F8202040F00040044B186008BD024B186008BD00BF8082FF1FE88AFF1F37
:4013C00010B500F07FF8124B1B68B0F1FF3F1AD0104A52F82010104A1268914213D9B3F1FF3F03D002240D4941F8234000210B4B43F820100A4B53F820301A43064B1A60EA
:40140000FFF7C6FF10BD43F00043064A136010BDA081FF1F64270000AC82FF1FB081FF1F40270000E88AFF1F034B1B6813B10022014B1A60704700BFD88AFF1FF0B4184B48
:4014400019880B0A174AD356B3F1FF3F01D1535601E008335BB2144D55F82320134850F82200134E56F8224045F82340114D2F6846F822702A60B4F1FF3F09D10E4A42F8A1
:401480002340012202FA03F321EA0301044B19800A4B19680A4A42F820101860F0BC7047A882FF1FE82500006081FF1FD48EFF1FFC80FF1FA482FF1F2081FF1FA081FF1F9E
:4014C000A481FF1F0C4B1A88130A0C49CB56B3F1FF3F01D18B5601E008335BB2B3F1FF3F06D0074A52F82320064B53F8220070474FF0FF30704700BFA882FF1FE82500001B
:401500006081FF1FD48EFF1F30B4144B53F82020134C2368134951F823502560124C44F823004FF0FF3441F82340104951F82210A1420AD10E4951F820400E480188214337
:4015400001800D4941F8223002E0064840F82130064941F8223030BC704700BF0881FF1FA482FF1FFC80FF1FD48EFF1F2081FF1F64270000A882FF1F6081FF1F10B150F875
:40158000210070474FF0FF30704700BF0122014B1A60FEE7E08AFF1F70B50546124B53F8306000241CE0104B03EBC50321465868FFF7E4FF0D4A52F82030013B42F8203089
:4015C0000B4B53F82030032B07D10222084B43F820200022074B43F82020FFF795FF0134B442E0D370BD00BFE82600001481FF1FB081FF1F9882FF1F18B908B5FFF7CCFF28
:4016000008BD7047194B1A4ADA621A4A9A631A4ADA63EFF3108272B6184B1B6813BB10B5044600F053F8164B1C600122134B1A602046FFF7E1FFFFF745FFB0F1FF3F0ED083
:40164000104B53F82030104A11680B43136000220E4B43F82020FFF7F1FE00F015FE62B6FFF794FF82F31088072070470080FF1F492200000D22000091000000E08AFF1F25
:40168000F090FF1F40270000AC82FF1FB081FF1F08B5EFF3108272B6094B1968094B1B6833B94FF0FF30084B43F82100002000E0022010B9084600F040FE82F3108808BD43
:4016C000A081FF1FE48AFF1FF080FF1F70B5174B1E68EFF3108572B600F086FD144A136843F07F431360134B336401210020FFF7D7FA114C236843F0010323600F4BF364E0
:4017000001210320FFF7CCFA236843F0080323600B4BB36401210220FFF7C2FA236843F00403236085F3108870BD00BF08ED00E020ED00E07902000000E100E01D03000097
:40174000D5010000044A137803F0BF03800100F0400018431070704720510040044A137803F0DF03400100F0200018431070704720510040044A137803F0EF03000100F020
:401780001000184310707047105100407222074B1A702022043B1A700622603B1A70472210331A7003224F331A7070478F64004010B500F011FD04460A4A137843F020038B
:4017C0001370043A137843F010031370013A137843F01003137000F02DF8204600F000FD10BD00BF9F64004008B5054B1B7823B9FFF7CCFF0122024B1A70FFF7D9FF08BD44
:40180000B482FF1F014B1878704700BF4C640040024B187800F07F00704700BF6B64004010B5FFF7F5FF0402FFF7ECFF204380B210BD00BF054A137843F0020313701032B3
:40184000137843F002031370704700BFA243004010B500F0E7F8074C01212078FFF73CF901216078FFF738F9002000F005F900F081F810BDB682FF1F10B500F089F8054C79
:401880002078FFF745F96078FFF742F900F0D8F810BD00BFB682FF1F70B505460E464FF48043020C0121084600F080F8094C2070A078012302463146FFF7B0F94FF4B74246
:4018C000A9B2A078FFF7BEF9A1782078FFF75EF970BD00BFB682FF1F70B505460E464FF48043020C0121084600F07EF8094C6070E078012302463146FFF790F94FF4B742BF
:40190000A9B2E078FFF79EF9E1786078FFF73EF970BD00BFB682FF1F10B500F0D5F8022000F09CF8042000F0BFF8FFF75DF9084CA070FFF759F9E070064C4FF47A712046A6
:40194000FFF7AAFF642104F57A70FFF7C5FF10BDB682FF1F2428000008B5054B1B7923B9FFF7DAFF0122024B1A71FFF771FF08BDB682FF1F054A137843F004031370103296
:40198000137843F004031370704700BFA2430040054A137803F0FB0313701032137803F0FB031370704700BFA2430040F0B583B016461F460B4C0125257000230193009325
:4019C0000A4601462846FFF7EDF83A4631462078FFF7C2F802212078FFF7ACF8207803B0F0BD00BFF081FF1FF0B583B016461F460B4C022525700023019300930A460146A0
:401A00002846FFF7CFF83A4631462078FFF7A4F829462078FFF78EF8207803B0F0BD00BFF181FF1F054A137843F0010313701032137843F001031370704700BFA8430040D4
:401A4000054A137803F0FE0313701032137803F0FE031370704700BFA8430040054B1A7802F0FD021A701A7800F0020010431870704700BF20580040014B1870704700BFFC
:401A8000805B0040064B1B78C3F3810303F19243063393F82031DBB2024A1370704700BF205800400846004008B5064B1A7802F0F3021A701A7800F00C0010431870FFF787
:401AC000E1FF08BD2058004008B50020074B187001331870064A137843F008031370FFF7E3FF0220FFF7BAFF08BD00BF20580040875A004010B59DF80840012C51D101384A
:401B000009282ED8DFE800F0052D2D052D2D0F192D230F2B03D92548007840B222E02448007840B21EE00F2B03D92248007840B218E02148007840B214E00F2B03D91F4898
:401B4000007840B20EE01E48007840B20AE00F2B03D91C48007840B204E01B48007840B200E0002001EB401101FB02F1C90B8AB20D2B0BD8C3F10E0289B211418AB2611E5B
:401B8000124800EB810101338B7005E0631E0F4901EB83030F219970013C0C4B23F8242010BD0020FFF75CF810BD00BF180100491C010049190100491D0100491A0100491A
:401BC0001E0100491B0100491F010049BC82FF1FF8B5074600F000FB06460D4D2B7843F003032B700B4C237843F0030323700A4B1F700320FFF736F82B7803F0FC032B7038
:401C0000237803F0FC032370304600F0E9FAF8BDF8460040F94600409258004038B500222F4B1A7101285AD138222E4B1A70042202331A70062201331A70002401331C70EB
:401C400001331C703F2201331A7002331C7001331C7001331C7001250A331D70502203F527631A700A23204A13702C210132117001321470442103321170482101321170CC
:401C8000013215700232147001321470013213704322164B1A705220FFF79AFF5822144B1A7001331C700223124A137001321370114B1C7001331C70204600F027F943F2C6
:401CC00033320E4B1A602946052000F043F92946BA2000F0C3F90A491D20FEF7CDFF38BDBC82FF1F004E00408558004091580040945800409A5800409C580040F492FF1F4B
:401D0000E91E0000F0B583B0284D01272F70284E00247471102000F00BF9102000F08CF907211D20FEF7BCFF0422224B1A7001331C7007331C70204A137843F018031370C2
:401D40001E4B1C7003F2F5231C7001331C700A22A3F209331A7001331C7002331C705B2205331A705E2201331A7004331C701422A3F68C231A70009710234FF4004248F638
:401D8000F0510220FFF7B6FE2B78013B06EB83039A780B4B1A702B78013B36F82320094B1A802878FFF73AFF03B0F0BDF281FF1FBC82FF1F96580040075B00409358004079
:401DC0000E4E00400C4E004070B500F005FA06462A4B1B782A4B1A7842F001021A701A7842F010021A7010331A7842F001021A701A7842F010021A70224D2B7843F00203E1
:401E00002B70214C237843F0020323701F4A137843F0030313700320FEF724FF2B7803F0FD032B70237803F0FD032370184A137843F0060313707A22164B1A70164A1378D9
:401E400043F0010313701032137843F0010313700F3A137843F0010313701032137843F0010313704FF000530C4A1360A2F5C0721360304600F0B4F970BD00BFF281FF1FE5
:401E8000AA430040F8460040F9460040915800407758004082580040A143004080E200E008B5084B9B794BB9064BDB7913F0FF0F01D1FFF727FF0122024B9A71FFF784FF80
:401EC00008BD00BFBC82FF1F024A137843F0010313707047004E0040024A137803F0FE0313707047004E0040704700BF10B5002404E02046FEF7CEFC0134E4B2012CF8D968
:401F0000FF22014B1A7010BDF381FF1F10B50446FFF7ECFF2046FEF7AFFC014B1C7010BDF381FF1F014B188880B2704780400040034B1A7800F0F80010431870704700BF30
:401F400082400040024B187800F00700704700BF8240004070B505460E46FFF7F3FF0446FFF7E0FFA84256D02B4B1B7803F0010294B900B185B938B9284B1D80284A1378FF
:401F800003F0BF03137070BD254A137843F040031370224B1D8070BD22B3002321490B7001240F310C7004310B700C390B7803F07F030B701A4B1B7813F0080F00D08DB944
:401FC000194B18800721013B1970164B1B7813F0010FFAD110490B7803F0FE030B700021104B19700C4B1B7813F0010F0DD00E4B1D800EB1032200E001220A4B1A70094BEC
:402000001B7813F0010FFAD170BD044B1D8002490B7813430B7070BDA243004080400040824000400140004002400040014B188880B2704700410040034B1A7800F0F80002
:4020400010431870704700BF02410040024B187800F00700704700BF0241004070B505460E46FFF7F3FF0446FFF7E0FFA84256D02B4B1B7803F0010294B900B185B938B9B8
:40208000284B1D80284A137803F0BF03137070BD254A137843F040031370224B1D8070BD22B3002321490B70012413310C7004390B7008390B7803F07F030B701A4B1B785E
:4020C00013F0080F00D08DB9194B18800721013B1970164B1B7813F0010FFAD110490B7803F0FE030B700021104B19700C4B1B7813F0010F0DD00E4B1D800EB1032200E011
:4021000001220A4B1A70094B1B7813F0010FFAD170BD044B1D8002490B7813430B7070BDA143004000410040024100400140004002400040F0B583B016461F460B4C0A25A9
:4021400025700023019300932B460A4601462846FEF728FD3A4631462078FEF7FDFC02212078FEF7E7FC207803B0F0BDF481FF1FF0B583B016461F460B4D00242C7001940F
:40218000009423460A4601462046FEF70BFD3A4631462878FEF7E0FC02212878FEF7CAFC287803B0F0BD00BFF581FF1F054A137843F0080313701032137843F008031370C6
:4021C000704700BFA24300400230800803D000BF01380046FCD17047EFF3108072B6704780F31088704700BF18484FF47F0102680A43026016486FF07F4102680A40026054
:40220000704714484FF080510160704772B611484FF000610160FFF7D3F80F48006800F0C3F858B10C4800684FF080730B4A0C490FB40FB46FF00600004700BF6FF00600BF
:4022400062B6004762B600DF08B0704720ED00E01CED00E004ED00E0E88AFF1F8922000045220000EFF30880054908600548006880F3088870470248006880F30888704755
:40228000F681FF1FE081FF1F411C8900154A11440968154A136899421AD0F0B444464D4656465F46F0B400B5104C9B002344EFF308851D60116089002144096881F30888E7
:4022C00002BC8E46F0BCA046A946B246BB46F0BC002806DB00B500F05BF802BC8E46FFF7D3BF704788270000B082FF1FE481FF1FF0B444464D4656465F46F0B400B5EFF395
:40230000038308B48000174901440968164A0244EFF30883136088471448804704BC4FF08070024382F3038801BC8646F0BCA046A946B246BB46F0BC704780000A4901449B
:402340000A6882F3088804BC4FF08070024382F3038808BC9E46F0BCA046A946B246BB46F0BC704770270000E08EFF1F7123000008B572B6014B1868FFF7DFFFA081FF1FB2
:4023800008B5024B1868FFF7B3FF08BDA081FF1F08B562B6FFF7F4FF72B600F041F8014B186808BDE88AFF1F00280BDA20F000400130054B53F82000044B1B68181A18BF93
:4023C000012070470120704788270000B082FF1F054B53F82020054B53F820309A4201D101207047002070471481FF1F3427000008B5FFF723F8084B53F8203043B100222B
:40240000054B43F8202040F00040044B186008BD024B186008BD00BF8082FF1FE88AFF1F38B5364B1C680022354B1A60354A52F82430013342F82430334B53F8245020464C
:40244000FFF7C6FF012801D0A54204D103222F4B43F8242003E002222C4B43F824202C4B53F824102B4A136823EA010313602A4B53F82440214B1C60B5F1FF3F0FD0234B29
:4024800053F82530032B07D10222204B43F825200022224B43F825202846FFF735F8FFF711F8B0F1FF3F0BD1B4F1FF3F03D00022164B43F8242044F00044194B1C6038BD08
:4024C000184B53F82020134B1B689A4208D800220E4B43F8242044F00044114B1C6038BD00210A4A42F82010094A52F820201343084A1360FFF77CFF38BD00BFA081FF1FD7
:40250000D88AFF1F1481FF1FF080FF1FB081FF1F40270000AC82FF1FA481FF1F9882FF1FE88AFF1F64270000014B1868704700BF5C82FF1F0E4B70B51E460E4C0025E41AA5
:40254000A410A54204D056F8253098470135F8E700F090FB084B094C1E46E41AA4100025A54204D056F8253098470135F8E770BD802C0000802C0000802C0000882C0000C0
:4025800010B5431E0A44914204D011F8014B03F8014FF8E710BD03460244934202D003F8011BFAE77047000000000000035B00402443004040000000005100401000305128
:4025C00000404000C0510040100000000140001000140140000800400140000A004C01400002005001402000FF000101020202020303030303030303040404040404040440
:40260000040404040404040405050505050505050505050505050505050505050505050505050505050505050606060606060606060606060606060606060606060606064A
:4026400006060606060606060606060606060606060606060606060606060606060606060606060606060606070707070707070707070707070707070707070707070707C2
:40268000070707070707070707070707070707070707070707070707070707070707070707070707070707070707070707070707070707070707070707070707070707075A
:4026C0000707070707070707070707070707070707070707070707070707070707070707070707070707070701000000F026000000000000000000000200000000000000A9
:4027000000000000FFFFFFFF000000000000000000000000000000000000000010270000010000000000000000000000000000000100000001000000010000000100000061
:4027400080000000020000000400000001000000020000000400000008000000100000002000000001000000020000000400000051010000AD010000810100008123000067
:40278000812300008123000000000000000000000100000002000000616C726D5F6D61696E00000065765F70757368427574746F6E00000065765F735265636569766564D4
:4027C0000000000065765F73616D706C696E6746696E69736865640065765F73656E640065765F6F52656365697665640000000065765F726553616D706C650074736B5F42
:40280000696E69740000000074736B5F6261636B67726F756E64000074736B5F636F6E74726F6C008080818182828384848585868787888889898A8B8B8C8C8D8E8E8F8F91
:4028400090909192929393949595969697979899999A9A9B9B9C9C9D9E9E9F9FA0A0A1A1A2A3A3A4A4A5A5A6A6A7A7A8A8A9AAAAABABACACADADAEAEAFAFB0B0B1B1B2B2F7
:40288000B3B3B4B4B5B5B6B6B7B7B8B8B8B9B9BABABBBBBCBCBDBDBDBEBEBFBFC0C0C1C1C1C2C2C3C3C3C4C4C5C5C5C6C6C7C7C7C8C8C8C9C9CACACACBCBCBCCCCCCCDCDEA
:4028C000CDCECECECFCFCFD0D0D0D0D1D1D1D2D2D2D2D3D3D3D4D4D4D4D5D5D5D5D6D6D6D6D6D7D7D7D7D8D8D8D8D8D8D9D9D9D9D9DADADADADADADADBDBDBDBDBDBDBDB77
:40290000DCDCDCDCDCDCDCDCDCDCDDDDDDDDDDDDDDDDDDDDDDDDDDDDDDDDDDDDDDDDDDDDDDDDDDDDDDDDDDDDDDDDDDDDDDDDDDDDDDDDDDDCDCDCDCDCDCDCDCDCDCDBDBDB71
:40294000DBDBDBDBDBDADADADADADADAD9D9D9D9D9D8D8D8D8D8D8D7D7D7D7D6D6D6D6D6D5D5D5D5D4D4D4D4D3D3D3D2D2D2D2D1D1D1D0D0D0D0CFCFCFCECECECDCDCDCC21
:40298000CCCCCBCBCBCACACAC9C9C8C8C8C7C7C7C6C6C5C5C5C4C4C3C3C3C2C2C1C1C1C0C0BFBFBEBEBDBDBDBCBCBBBBBABAB9B9B8B8B8B7B7B6B6B5B5B4B4B3B3B2B2B13A
:4029C000B1B0B0AFAFAEAEADADACACABABAAAAA9A8A8A7A7A6A6A5A5A4A4A3A3A2A1A1A0A09F9F9E9E9D9C9C9B9B9A9A99999897979696959594939392929190908F8F8EDF
:402A00008E8D8C8C8B8B8A8989888887878685858484838282818180807F7E7E7D7D7C7B7B7A7A79787877777676757474737372717170706F6F6E6D6D6C6C6B6A6A6969CE
:402A4000686867666665656464636362616160605F5F5E5E5D5C5C5B5B5A5A595958585757565555545453535252515150504F4F4E4E4D4D4C4C4B4B4A4A49494848474794
:402A8000474646454544444343424242414140403F3F3E3E3E3D3D3C3C3C3B3B3A3A3A393938383837373736363535353434343333333232323131313030302F2F2F2F2EB7
:402AC0002E2E2D2D2D2D2C2C2C2B2B2B2B2A2A2A2A292929292928282828272727272727262626262625252525252525242424242424242423232323232323232323222214
:402B000022222222222222222222222222222222222222222222222222222222222222222222222222222223232323232323232323242424242424242425252525252525E6
:402B400026262626262727272727272828282829292929292A2A2A2A2B2B2B2B2C2C2C2D2D2D2D2E2E2E2F2F2F2F3030303131313232323333333434343535353636373707
:402B80003738383839393A3A3A3B3B3C3C3C3D3D3E3E3E3F3F404041414242424343444445454646474747484849494A4A4B4B4C4C4D4D4E4E4F4F505051515252535354E1
:402BC000545555565757585859595A5A5B5B5C5C5D5E5E5F5F6060616162636364646565666667686869696A6A6B6C6C6D6D6E6F6F70707171727373747475767677777861
:402C000078797A7A7B7B7C7D7D7E7E7F80848A8F94989EA2A8ACB2B6BCC0C6CAD0D5DADEE4E8EEF2F8FCF8F2EEE8E4DEDAD4D0CAC6C0BCB6B2ADA8A29E98948F8A84807AAE
:402C400076706B66615D58534E49443E39342F2A25211C17120D0803080D12171C21252A2F34393E44494E53585D61666B70767A43000000F8B500BFF8BC08BC9E467047D7
:402C80004D000000390A0000F8B500BFF8BC08BC9E46704729000000A82C0000C880FF1F9801000098100000000000007F800000070400000000E02EC05D00001800000014
:402CC00000366E019827000000000000FFFFFFFFFFFFFFFFFFFFFFFFFFFFFFFF0100000002000000FFFFFFFF0000000001000000020000000100000001000000010000007B
:402D0000FFFFFFFFFFFFFFFFFFFFFFFFFFFFFFFFFFFFFFFFFFFFFFFFFFFFFFFFFFFFFFFFFFFFFFFFFFFFFFFFFFFFFFFFFFFFFFFFFFFFFFFFFFFFFFFFFFFFFFFFFFFFFFFFD3
:402D4000FFFFFFFFFFFFFFFFFFFFFFFFFFFFFFFFFFFFFFFFFFFFFFFFFFFFFFFFFFFFFFFFFFFFFFFFFFFFFFFFFFFFFFFFFFFFFFFFFFFFFFFFFFFFFFFFFFFFFFFFFFFFFFFF93
:402D8000FFFFFFFFFFFFFFFFFFFFFFFFFFFFFFFF030000000300000003000000A4270000B4270000C4270000D8270000E0270000F0270000FC2700000828000018280000D9
:402DC000F492FF1F00000000C890FF1FAC8EFF1FFFFF01FFFFFF0000000000000000000000000000000000000000000000000000000000000000000000000000702C0000C9
:402E0000000000000000000000000000000000000000000000000000000000000000000000000000000000000000000000000000000000000000000000000000FC81FF1FF7
:402E40000000000000000000000000000000000000000000000000000000000000000000000000000000000000000000000000000000000000000000000000000000000052
:402E80000000000000000000000000000000000000000000000000000000000000000000000000000000000000000000000000000000000000000000000000000000000012
:402EC00000000000000000000000000000000000000000000000000000000000000000000000000000000000000000000000000000000000000000000000000000000000D2
:402F00000000000000000000000000000000000000000000000000000000000000000000000000000000000000000000000000000000000000000000000000000000000091
:020000040003F7
:0200000480007A
:4000000001520040015A00400364004001010140030501404F0A01404C0B0140620C0140470D0140440E0140360F01400D400140064101400B42014003430140064401401A
:40004000074501400A46014006480140034901400350014002510140140187018A0F8B388F72E040E002E208EA02001002AC040C050206710B020D010E03100912D014DCE9
:40008000162221022620270228142B022C102E40301F330134E0370238083A203E043F445401580459045B045C015D105F01840C850189018A019202960498019E02A0016A
:4000C000A101A501A601A808AC0CB001B202B301B40CB822BA80BE14BF04C002C604C9FFCA07CBFFCC40CD20CEF0CF05D008D418D604D804D904DA04DB04DC01DD11DF01EE
:40010000E040E1A8E240E3200044034004880608070108080A400C040D060E040F22102011801204144815A016211740184C1B081D221F842244260428082A012B102C4097
:400140002E042F9038A83D283E28452054205540575059105A885B015E026402678887408B0890A091A09240932094449508980299109A049C449E08A114A201A301A604B0
:40018000A740AA40B40AB504B701C06DC2FCC4F7CAC7CE6ED020D68FD8B0E002EA02EC0102080407051808060A010E0815101601170C18011A061C04200724022702280677
:4001C00029182D082F15310632083518360737013E043F014036410442054401460C47E0482449FF4AFF4BFF4C624DA04EF04F41500C580459045A045C115D015F016640DC
:40020000670269106A306B106D106E106F12840485018601870E8801890C8A068B038C088D018F06930C940296019703A308A407A807B008B207B50FBB20BE01C013C1025E
:40024000C6CEC70BC81CC9FFCAFFCBFFCEF0CF44D00CD804D904DA04DC11DD01DF01E6C0EA40EB02004002200308040805C0064808080C900F2010281440171819081A8050
:400280001B081D4421102620274529102A102B402C082D082F01300433023704380439A03E0440044144446047404D804F20505052145640570164306720900891809244A7
:4002C00093209404952097029B189C4C9E109F05A0A8A114A201A312A604A708B240B312B748C0F7C2E4C476CA71CC43CE4ED0DED230040105030704090A0A010B04130807
:40030000140217051C011D031F0C2404280429032B042C0430033404370F38023B80580459045C115F018110840C851C87E188028BE38C038D088E0C900393049580960360
:40034000980C99189A039C089DE79F18A00FA1FFA404A51CA7E2A801A9C0AC0FAD44B1C0B338B40FB51FBA20BB28D602D712D804D904DB04DC11DD10DF01000401100716B8
:40038000080409800C800D200F60102811801448160117081A401B121F1021C02408253426012A102C402E082F0930043180330236403715380439303D083E023FA0451094
:4003C00046085E086C286D806E04748076027718810482018B48C0E6C2F5C4F7CAF4CCFBCEF6D640E0401280300233803680370138083F806C046E088E04C410CCF0CE604F
:4004000011409F01A402A604A7C0C44084028701A402A604A740A940AB80AF01E040E210EA409F01A604A74033807F108F80CC08DE01E00201080F0452209720C008C201E4
:40044000D404450885088B109720AA20AF04B508D001E004EA02260427019F01A604A740C8A01B40A740C64000020C020E0200FF100A00000000000000003000001B1B00CB
:4004800000000000820081626200020000000000BB001801000A00000000000000000000000000000000000000000000000000000000000000000000000000000000000095
:4004C00000000000000000000000000000000000000000000000000000000000000000000000000000000000000000000000000000000000000000000000000000000000FC
:4005000000000000000000000000000000000000000000000000000000000000000000000000000000000000000000000000000000000000000000000000000000000000BB
:40054000000000000000000000000000000000000000000000000000000000000000000000000000000000000000000000000000000000000000000000000000000000007B
:40058000000000000000000000000000000000000000000000000000000000000000000000000000000000000000000000000000000000000000000000000000000000003B
:0200000490006A
:0400000000004005B7
:0200000490105A
:04000000BC90ACAF55
:0200000490303A
:02000000976007
:0200000490402A
:4000000000000000000000000000000000000000000000000000000000000000000000000000000000000000000000000000000000000000000000000000000000000000C0
:400040000000000000000000000000000000000000000000000000000000000000000000000000000000000000000000000000000000000000000000000000000000000080
:400080000000000000000000000000000000000000000000000000000000000000000000000000000000000000000000000000000000000000000000000000000000000040
:4000C0000000000000000000000000000000000000000000000000000000000000000000000000000000000000000000000000000000000000000000000000000000000000
:0200000490501A
:0C00000000012E16006900012E2897C98F
:00000001FF