:400000000080002011000000D10E0000D10E000008B5044B1A6803F53F5302331A6000F077FF00BFFA46004010B5054C237833B9044B13B10448AFF300800123237010BD43
:400040007082FF1F00000000045A0000084B10B51BB108490848AFF300800848036803B910BD074B002BFBD0BDE81040184700BF000000007482FF1F045A0000C880FF1FF4
:400080000000000008B5002001F07CFA08BD00BF684620F007018D4619B572B6EFF311841E4B1B68DBB20F2B10D9103B23F0030202F1604202F564421168DB0003F01803DF
:4000C000E0229A400A4022FA03F306E00F2B03D1134B1B681B0E00E0002383F31188114A136801331360012B01D102F063FA62B6FFF7C8FF72B684F3118801F03DFC094A64
:400100001368013B13601BB902F05DFA02F021FA62B6BDE819408546704700BF04ED00E020ED00E0300F002008B562B645F6BF52054B1A60054A136843F002031360002077
:4001400001F008FDFBE700BF14E000E010E000E008B5094800F000FA01F060FD074A136843F005031360022001F05AF8012001F057F801F035FD08BDE082FF1F10E000E086
:4001800000B583B00023019340F2FB1001F020FB01A9022001F07CFA019801F04BFA0199014800F0EDF9EFE7E082FF1FFEE700BF08B501F0F5FDC0B2732804D102210846AF
:4001C00001F086FA08BD6F2804D11021022001F07FFA08BD742804D18021022001F078FA08BD6E2804D14FF48071022001F070FA08BD00BF684620F007018D4619B572B650
:40020000EFF311841E4B1B68DBB20F2B10D9103B23F0030202F1604202F564421168DB0003F01803E0229A400A4022FA03F306E00F2B03D1134B1B681B0E00E0002383F305
:400240001188114A136801331360012B01D102F0B1F962B6FFF7ACFF72B684F3118801F08BFB094A1368013B13601BB902F0ABF902F06FF962B6BDE819408546704700BFCE
:4002800004ED00E020ED00E0300F002008B50421022001F01DFA08BD684620F007018D4619B572B6EFF311841E4B1B68DBB20F2B10D9103B23F0030202F1604202F5644219
:4002C0001168DB0003F01803E0229A400A4022FA03F306E00F2B03D1134B1B681B0E00E0002383F31188114A136801331360012B01D102F05FF962B6FFF7C8FF72B684F31B
:40030000118801F039FB094A1368013B13601BB902F059F902F01DF962B6BDE819408546704700BF04ED00E020ED00E0300F002008B50121022001F0CBF908BD684620F0B5
:4003400007018D4619B572B6EFF311841E4B1B68DBB20F2B10D9103B23F0030202F1604202F564421168DB0003F01803E0229A400A4022FA03F306E00F2B03D1134B1B6895
:400380001B0E00E0002383F31188114A136801331360012B01D102F00DF962B6FFF7C8FF72B684F3118801F0E7FA094A1368013B13601BB902F007F902F0CBF862B6BDE8FB
:4003C00019408546704700BF04ED00E020ED00E0300F002008B54FF47A7000F0D5FE4021022001F075F908BD684620F007018D4619B572B6EFF311841E4B1B68DBB20F2B39
:4004000010D9103B23F0030202F1604202F564421168DB0003F01803E0229A400A4022FA03F306E00F2B03D1134B1B681B0E00E0002383F31188114A136801331360012BEB
:4004400001D102F0B7F862B6FFF7C4FF72B684F3118801F091FA094A1368013B13601BB902F0B1F802F075F862B6BDE819408546704700BF04ED00E020ED00E0300F0020C5
:40048000684620F007018D4619B572B6EFF311841D4B1B68DBB20F2B10D9103B23F0030202F1604202F564421168DB0003F01803E0229A400A4022FA03F306E00F2B03D178
:4004C000124B1B681B0E00E0002383F31188104A136801331360012B01D102F06BF862B672B684F3118801F047FA094A1368013B13601BB902F067F802F02BF862B6BDE81C
:4005000019408546704700BF04ED00E020ED00E0300F002008B500F063FA00F067FA00F051FB002008BD00BF08B5012808D010B102280AD00DE00121002000F017FA08E02E
:400540000021084600F012FA03E00021084600F00DFA002008BD00BF38B50546FFF7DAFF00242C702046FFF7DFFF6C70AC70EC702C71024800F0F0F8204638BDF082FF1F24
:400580002DE9F843814688460378012B14D013B1022B75D0D5E011F0010F00F0D2800121002000F0BDFA012000F010FB012089F80000FFF7B9FFC4E011F0020F01D001238C
:4005C000C37018F0040F15D00021084600F0A8FA99F803301BB92021022001F079F899F80330012B06D1002389F803300821022001F06EF818F0200F03D00121002000F0EE
:400600008FFA18F0080F00F09C800021084600F087FA4D4D4FF4806229464C4802F02CF94B4C204600F0ACF822464A49284600F0C9F844F20803E35C23B10121022000F01A
:4006400095F903E00021022000F090F9022089F80000FFF769FF00240EE03C4B33F81400050AC0B201F0A6FB284601F0A3FB4021022001F02DF80134B4F5806FEDDB60E0F6
:4006800011F0400F23D00021012000F049FA4FF480622D492D4802F0EFF8002414E02A4B53F82400050EC0F30746C0F30727C0B201F080FB384601F07DFB304601F07AFB08
:4006C000284601F077FB0134B4F5006FE7DB18F0100F28D00021022000F022FA99F801300133DBB289F80130092B09D8012089F80000FFF719FF2021022000F0E9FF12E085
:400700000A2B10D1002489F800402046FFF70CFF204600F05BFA89F8014089F8024089F8034089F8044018F4807F03D00121032000F01CF918F0800F03D00021032000F0D8
:4007400015F90020BDE8F88324C7FF1F24E7FF1F1083FF1FF082FF1F07A3D3E90023C0E90223022303744FF4806303800A234374704700BFAFF30080FCA9F1D24D62503FFA
:4007800030B44FF480630380002344F20802835412E0591C00EBC10200240025C2E9004503F2014200EBC202C2E900450344002444F209029C540B46B3F5806FE9DB30BC19
:4007C000704700BF2DE9F04F87B082468B469046487C04F0F5FC04460D4602460B460020604904F07DFE02460B46DBE9020103F0BBFA00225C4B04F095FB02460B4620461D
:40080000294604F043FDCDE904014FF0000927E04FEAC9045AF8390004F0D2FC06460F465444606804F0CCFC04460D4632463B463046394604F02AFD06460F4622462B46DB
:400840002046294604F022FD02460B463046394604F06AFB09F1010908EBC903C3E90001BBF800309945D3DB9BF811509BF810301D44013567E0C9EB0A03C8EB03035B440C
:40088000013304EBC303D3E90023DDE9000104F04BFBCDE900010AEB080301335B44013304EBC303D3E900233046394604F03CFB06460F460BF1010B0AE0002400260027F9
:4008C000CDE90067CDF80CB0A3464446D046AA46CB45D0DB5546DDF80CB0A04632463B46DDE9000104F020FB06460F46484604F067FC02460B4604F017FB02460B46304611
:40090000394604F0EDFD02460B46DDE9040104F0BDFC0AF2014304EBC303C3E900016B1C04EBC303D3E9002304F022FF50B104EB0A03012144F20902995444F20802A35CEB
:400940000B44A3540135BBF800309BF81190C9EB03039BF810A0CAEB03039D42ADDD07B0BDE8F08F0000F0BF0000F03F38B504460D4605282ED8DFE800F0030A11242D1F08
:40098000084601F0B7F9154B1D55002038BD084601F0A4F9114B1D55002038BD084601F091F90E4B1D55002038BD29462046FFF7DDFF0134E4B200E00024042CF5D9002065
:4009C00038BD0220FFF7D2FF29460120FFF7CEFF002038BD6FF0130038BD00BF8C82FF1F08B501F0C1F9002008BD00BF70B541F6FF734FF480420121022001F015FD404EAB
:400A0000307000F083FB3F4D28700623FE224FF4006100F095FB3C4CA4B2224644F61061287800F0A1FB2978307800F041FB4FF4804341F6FF720121022001F013FD334E11
:400A4000307000F063FB324D28700523FE224FF4006100F075FB46F24D422146287800F083FB2978307800F023FB4FF4804341F6FF720121042001F021FD264E307000F08B
:400A800045FB254C207000F041FB607000F03EFBA0700123627840F6FC71207800F050FB0123A27840F6FC71607800F049FB0523FE220821A07800F043FB184DADB246F2AC
:400AC0004D422946207800F04FFB05F6FC7146F24D4289B2607800F047FB05F5FF51183146F24D4289B2A07800F03EFB2178307800F0DEFA01F0D4FC01F0FEFC002070BDDA
:400B00000883FF1FE882FF1F24E7FF1FED82FF1FEC82FF1F20C7FF1F0C83FF1F24C7FF1F10B5012813D010B102281FD038E0012905D1204B187800F061FA002010BD002968
:400B400031D11C4B187800F075FA002010BD012905D1194B187800F051FA002010BD21BB154B187800F066FA002010BD01290BD1124C134B1978207800F09AFA01212078E2
:400B800000F03CFA002010BD89B90C4C0C4B1978207800F08DFA207800F04CFA002010BD6FF0130010BD002010BD002010BD002010BD00BF0883FF1FED82FF1F20C7FF1FD6
:400BC0000C83FF1F08B501F0E5FA08BD08B5012802D101F0F3FA02E008B901F0F7FA002008BD00BFFEE700BFF0B40022174611E050F82760F3B226F0FF0608E001EB4205D4
:400C000011F812406D78A5550132013BDBB2002BF4D101371A2FEBD9F0BC70470A4B1B78DBB203F00701094A11701B09013213702022074B1A70022203F603131A70442287
:400C4000A3F28A231A707047CF0100496E580040FD51004008B50A46002104F00EFE08BD08B504F0FFFD08BD38B50024344B1C80502202331A70192502331D801823314ABC
:400C8000137045F6BF5102321180023213704BF67F31023211800232137004222A492B48FFF7DEFF02222A4B1A7008224FF040231A70032103F500731970264B1B78DBB27C
:400CC00025490B70254B1A8041F25122023B1A800CE0234B1B7803F0010343EA440404F003044FF4F07001F017FC013D0DB1032CEFD115B90320FFF775FF1A4B4FF48072A9
:400D00001A8007221A70002217490A704820023108701A700222033B1A7004220A331A70124A137843F00F031370013A137843F001031370013A137843F08003137038BDD1
:400D400080400040864000407C040048004100400043004008010049A146004022420040254200400440004006400040A2430040012807D8044B53F820201844017A13786A
:400D80000B431370704700BF085A0000012808D8044B53F820201844017A137823EA010313707047085A000038B572B6334A137843F00403137000240BE0314863001A19A0
:400DC000510001440A46098AD068FFF743FF0134E4B2072CF1D92B494FF09040FFF704FF0A25294B1D7004212848FFF733FF042227492848FFF734FF042227492748FFF7AF
:400E00002FFF274A137843F0020313701032137843F002031370234C237843F040032370A2F58632513A137843F01003137008221D491E48FFF714FF08221D491D48FFF71A
:400E40000FFF2A461C491D48FFF70AFF1C4A137843F0080313701B4D61232B70FFF704FF81232B700122184B1A70FFF7D7FE0E2221461648FFF7F4FE38BD00BFE8460040E0
:400E8000085A00006C00004883580040007600408004004850760040840400480876004003500140A043004060040048F25100406804004812510040700400482051004041
:400EC000224300400048004004000840B043004008B504F08BFC03680C2B00D1FEE7FEE708B5094B1A681044084BC31AB3F5005F02DC054B186005E004F078FC0C2303602E
:400F00004FF0FF32104608BDCC80FF1F7033002008B5104E104D16E029686B68AC68002204E051F8040B43F8040B0432A242F8D1E868002203E0002143F8041B04328242BE
:400F4000F9D11035013E002EE6D104F055FCFFF7EBF8FEE701000000205B020008B5114A114B1A60114A136843F40073136000230AE0032B03D80E4A52F8231000E00D49BB
:400F80000D4A42F8231001332F2BF2D90B4B1A780B4B1A70084A0B4B1A60FFF705FF00F013F808BD0004FA050CED00E014ED00E000000000D10E00000080FF1FBC760040C4
:400FC000C080FF1F08ED00E00B4A7F2313708021517007E0DA0002F1804202F5F042013BDBB21370002BF5D1DB0003F1804303F5F04300221A707047D080FF1F172815D84C
:4010000031B103010A495A5C42F020025A5405E0030107495A5C02F0DF025A540001044A835C43F00103835400207047012070471070004017280BD80001064BC25C02F020
:40104000FE02C254C25C02F0DF02C25400207047012070471070004017280BD80001064A835C03F0F103490001F00E011943815400207047012070471070004041F6FF7319
:40108000994201D14FF4005141F6FF739A4201D14FF40052172808D8C00000F1804000F5EC408180C280002070470120704700BF172805D8034B03EB0010417200207047AF
:4010C000012070471070004017281BD810B4C00000F1804404F5EC44D201D2B201F07F01114321709DF804201201D2B203F00F03134363709DF8083003F00F03A370002094
:40110000E07001E00120704710BC704710B501F00BFA0A4B5B78182B0BD9084A1478013B5370E30003F1804303F5F0431B78137000E0FF2401F0FCF9204610BDD080FF1FD7
:4011400010F0800F0CD111F4704F0BD1C00000F1804000F5F04001808270C37000207047012070470120704710F0800F08D1C00000F1804000F5F0408180C2800020704788
:401180000120704701BE704710B5044605E0084B186801F0C1F9A4F50044B4F5004FF6D8034B586800FB04F001F0B6F910BD00BFD880FF1F08B5034B1B7A00FB03F001F0AE
:4011C000ABF908BDD880FF1F70B504460E46074B1D681F2802D90020FFF7D4FF04F01F04103455F8240045F8246070BD08ED00E038B504460D46072902D90020FFF7C2FF70
:401200001F2C02D90020FFF7BDFF04F01F0000F1604000F564406D01EDB2057038BD00BF38B5EFF3108572B602284ED82D4B53F82030002B4BD02B4A013B42F820302A4B5E
:4012400053F82030032B07D10222274B43F820200022264B43F8202000F0FEFB244B1B68002B36D1234B1C6800F0D4FBB0F1FF3F31D0214B53F82020204B1B689A422CD94A
:40128000B4F1FF3F03D00221174A42F824101C4A52F820201343194A13600022124B43F8202000F073FB174B53F820304BB10024144B43F8204040F0004001F08DF92046AE
:4012C0000CE001F089F9002008E0032006E0042004E0002002E0002000E0002085F3108838BD00BF1881FF1FB481FF1FAC82FF1F300F0020A481FF1FCC5B0000C082FF1F11
:401300009C5B00009482FF1F18B108B5C368984708BD704708B508B1406800E00020022816D80C4B53F8203093B10A4A013B42F82030094B53F82030032B07D10222064B86
:4013400043F820200022054B43F8202000F084FB08BD00BF1881FF1FB481FF1FAC82FF1F18B1034640689B6801E00023184602281DD80F4A52F82020CAB10E4A52F820104E
:40138000032914D010B50C4C54F820201A4344F820200A4A52F82020134207D0012905D10222044B43F8202000F056FB10BD7047845B0000B481FF1FAC82FF1FA082FF1F20
:4013C00080B108B50378012B06D013B1032B06D008BDFFF79FFF08BDFFF7C2FF08BDFFF793FF08BD704700BF30B400EB40029300214AD258214B03EBC2035C68B4F1FF3F5E
:4014000004D11E4B03EBC20250602DE01C4B03EB04139B6899420AD2184D05EBC2025060174A02EB04125B1A93601DE01C46144B03EB04139A68891ADB68B3F1FF3F05D0E2
:401440000F4A02EB031292689142EFD2B3F1FF3F05D00B4A02EB031295686D1A9560084A02EB0414E0601C46054B03EB00108160C46030BC704700BF645B0000EC80FF1F05
:40148000502F002038B5394A02EBC0035C6852F83030013342F8303000EB40018A0034498A58934203D90022304B43F83020B4F1FF3F59D02F4B03EB04139B68002B4ED16B
:4014C000214600E019462B4B03EB0113DB68B3F1FF3F05D0274A02EB03129268002AF1D0244A02EB01114FF0FF32CA601F4A02EBC0004360B3F1FF3F07D01E4A02EB031398
:401500009A68013A9A6000E02C4604EB44029300194A13441B7A7BB904EB44029300164A13445A68154B53F8223003EB83039A0013481044FFF744FF0E4B03EB0413DD6800
:40154000596821B101392046FFF74EFF03E024010022084B1A51B5F1FF3FD5D138BD054A02EB0414013BA36038BD00BFEC80FF1F785B0000502F0020645B0000745B0000BD
:40158000505B000038B5EFF3108572B6002838D1FFF778FF204B1B68002B34D11F4B1C6800F038FAB0F1FF3F2FD01D4B53F820201C4B1B689A422AD9B4F1FF3F03D00221B5
:4015C000194A42F82410194A52F820201343154A13600022144B43F8202000F0D7F9144B53F820304BB10024114B43F8204040F0004000F0F1FF20460AE000F0EDFF00209C
:4016000006E0032004E0002002E0002000E0002085F3108838BD00BF300F0020A481FF1FCC5B0000C082FF1FB481FF1F9C5B00009482FF1FEFF3108372B6114A1168114A64
:40164000126882B9B1F1FF3F0FD00F4A52F821206AB110B40D4C54F8212022EA000044F82100002007E0022002E0022000E0012083F31088704783F3108810BC704700BFA1
:40168000A481FF1F300F0020845B0000AC82FF1F02280FD80B4B53F820306BB10A4B53F82030032B0AD059B1084B53F820300B60002070470320704701207047072070477D
:4016C0000E207047845B0000B481FF1FAC82FF1F38B5EFF3108472B6022853D8324B53F82030002B50D0314B53F82030032B4DD02F4D55F820200A4345F820202D4A52F84E
:401700002020114244D0012B44D10222274B43F8202000F0A1F9284B1B68002B3CD1274B1D6800F077F9B0F1FF3F37D0244B53F82020244B1B689A4232D9B5F1FF3F03D031
:4017400002211A4A42F825101F4A52F8202013431C4A13600022154B43F8202000F016F91A4B53F820304BB10025184B43F8205040F0004000F030FF284612E000F02CFF1C
:4017800000200EE003200CE001200AE0072008E0002006E0002004E0002002E0002000E0002084F3108838BD845B0000B481FF1FAC82FF1FA082FF1F300F0020A481FF1F62
:4017C000CC5B0000C082FF1F9C5B00009482FF1F38B5EFF3108472B6364B1D68364B1B68002B5DD1B5F1FF3F5CD0344B53F82530002B59D0324B53F82530034256D1314BC1
:4018000043F825000122304B43F825202F4B53F825002F490B6823EA00030B602D4B43F825202D4B53F82520224B1A6000F0F2F8B0F1FF3F06D0294B53F82020244B1B6873
:401840009A420DD81B4B1868B0F1FF3F03D000221D4B43F8202040F0004000F0BDFE1AE00021194A42F82010184A52F820201343174A136000F08AF8164B53F8203043B18F
:401880000022144B43F8202040F0004000F0A4FE01E000F0A1FE00200A4B43F8250006E0022004E0022002E0012000E0002084F3108838BDA481FF1F300F0020845B00004F
:4018C000AC82FF1FA082FF1FB481FF1F9C5B0000C082FF1F9482FF1FA881FF1FCC5B000008B500F053F8084B53F8203043B10022054B43F8202040F00040044B186008BD4D
:40190000024B186008BD00BF9482FF1F340F002010B500F07FF8124B1B68B0F1FF3F1AD0104A52F82010104A1268914213D9B3F1FF3F03D002240D4941F8234000210B4B47
:4019400043F820100A4B53F820301A43064B1A60FFF7C6FF10BD43F00043064A136010BDA481FF1FCC5B0000C082FF1FB481FF1F9C5B0000340F0020034B1B6813B1002228
:40198000014B1A60704700BF240F0020F0B4184B19880B0A174AD356B3F1FF3F01D1535601E008335BB2144D55F82320134850F82200134E56F8224045F82340114D2F686F
:4019C00046F822702A60B4F1FF3F09D10E4A42F82340012202FA03F321EA0301044B19800A4B19680A4A42F820101860F0BC7047BC82FF1F445A00006481FF1F382F0020DC
:401A00000081FF1FB882FF1F2481FF1FA481FF1FA881FF1F0C4B1A88130A0C49CB56B3F1FF3F01D18B5601E008335BB2B3F1FF3F06D0074A52F82320064B53F8220070470D
:401A40004FF0FF30704700BFBC82FF1F445A00006481FF1F382F002030B4144B53F82020134C2368134951F823502560124C44F823004FF0FF3441F82340104951F822100A
:401A8000A1420AD10E4951F820400E480188214301800D4941F8223002E0064840F82130064941F8223030BC704700BF0C81FF1FB882FF1F0081FF1F382F00202481FF1FE2
:401AC000CC5B0000BC82FF1F6481FF1F10B150F8210070474FF0FF30704700BF0122014B1A60FEE72C0F002070B50546124B53F8306000241CE0104B03EBC5032146586872
:401B0000FFF7E4FF0D4A52F82030013B42F820300B4B53F82030032B07D10222084B43F820200022074B43F82020FFF795FF0134B442E0D370BD00BF445B00001881FF1F93
:401B4000B481FF1FAC82FF1F18B908B5FFF7CCFF08BD7047194B1A4ADA621A4A9A631A4ADA63EFF3108272B6184B1B6813BB10B5044600F053F8164B1C600122134B1A6083
:401B80002046FFF7E1FFFFF745FFB0F1FF3F0ED0104B53F82030104A11680B43136000220E4B43F82020FFF7F1FE00F015FD62B6FFF794FF82F31088072070470080FF1F61
:401BC000992500005D250000910000002C0F0020602F00209C5B0000C082FF1FB481FF1F08B5EFF3108272B6094B1968094B1B6833B94FF0FF30084B43F82100002000E052
:401C0000022010B9084600F040FD82F3108808BDA481FF1F300F0020F480FF1F70B5214B1D68EFF3108672B600F086FC1E4A136843F07F4313601D4B2B6401210020FFF796
:401C4000D7FA1B4C236843F001032360194B2B6501210420FFF7CCFA236843F010032360154BEB6401210320FFF7C2FA236843F008032360114B6B6401210846FFF7B8FA68
:401C8000236843F0020323600D4BAB6401210220FFF7AEFA236843F00403236086F3108870BD00BF08ED00E020ED00E09902000000E100E03D030000F50100008104000077
:401CC000E9030000044A137803F0BF03800100F0400018431070704720510040044A137803F0DF03400100F0200018431070704720510040044A137803F0EF03000100F085
:401D00001000184310707047205100407222074B1A70202204331A700622643B1A70472210331A70032252331A7070478B64004010B500F0F9FB04460A4A137843F0200314
:401D400013700432137843F010031370023A137843F01003137000F039F8204600F0E8FB10BD00BF9B64004008B5054B1B7823B9FFF7CCFF0122024B1A70FFF7D9FF08BDD7
:401D8000C882FF1F014B1878704700BF4C640040024B187800F07F00704700BF6F64004010B5FFF7F5FF0402FFF7ECFF204380B210BD00BF034B1B7813F0040FFAD1024BDE
:401DC000187070476D6400404D640040054A137843F0020313701032137843F002031370704700BFA243004010B59DF80840012C51D1013809282ED8DFE800F0052D2D056E
:401E00002D2D0F192D230F2B03D92548007840B222E02448007840B21EE00F2B03D92248007840B218E02148007840B214E00F2B03D91F48007840B20EE01E48007840B2BF
:401E40000AE00F2B03D91C48007840B204E01B48007840B200E0002001EB401101FB02F1C90B8AB20D2B0BD8C3F10E0289B211418AB2611E124800EB810101338B7005E0A5
:401E8000631E0F4901EB83030F219970013C0C4B23F8242010BD0020FFF774F910BD00BF180100491C010049190100491D0100491A0100491E0100491B0100491F010049A3
:401EC000CC82FF1FF8B5074600F02EFB06460D4D2B7843F003032B700B4C237843F0030323700A4B1F700320FFF764F92B7803F0FC032B70237803F0FC032370304600F078
:401F000017FBF8BDF8460040F94600409258004038B500222F4B1A7101285AD138222E4B1A70042202331A70062201331A70002401331C7001331C703F2201331A7002332B
:401F40001C7001331C7001331C7001250A331D70502203F527631A700A23204A13702C210132117001321470442103321170482101321170013215700232147001321470B6
:401F8000013213704322164B1A705220FFF79AFF5822144B1A7001331C700223124A137001321370114B1C7001331C70204600F027F943F233320E4B1A602946052000F02E
:401FC00043F92946BA2000F0C3F90A491D20FFF7FBF838BDCC82FF1F004E00408558004091580040945800409A5800409C58004064330020DD210000F0B583B0284D012746
:402000002F70284E00247471102000F00BF9102000F08CF907211D20FFF7EAF80422224B1A7001331C7007331C70204A137843F0180313701E4B1C7003F2F5231C70013351
:402040001C700A22A3F209331A7001331C7002331C705B2205331A705E2201331A7004331C701422A3F68C231A70009710234FF4004248F6F0510220FFF7B6FE2B78013B0B
:4020800006EB83039A780B4B1A702B78013B36F82320094B1A802878FFF73AFF03B0F0BDFC81FF1FCC82FF1F96580040075B0040935800400E4E00400C4E004070B500F0FD
:4020C00033FA06462A4B1B782A4B1A7842F001021A701A7842F010021A7010331A7842F001021A701A7842F010021A70224D2B7843F002032B70214C237843F0020323708D
:402100001F4A137843F0030313700320FFF752F82B7803F0FD032B70237803F0FD032370184A137843F0060313707A22164B1A70164A137843F0010313701032137843F062
:40214000010313700F3A137843F0010313701032137843F0010313704FF000530C4A1360A2F5C0721360304600F0E2F970BD00BFFC81FF1FAA430040F8460040F94600403A
:40218000915800407758004082580040A143004080E200E008B5084B9B794BB9064BDB7913F0FF0F01D1FFF727FF0122024B9A71FFF784FF08BD00BFCC82FF1F024A1378E0
:4021C00043F0010313707047004E0040024A137803F0FE0313707047004E0040704700BF10B5002404E02046FEF7D0FD0134E4B2012CF8D9FF22014B1A7010BDFD81FF1FB9
:4022000010B50446FFF7ECFF2046FEF7B1FD014B1C7010BDFD81FF1F014B188880B2704780400040034B1A7800F0F80010431870704700BF82400040024B187800F00700A0
:40224000704700BF8240004070B505460E46FFF7F3FF0446FFF7E0FFA84256D02B4B1B7803F0010294B900B185B938B9284B1D80284A137803F0BF03137070BD254A137873
:4022800043F040031370224B1D8070BD22B3002321490B7001240F310C7004310B700C390B7803F07F030B701A4B1B7813F0080F00D08DB9194B18800721013B1970164B56
:4022C0001B7813F0010FFAD110490B7803F0FE030B700021104B19700C4B1B7813F0010F0DD00E4B1D800EB1032200E001220A4B1A70094B1B7813F0010FFAD170BD044B46
:402300001D8002490B7813430B7070BDA243004080400040824000400140004002400040014B188880B2704700410040034B1A7800F0F80010431870704700BF0241004018
:40234000024B187800F00700704700BF0241004070B505460E46FFF7F3FF0446FFF7E0FFA84256D02B4B1B7803F0010294B900B185B938B9284B1D80284A137803F0BF03C7
:40238000137070BD254A137843F040031370224B1D8070BD22B3002321490B70012413310C7004390B7008390B7803F07F030B701A4B1B7813F0080F00D08DB9194B1880F1
:4023C0000721013B1970164B1B7813F0010FFAD110490B7803F0FE030B700021104B19700C4B1B7813F0010F0DD00E4B1D800EB1032200E001220A4B1A70094B1B7813F04E
:40240000010FFAD170BD044B1D8002490B7813430B7070BDA143004000410040024100400140004002400040F0B583B016461F460B4C0A2525700023019300932B460A46F2
:4024400001462846FEF740FE3A4631462078FEF715FE02212078FEF7FFFD207803B0F0BDFE81FF1FF0B583B016461F460B4C012525700023019300932B460A460146284631
:40248000FEF722FE3A4631462078FEF7F7FD02212078FEF7E1FD207803B0F0BDFF81FF1F054A137843F0080313701032137843F008031370704700BFA2430040F0B583B0CF
:4024C00016461F460B4D00242C700194009423460A4601462046FEF7F7FD3A4631462878FEF7CCFD02212878FEF7B6FD287803B0F0BD00BF0082FF1F054A137843F0040358
:4025000013701032137843F004031370704700BFA2430040000000000230800803D000BF01380046FCD17047EFF3108072B6704780F31088704700BF18484FF47F01026845
:402540000A43026016486FF07F4102680A400260704714484FF080510160704772B611484FF000610160FFF7D3F90F48006800F0C3F858B10C4800684FF080730B4A0C498F
:402580000FB40FB46FF00600004700BF6FF0060062B6004762B600DF08B0704720ED00E01CED00E004ED00E0340F0020D925000095250000EFF30880054908600548006869
:4025C00080F3088870470248006880F3088870470182FF1FF081FF1F411C8900154A11440968154A136899421AD0F0B444464D4656465F46F0B400B5104C9B002344EFF340
:4026000008851D60116089002144096881F3088802BC8E46F0BCA046A946B246BB46F0BC002806DB00B500F05BF802BC8E46FFF7D3BF7047F05B0000C482FF1FF481FF1FF0
:40264000F0B444464D4656465F46F0B400B5EFF3038308B48000174901440968164A0244EFF30883136088471448804704BC4FF08070024382F3038801BC8646F0BCA0467E
:40268000A946B246BB46F0BC704780000A4901440A6882F3088804BC4FF08070024382F3038808BC9E46F0BCA046A946B246BB46F0BC7047D85B0000442F0020C1260000DA
:4026C00008B572B6014B1868FFF7DFFFA481FF1F08B5024B1868FFF7B3FF08BDA481FF1F08B562B6FFF7F4FF72B600F041F8014B186808BD340F002000280BDA20F0004078
:402700000130054B53F82000044B1B68181A18BF0120704701207047F05B0000C482FF1F054B53F82020054B53F820309A4201D101207047002070471881FF1F905B0000AE
:4027400008B5FFF723F9084B53F8203043B10022054B43F8202040F00040044B186008BD024B186008BD00BF9482FF1F340F002038B5364B1C680022354B1A60354A52F808
:402780002430013342F82430334B53F824502046FFF7C6FF012801D0A54204D103222F4B43F8242003E002222C4B43F824202C4B53F824102B4A136823EA010313602A4BF5
:4027C00053F82440214B1C60B5F1FF3F0FD0234B53F82530032B07D10222204B43F825200022224B43F825202846FFF735F9FFF711F9B0F1FF3F0BD1B4F1FF3F03D0002228
:40280000164B43F8242044F00044194B1C6038BD184B53F82020134B1B689A4208D800220E4B43F8242044F00044114B1C6038BD00210A4A42F82010094A52F8202013438F
:40284000084A1360FFF77CFF38BD00BFA481FF1F240F00201881FF1FF480FF1FB481FF1F9C5B0000C082FF1FA881FF1FAC82FF1F340F0020CC5B0000F0B587B006460F464B
:402880001446012300222146684600F03BFAA00002F0D8FF0546002304E036F8132045F823200133A342F8DB3A462946684600F0F1F9284602F0CEFF07B0F0BD2DE9F04F59
:4028C0009BB00546189008461991249C0834129409010439249C0C44139405F10807C1001791A1F1040CAC442599C900169102EB010E0B44421E049205930197CFE0DEF8DE
:402900000020DEF80430019800684FEAE0791446D517CDE91445294600FB01F102FB0911A0FB02670F4416F1004647F10007DD179A46AB4600FB05F403FB0944A0FB03018C
:40294000214410F1004841F1000903970021029101994C68E71703FB07F6CDE906AB04FB0566A3FB04013144DDE902ABBAEB000A6BEB010B504610F100404BF10001CDF893
:402980002490DDE902ABCDF820A0019D0835019502FB07F0159D04FB0500A2FB04450544DDE9086736196F41344614F1004447F100050B91CDF828A0DCF80040E71703FBB4
:4029C00007F2079904FB0122A3FB04011144DDE90A89B8EB000869EB0109404610F1004049F10001059A10680D95CDF830A04FEAE07904FB09F200FB0722A4FB0045154485
:402A0000DDE90C67361B67EB0507344614F1004447F100050F91CDF838A05CF8042CD71700FB07F402FB0944A0FB02012144DDE90E8918EB000849EB0109404610F100404F
:402A400049F100011195CDF840A0ACF1080C03FB07F0079C02FB0400A3FB02230344DDE91045A41A65EB0305224612F1004245F10003129C224642F8081B63605842139CE6
:402A8000234643F8080944F8041C1698059C04440594864404990139049113931292049B002B7FF42CAF18990B684A689B1A5B10249A199842F83030179B04330022249877
:402AC000C2500B4609685B680B445B10036042601BB0BDE8F08F00BF2DE9F04F95B011900391964610934FEAC10C0CF1040C8444C8E0DEF80020DEF80430119F39684FEA77
:402B0000E1791446D517CDE91245284601FB00F002FB0900A1FB0245054414F1004445F1000558424FEAE07B00FB09F401FB0B44A0FB0101214410F1004841F1000901954B
:402B4000002100917E684FEAE67B1846D917CDE9040106FB01F403FB0B44A6FB03012144DDE9004524184D41204610F1004045F10001CDF81C90DDE90089CDF8188007F105
:402B80000804119402FB0BF0139C06FB0400A2FB06670744DDE90645A4197D41264616F1004445F100050991CDF82080DCF80040E71703FB07F2059904FB0122A3FB04017A
:402BC0001144DDE908AB1AEB000A4BEB010B504610F100404BF10001109A10680B95C246CDF828804FEAE07904FB09F200FB0722A4FB00451544DDE90A67361B67EB050798
:402C0000344614F1004447F100050D91CDF830A05CF8042CD71700FB07F402FB0944A0FB02012144DDE90C9A19EB00094AEB010A484610F100404AF100010F95009C0E9406
:402C4000ACF1080C03FB07F0059C02FB0400A3FB02230344DDE90E45A4185D41224612F1004245F100031E9A42F8081B1E9843601F9BDB001099194410919E44039B013B43
:402C800003931E92039B002B7FF433AF15B0BDE8F08F00BF2DE9F04182B00446884615464769066876080279012A1AD18368019300950369C26831464046FFF70DFF63796A
:402CC00022792946384600F021FA002305E055F82320520045F82320013322689342F6D30CE04379384600F011FA2369E268A1680191009531464046FFF7E0FD02B0BDE82D
:402D0000F08100BF10B489B201602F4CC4602F4C046102714371B1F5007F32D00BD8402941D002D8202944D04AE0802935D0B1F5807F2CD044E0B1F5006F16D003D8B1F589
:402D4000806F18D03CE0B1F5805F08D0B1F5005F36D1012383601E4B4361002032E0022383601C4B436100202CE0042383601A4B4361002026E008238360184B4361002004
:402D800020E010238360164B436100201AE020238360144B4361002014E040238360124B436100200EE080238360104B4361002008E04FF4807383600D4B4361002001E0A9
:402DC0004FF0FF3010BC7047B85C0000B8DC0000385D0100285D0100F85C0100C85C0100E85C0100185D0100085D0100B85C0100D85C01002DE9F04F8FB083460D910C92A0
:402E00004FEA510A4FF00009CC46CDF814A0CA467FE04FEACA030C9951F83A00043351F803E00AF1010A059B0CEB03024FEACC015BF83C309C104FEAC2080A925BF83230C4
:402E40009A10A31A22444BF83C2004315BF80120941008F104020B925BF802209510621B2C444BF801401C46DD17C71703FB07F1CDE9064500FB0511A3FB00450D4414F1FD
:402E8000004845F10009D51700FB05F402FB0744A0FB0201214410F1004641F10007CDE90867CDF80490002100917046C11702FB01F00EFB0500A2FB0E450544DDE900899E
:402EC00018EB040649EB0507344614F1004447F10005099E0396CDF8088003FB01F1079A0EFB0211A3FB0E230B44DDE90201801A61EB0301024612F1004241F100036A004E
:402F00000A994BF831205B000B9A4BF802300CF1010C059B9C45FFF47CAF9A4602230C9C22465146584600F04FF90223224651460D980BEB800000F047F900221BE013011A
:402F40005BF8035003F1040E5BF80E4003F108075BF8070003F10C065BF806106D006400400049004BF803504BF80E404BF807004BF8061001325245E1D30FB0BDE8F08FB3
:402F80002DE9F04F8FB083460D910C924FEA510A4FF00009CC46CDF814A0CA467EE04FEACA030C9951F83A00043351F803E00AF1010A059B0CEB03024FEACC015BF83C30AB
:402FC0009C104FEAC2080A925BF832309A10A31A22444BF83C2004315BF80120941008F104020B925BF802209510621B2C444BF801401C46DD17C71703FB07F1CDE90645C6
:4030000000FB0511A3FB00450D4414F1004845F10009D51700FB05F402FB0744A0FB0201214410F1004641F10007CDE90867CDF80490002100917046C11702FB01F00EFB5F
:403040000500A2FB0E450544DDE90089B8EB040669EB0507344614F1004447F10005099E0396CDF8088003FB01F1079A0EFB0211A3FB0E230B44DDE902018018594102461B
:4030800012F1004241F100036A000A994BF831205B000B9A4BF802300CF1010C059B9C45FFF47DAF9A4602230C9C22465146584600F042FB0223224651460D980BEB800020
:4030C00000F03AFB00221BE013015BF8035003F1040E5BF80E4003F108075BF8070003F10C065BF806106D006400400049004BF803504BF80E404BF807004BF8061001320A
:403100005245E1D30FB0BDE8F08F00BF70B504460D461E460188012A27D1B1F5807F19D00AD820291CD002D8102945D112E0402910D0802914D03FE0B1F5806F0AD003D8D1
:40314000B1F5007F0CD037E0B1F5006F08D0B1F5805F31D101236268284600F0EDFA2BE062682846FFF70CFF26E0B1F5807F19D00AD820291CD002D810291DD112E0402945
:4031800010D0802914D017E0B1F5806F0AD003D8B1F5007F0CD00FE0B1F5006F08D0B1F5805F09D101236268284600F00DF803E062682846FFF71EFE26B1A268A18928462E
:4031C00000F072FD70BD00BF2DE9F04FA5B020901991219211938B0819462393DB00C618F418029404EB0309044608914FF00008CDF80480CA46934623681B110298026814
:4032000012119D18C2EB030C3168DAF80020131103EB211362681211406800111718121A0492EA18214641F8082B0991EB1A1D467068DAF804100A1102EB2012B918616031
:40324000BA1A7068DAF804100911C1EB201E3068DAF800100911C1EB20170A97019908015BF8001004305BF800004FEAE37844469846A1460B46CC17CDE90E3405FB04F40C
:40328000CDE90C8901FB09440695A5FB018904EB09054FEAE2794FEAE07802FB08F700FB0977A2FB00342744EC196400334643F8084B109301FB09F70F9C02FB0477A1FB12
:4032C00002452F44069B03FB08F20D9D00FB0522A3FB00010A44BA1A530073600CEB0E01CEEB0C03049A0A9CC4EB020C22440198C4005BF8300004345BF804E0CE170F460A
:40330000B046C51701FB05F4CDE9047800FB0644A1FB00673C444FEAEC78C146E0467646F717CDE90A670CFB07F6CDE906890EFB0966ACFB0E78464434446400029FB8461E
:4033400048F8084BCDF83080079E00FB06F60CFB0566A0FB0C452E440B9C01FB04F405980EFB0044A1FB0E012144761A71007960019901EB4100C1005BF830E004315BF8F7
:4033800001C04FEAE3797446E51703FB05F40EFB0944A3FB0E010C44D7176046C117CDE9020102FB01F00CFB07010491A2FB0C01084604990144084620444400504640F862
:4033C000084B0EFB07F602FB0566AEFB02452E44039903FB01F10CFB0911A3FB0C230B44F61A7300CAF804300199119A8A180192099C109E0C9F02978246089B013B089315
:403400007FF4FAAE119B9B001F93199B9B082293239B119342E1119B9B081D9300231C931E932DE11E9D05EB4502EB00219850F835101A910433C35806932B01C1581B91AD
:403440000433C3580993D30050F832200A92043350F803B01F9BEB181E93209B19461C9A01EBC20A1D9BDB000AEB030808EB030909EB030E0492CDF840A0CDF80480CDF84D
:403480000890CDF830B0F3E0109F3A6802990B68D418D31A0E937A684B68D018C3EB020B019E3268DEF80030D1186518AD103D60611A7268DEF804301344C21892107A60E0
:4034C000119AD200089214463A4622441092C3EB000C7268DEF80430C3EB020A3068DEF80030C01ACE170F46B0461B9E3446F517CDE914452C4601FB04F4CDE9127806FBDE
:403500000844A1FB06231C441894E0464FEAEC79CDE91689099D4FEAE57843460CFB08F2DDE9168905FB0922ACFB05452A44189C22445210019C226006FB09F2159D0CFB50
:403540000522A6FB0C45541901FB03F5139B099E06FB0355A1FB06231D44651B6D10019B5D60089D1946294401910E9B03EB0A0CCAEB0302C0EB0B080BEB00036046C11708
:4035800064460D461A9E4FEAE67B0CFB0BF9CDE9124506FB0199ACFB060189444046C117CDE90E01069D2C46E91708FB01F02F460F9D04FB0500A8FB074528444844401006
:4035C000029C20600F9C06FB04F408FB0B40A6FB088900EB09040CFB01F513980746069E304606FB0755ACFB00010D44651B6D10029C6560089D611902914FEAE27B0A9EDC
:403600004FEAE67902FB09FC06FB0BCCA2FB06018C441846D917CDE90E010C9DEF17394603FB07F02E460F9C05FB0400A3FB0667384460444010CEF800000A9F0F9C07FBB4
:4036400004F403FB0940A7FB0345284402FB01F10C9D05FB0B11A2FB05231944401A4010CEF80400089DAE44049B119A13440493049B199A9342FFF407AF1C9B01331C9332
:403680001D9B013B1C9A9A427FF6CCAE1F9B9B001F93229B9B0822931D9B1193229B042B3FF6B9AEDDF880E0239CDEF80020DEF80470DEF80830DEF80C90DEF81080DEF8A5
:4036C0001460DEF81850DEF81CC0D0184044284407EB090131446144CEF80000CEF80410D01A4044401BC9EB07013144CCEB0101CEF80800CEF80C1002EB0900C8EB0000CC
:40370000CCEB0000F91A891B2944CEF81000CEF81410C9EB0202C8EB020262443B449B1B5B1BCEF81820CEF81C300EF1200E013CBBD125B0BDE8F08F2DE9F04FA5B02090D5
:403740001991219211938B0819462393DB00C618F418029404EB0309044608914FF00008CDF80480CA46934623681B110298026812119D18C2EB030C3168DAF800201311F0
:4037800003EB211362681211406800111718121A0492EA18214641F8082B0991EB1A1D467068DAF804100A1102EB2012B9186160BA1A7068DAF804100911C1EB201E3068C1
:4037C000DAF800100911C1EB20170A97019908015BF8001004305BF800004FEAE37844469846A1460B46CC17CDE90E3405FB04F4CDE90C8901FB09440695A5FB018904EB6D
:4038000009054FEAE2794FEAE07802FB08F700FB0977A2FB00342744EC1B6400334643F8084B109301FB09F70F9C02FB0477A1FB02452F44069B03FB08F20D9D00FB0522B3
:40384000A3FB00010A443A4453007360CEEB0C010CEB0E03049A0A9C02EB040C121B0198C4005BF8300004345BF804E0CE170F46B046C51701FB05F4CDE9047800FB0644B4
:40388000A1FB00673C444FEAEC78C146E0467646F717CDE90A670CFB07F6CDE906890EFB0966ACFB0E784644A41B6400029FB84648F8084BCDF83080079E00FB06F60CFBE5
:4038C0000566A0FB0C452E440B9C01FB04F405980EFB0044A1FB0E0121440E4471007960019901EB4100C1005BF830E004315BF801C04FEAE3797446E51703FB05F40EFB4F
:403900000944A3FB0E010C44D7176046C117CDE9020102FB01F00CFB07010491A2FB0C01084604990144601A4400504640F8084B0EFB07F602FB0566AEFB02452E44039961
:4039400003FB01F10CFB0911A3FB0C230B441E447300CAF804300199119A8A180192099C109E0C9F02978246089B013B08937FF4FBAE119B9B001F93199B9B082293239B1D
:40398000119344E1119B9B081D9300231C931E932FE11E9D05EB4502EB00219850F835101A910433C35806932B01C1581B910433C3580993D30050F832200A92043350F88C
:4039C00003B01F9BEB181E93209B19461C9A01EBC20A1D9BDB000AEB030808EB030909EB030E0492CDF840A0CDF80480CDF80890CDF830B0F5E0109F3A6802990B68D418E1
:403A0000D31A0E937A684B68D018C3EB020B019E3268DEF80030D1186518AD103D60611A7268DEF804301344C21892107A60119AD200089214463A4622441092C3EB000C02
:403A40007268DEF80430C3EB020A3068DEF80030C01ACE170F46B0461B9E3446F517CDE914452C4601FB04F4CDE9127806FB0844A1FB06231C441894E0464FEAEC79CDE974
:403A80001689099D4FEAE57843460CFB08F2DDE9168905FB0922ACFB05452A44189CA21A5210019C226006FB09F2159D0CFB0522A6FB0C45541901FB03F5139B099E06FB3C
:403AC0000355A1FB06231D4425446D10019B5D60089D1946294401910E9BCAEB030C53441A460BEB0008C0EB0B036046C11764460D461A9E4FEAE67B0CFB0BF9CDE9124506
:403B000006FB0199ACFB060189444046C117CDE90E01069D2C46E91708FB01F02F460F9D04FB0500A8FB07452844C0EB09004010029C20600F9C06FB04F408FB0B40A6FB0E
:403B4000088900EB09040CFB01F513980746069E304606FB0755ACFB00010D4425446D10029C6560089D611902914FEAE27B0A9E4FEAE67902FB09FC06FB0BCCA2FB060108
:403B80008C441846D917CDE90E010C9DEF17394603FB07F02E460F9C05FB0400A3FB06673844C0EB0C004010CEF800000A9F0F9C07FB04F403FB0940A7FB0345284402FBA0
:403BC00001F10C9D05FB0B11A2FB0523194408444010CEF80400089DAE44049B119A13440493049B199A9342FFF405AF1C9B01331C931D9B013B1C9A9A427FF6CAAE1F9B22
:403C00009B001F93229B9B0822931D9B1193229B042B3FF6B7AEDDF880E0239CDEF80090DEF80430DEF80870DEF80C20DEF81080DEF81460DEF81850DEF81CC009EB0700F1
:403C400040442844991831446144CEF80000CEF80410C7EB09004044401B991A3144CCEB0101CEF80800CEF80C10C2EB0900C8EB00006044D919891B491BCEF81000CEF81B
:403C800014104A44C8EB0202CCEB0202DB1B9B1B2B44CEF81820CEF81C300EF1200E013CBCD125B0BDE8F08F4B1C012B98BF70472DE9F003911C9B08B1F80480B1F8029063
:403CC0000A8831F802CC8044814402448444D9F80070D8F800601568DCF80040C9F80060C8F80070CCF800501460D9F80470D8F804605568DCF80440C9F80460C8F8047022
:403D0000CCF8045054600831013BD5D1BDE8F00370474B1C012B98BF70472DE9F003911C9B08B1F80480B1F802900A8831F802CC00EB580800EB590900EB520200EB5C0C38
:403D4000D9F80070D8F800601568DCF80040C9F80060C8F80070CCF8005014600831013BDFD1BDE8F00370472DE9F04F8DB006460F4614461D4600F08FF9DFF81093CDE95C
:403D8000000199F90080B8F1FF3F46D022462B462046294601F014FD834600283DD132463B463046394601F00BFD8246002874D1304639460022002301F0D0FC002833D006
:403DC000002200232046294601F0C8FC8346B8B1A94A012300200021CDF828A0CDE90467CDE90645CDE9080103920293B8F1000F6CD0A24B0022104619460DB0BDE8F08F39
:403E00002046294600F072FF38B1002200232046294601F0ADFC00286AD1DDE90023104619460DB0BDE8F08FDDE9000100F05EFF804600287DD0DDE900014FF0000A4FF02F
:403E4000000B52465B4601F089FC0028E5D03046394600F04BFF0028DFD02046294600F045FF0028D9D099F90030834804210022022BCDE90467CDE90645CDE908AB0390AC
:403E800002910A9204D002A800F036FF002847D101F0ACFC2223036042E0002200232046294601F05BFC0028B7D0744B724800220121B8F1020FCDF828B0CDE90467CDE991
:403EC0000645CDE9082303900291A8D002A800F013FF00287ED00A9B43B301F087FCDDE908230A990160104619460DB0BDE8F08F614999F900300122CDF828B0CDE90467EF
:403F0000CDE9064503910292002B68D05C490020022BCDE9080166D101F068FC212303600A9B1BB101F062FC0A9B0360DDE9082375E73046394600F0D9FE00283FF47BAFBB
:403F40002046294600F0D2FE00283FF474AFDDE900231046194601F033FC00286FD1464B99F90080039303230A90CDE90467CDE906450293B8F1000F3BD1DFF814B14FF0B9
:403F8000604A0022002330463946CDE908AB01F0EFFB00283FF477AF00223A4B2046294601F074F904460D4600F0AEFE02460B462046294601F0D2FB00283DD1324B4FF027
:403FC0006042CDE9082399F90080B8F1020F7FF45AAF5DE701F00AFC212303607BE700230024CDE9083402A800F086FE002897D192E7DFF8A0B04FF0000A00220023304627
:404000003946CDE908AB01F0B3FB0028DDD000221C4B2046294601F039F904460D4600F073FE02460B462046294601F097FB18B9134B0022CDE9082399F90080C5E70E4A6C
:4040400099F900900123CDF82880CDE90467CDE9064503920293B9F1000FC0D0002200231046194601F03CFAB9F1020FCDE908013FF452AFB7E700BFE05A02000000F03F61
:404080000000F0FF0000E03FFFFFEFC70582FF1FFFFFEF470000F07F2DE9F04F23F0004858EA020993B03CD0714C21F00046A64283460D460CDD06F1404606F5801656EA5B
:4040C0000B0038D183466B49584613B0BDE8F08F9A4696462BD0A045EDDC654CA04578D0002D0F468146CDE9002376DB0024BEF1000F27D15E4B984500F08B805D4B984514
:4041000052D0BAF1804F00F0C9835B4B9A4519D1002D17DB4846394613B0BDE8F04F00F01DBDCB465846534913B0BDE8F08F0028C1D1B045D1DD514813B0BDE8F04F00F0DC
:40414000DDBD00244846394600F0CCFDBBF1000F1CD0ED0F013D54EA050370D0484B984540F3948003F10473984540F30D84454B9E4270DDBAF1000F70DD3BA3D3E9002310
:404180001046194601F082F883469DE726B1394B25F040429A42DCD1BAF1000FC0F2B783002D08DB83468FE7BAF1000FC0F25E84CB46394688E706F1404606F5801656EA87
:4041C000040300F08384012CECD101F1004183467AE7BEF1000F83D06DE72B4B98452CDCA3F15473984581DD4FEA2853A3F2FF33142B40F35384C3F134032EFA03F202FA5C
:4042000003F39E457FF472AF02F00102C2F102046DE706F1404303F5801353EA0B0300F03A83184B9E4240F36783BAF1000F15DBDDE900349B46214646E7022457E74A46A5
:4042400048463B46394600F06DFE02460B4601F047F9834638E7BAF1000F8EDB4FF0000B594631E7AFF300809C7500883CE4377E0000F07F0000F03F0000E03F8C5C00004A
:404280000000E041FFFFEF3FFFFF3F43B6F5801F4FF0000205DAD04B00F0F8FF0E466FF03402DFF844E33315C6F31306A3F2FF3346F07F57764503EB020A47F4401740F377
:4042C000C983C64B00229E4240F304840023CDE90823CDE90C23C24B0022CDE906230AF1010AA7F5801700263946DDE90623CDE90A0100F017FEDDE9062380468946DDE9D0
:404300000A0100F011FE02460B460020B44901F0E7F80A4601461346CDE90E1202464946404600F0B3FF8C4683467B1043F0005303F5002399190020CDE904BC06460F4678
:404340004FF0000B6146584632463B46CDE910BCCDE9020100F09AFF02460B464046494600F0E0FDDDE90623804689463046394600F0D8FD02460B46DDE90A0100F0D2FD0F
:40438000DDE9022300F082FF02460B464046494600F0C8FDDDE90E2300F078FFDDE90478CDE906013A4643463846414600F06EFF77A3D3E9002306460F4600F067FF76A36D
:4043C000D3E9002300F0B0FD32463B4600F05EFF73A3D3E9002300F0A7FD32463B4600F055FF71A3D3E9002300F09EFD32463B4600F04CFF6EA3D3E9002300F095FD324699
:404400003B4600F043FF6CA3D3E9002300F08CFD3246804689463B463046394600F036FF02460B464046494600F030FFDDE9022306460F46DDE9040100F076FDDDE9062344
:4044400000F024FF32463B4600F06EFDDDE902678046894632463B463046394600F016FF0022604BCDE90A0100F05EFD42464B4600F05AFDDDE910BC0F46DDE902015A4695
:404480003B46CDE90EBC5E4600F000FF0022CDE90201544B3046394600F044FDDDE90A2300F040FD02460B464046494600F03AFDDDE9042300F0EAFE324680468946DDE93B
:4044C00006013B4600F0E2FE02460B464046494600F02AFD8046894602460B46DDE9020100F022FDDDE90EBC35A3D3E900235846CDE906BC5E460F4600F0C8FEDDE90223A2
:40450000CDE904013046394600F00CFD02460B464046494600F006FD2BA3D3E9002300F0B5FE2BA3D3E90023804689463046394600F0ACFE02460B464046494600F0F4FC82
:40454000DDE90C2300F0F0FC80465046894600F037FE06460F46DDE9040142464B4600F0E3FCDDE9082300F0DFFC32463B4600F0DBFCDDE906BC324658463B46DA468B463A
:4045800000F0D0FCDDE9082330E000BFAFF30080EF4E454A287ECA3F65DBC9934A86CD3F01411DA96074D13F4D268F515555D53FFFAB6FDBB66DDB3F033333333333E33F18
:4045C000000000E009C7EE3FFD033ADC09C7EE3FF5015B14E02F3EBE0000404379B60B000000F03F000008408E98030000F09AFCDDE9042300F096FC02460B46404649465B
:4046000000F090FC80468946DDE90012013C54EA050314BFD64CD74C0023CDE904340B461446CDE9023400230293DDE9024508462B461146224600F075FC52465B4600F081
:4046400025FEDDE9002306460F464046494600F01DFE02460B463046394600F065FC06460F4622462B4650465946CDE9006700F00DFE0B460246804689463046394600F0B4
:4046800053FCBD4B064699420D460C4640F30E8101F13F4303F5E003034340F0F081A0A3D3E90023DDE9000100F03EFC424682468B464B463046294600F034FC02460B467C
:4046C0005046594601F072F8002840F0D8812F463B154FF48012A3F2FE3342FA03F32344C3F30A52A54EA2F2FF321641C3F3130B0020C2F1140523EA06014BF4801B024669
:404700000B46002C4BFA05FB40464946B8BFCBF1000B00F007FC02460B4680468946DDE9000100F001FC4FEA0B5A00247EA3D3E9002320460D4600F0A9FD424606460F4655
:404740004B462046294600F0EDFB02460B46DDE9000100F0E7FB76A3D3E9002300F096FD75A3D3E90023804689462046294600F08DFD02460B464046494600F0D5FB80463F
:40478000894602460B463046394600F0CDFB32463B4604460D4600F0C5FB02460B464046494600F0BFFB2246804689462B462046294600F06BFD62A3D3E9002306460F4626
:4047C00000F064FD60A3D3E9002300F0ABFB32463B4600F05BFD5EA3D3E9002300F0A4FB32463B4600F052FD5BA3D3E9002300F099FB32463B4600F049FD59A3D3E900239D
:4048000000F092FB32463B4600F040FD02460B462046294600F086FB06460F4602460B462046294600F032FD0022CDE900014FF080433046394600F075FB02460B46DDE939
:40484000000100F04DFE424606460F464B462046294600F01BFD42464B4600F065FB02460B463046394600F05DFB22462B4600F059FB02460B4600203D4900F053FB8A44BE
:40488000BAF5801FC0F237815146DDE9042300F0FDFC834618E4F346354915E44A4648463B46394600F0F2FC83460DE4344B21F000479F4240F30181324B0B4403430CD14C
:4048C00042464B4600F02EFB02460B46DDE9000100F058FF00283FF4FBAE23A3D3E90023DDE9040100F0D2FC1FA3D3E9002300F0CDFC8346FFF7E8BBBAF1000FBFF6AEAC28
:40490000DDE900349B4604F10041FFF7DDBB02460B460020164900F0E3FD41E4AFF30080FE822B654715973C00000000432EE63FEF39FAFE422EE63F396CA80C615C20BE2B
:40494000D0A4BE726937663EF16BD2C541BDBB3E2CDE25AF6A56113F93BDBE166CC1663F3E5555555555C53F59F3F8C21F6EA5010000F03F0000F0BFFFFF8F40FFFF0F00A5
:40498000FFCB904000346F3F6F4B9E427FF763AC6E4B9E423FF7EEAB00226C4B00F0C2FA5BA3D3E9002306460F4600F06FFC5AA3D3E90023804689463046394600F066FCDE
:4049C000002282468B46624B3046394600F05EFC02460B4652A1D1E9000100F0A3FA32463B4600F053FC02460B460020594900F099FA3246CDE902013B463046394600F08F
:404A000045FC02460B46DDE9020100F03FFC46A3D3E9002300F03AFC02460B465046594600F080FA02460B4606460F464046494600F07AFA42464B46002082468B4600F00D
:404A400071FA02460B463046394600F06BFA80468946D9E500220023CDE90823CDE90C233A4B00220026CDE906233DE44A463B460020364900F034FD8346FFF725BB2CA37E
:404A8000D3E90023DDE9040100F000FC28A3D3E9002300F0FBFB8346FFF716BBBEF1000F7FF44FABC3F1140348FA03F202FA03F3984524D07446FFF721BB264B9F423FF73C
:404AC00007AEDDE902349A469B462EE602460B46FFF7B9BB204B4FF48026CDE9062316A3D3E90023CDE9082315A3D3E90023CDE90C23FFF7F9BB5A4600F096F9C5E602F09F
:404B00000102C2F10204FFF7F9BA00BFAFF30080000000604715F73F44DF5DF80BAE543E555555555555D53FFE822B654715F73F9C7500883CE4377E0000004003B8E23F3C
:404B400006D0CF43EBFD4C3EFEFFEF3F0000F03F0000D03F0000E03F0000F83F2DE9F0415F4E0C46B6460E407645054600F0988000290B46024674DD5FEA215E7FD0AEF2B4
:404B8000FF3EC3F313031EF0010F43F4801363D100273E4603EBD2710B444FEA6E0E520016204FF4001174189C424FEAD2754FEA420202DC1B1B66180F44013805EB430359
:404BC0004FEA5101EFD1844620244FF0004109E020D003EBD275013C4FEA51012B444FEA420220D09E4201EB0C05F1DA002D05EB010C09DBB0469542A3EB060300D9013BFB
:404C00004646521B0844E4E7BCF1000FF2DB06F10108F0E7954217D8002D05EB010C49DB98460023ECE7134310D140087B1003F17F5303F50013FA0703EB0E57394648BF67
:404C400040F00040BDE8F0813346C2E7411C35D000F001031844E8E75B0003EBD273520096E721F000460643ECD079BB8E46D30AAEF1150E5205002BF9D0DD0221D400216B
:404C800000E001465B00DC0201F10100F9D5C0F1200422FA04F42343C1EB0E0E82406EE702460B4600F0F2FA2A46234600F03CF9BDE8F081BCF1000FA9DAB1E701372046A7
:404CC000B4E720244FF0FF310020E2E702460B4600F028F902460B4600F002FCB2E700BF0000F07F21F00041704700BF41F0004101F58010C00F70470020704700200149FE
:404D0000704700BF0000F87FF0B5C1F30A5EAEF2FF36132E83B002460B460C464FEAD17507462EDC002E49DB3D49314103EA010010432BD049080B4053EA02070CD04FF434
:404D40008023132E24EA010143FA06F444EA01040CBF4FF000470027324B214603EBC505D5E90045384622462B4600F0DDF8CDE90001DDE9000122462B4600F0D3F803B0DD
:404D8000F0BD332E06DDB6F5806F45D01046194603B0F0BDAEF2134E4FF0FF3121FA0EF10842F3D049080842D6D04FF0804320EA010143FA0EFE4EEA0107CDE721F00041C9
:404DC00001431946E4D0C3F3130343EA000CCCF1000343EA0C0C134B640C4FEA1C3C0CF4002C03EBC5036404D3E900674CEA040132463B4600F098F8CDE90001DDE9000154
:404E000032463B4600F08EF8024621F0004141EAC57310461946BBE700F086F8B8E700BFFFFF0F00E85A0200F8B5C1F30A5604460D460B46174606BB21F00043034325D036
:404E400000222F4B00F022FA2E4A044697420D460B462ADBC1F30A56363E40F2FE723E44964228DC002E12DD23F0FF4323F4E00343EA065520462946F8BD40F2FF729642C5
:404E8000EBD102460B4600F04FF8F8BDF8BD16F1350F1DDA4CF250339F420CDC14A1D1E9000122462B4600F031F811A3D3E9002300F0ECF9F8BD22460FA1D1E900012B466D
:404EC00000F024F80CA3D3E9002300F0DFF9F8BD23F0FF4323F4E003363643EA0655204629460022084B00F0D1F9F8BDAFF3008059F3F8C21F6EA5019C7500883CE4377ED6
:404F000000005043B03CFFFF0000903C03F0004321F0004242EA0301704700BF81F0004102E000BF83F0004330B54FEA41044FEA430594EA050F08BF90EA020F1FBF54EA0C
:404F4000000C55EA020C7FEA645C7FEA655C00F0E2804FEA5454D4EB5555B8BF6D420CDD2C4480EA020281EA030382EA000083EA010180EA020281EA0303362D88BF30BD3A
:404F800011F0004F4FEA01314FF4801C4CEA113102D0404261EB410113F0004F4FEA03334CEA133302D0524263EB430394EA050F00F0A780A4F10104D5F1200E0DDB02FAAB
:404FC0000EFC22FA05F2801841F1000103FA0EF2801843FA05F359410EE0A5F120050EF1200E012A03FA0EFC28BF4CF0020C43FA05F3C01851EBE37101F0004507D54FF03E
:40500000000EDCF1000C7EEB00006EEB0101B1F5801F1BD3B1F5001F0CD349085FEA30004FEA3C0C04F101044FEA445212F5800F80F09A80BCF1004F08BF5FEA500C50F111
:40504000000041EB045141EA050130BD5FEA4C0C404141EB010111F4801FA4F10104E9D191F0000F04BF01460020B1FA81F308BF2033A3F10B03B3F120020CDA0C3208DDE5
:4050800002F1140CC2F10C0201FA0CF021FA02F10CE002F11402D8BFC2F1200C01FA02F120FA0CFCDCBF41EA0C019040E41AA2BF01EB0451294330BD6FEA04041F3C1CDA4E
:4050C0000C340EDC04F11404C4F1200220FA04F001FA02F340EA030021FA04F345EA030130BDC4F10C04C4F1200220FA02F001FA04F340EA0300294630BD21FA04F02946A4
:4051000030BD94F0000F83F4801306BF81F480110134013D4EE77FEA645C18BF7FEA655C29D094EA050F08BF90EA020F05D054EA000C04BF1946104630BD91EA030F1EBF7D
:405140000021002030BD5FEA545C05D14000494128BF41F0004130BD14F580043CBF01F5801130BD01F0004545F0FE4141F470014FF0000030BD7FEA645C1ABF19461046F3
:405180007FEA655C1CBF0B46024650EA013406BF52EA033591EA030F41F4002130BD00BF90F0000F04BF0021704730B54FF4806404F132044FF000054FF0000150E700BF3F
:4051C00090F0000F04BF0021704730B54FF4806404F1320410F0004548BF40424FF000013EE700BF42004FEAE2014FEA31014FEA02701FBF12F07F4393F07F4F81F06051D3
:40520000704792F0000F14BF93F07F4F704730B54FF4607401F0004521F0004120E700BF50EA010208BF704730B54FF000050AE050EA010208BF704730B511F0004502D576
:40524000404261EB41014FF4806404F132045FEA915C3FF4DCAE4FF003025FEADC0C18BF03325FEADC0C18BF033202EBDC02C2F1200300FA03FC20FA02F001FA03FE40EA4F
:405280000E0021FA02F11444C1E600BF70B54FF0FF0C4CF4E06C1CEA11541DBF1CEA135594EA0C0F95EA0C0F00F0DEF82C4481EA030621EA4C5123EA4C5350EA013518BFEC
:4052C00052EA033541F4801143F4801338D0A0FB02CE4FF00005E1FB02E506F00042E0FB03E54FF00006E1FB03569CF0000F18BF4EF0010EA4F1FF04B6F5007F64F540742D
:4053000004D25FEA4E0E6D4146EB060642EAC62141EA55514FEAC52040EA5E504FEACE2EB4F1FD0C88BFBCF5E06F1ED8BEF1004F08BF5FEA500E50F1000041EB045170BDB2
:4053400006F0004646EA010140EA020081EA0301B4EB5C04C2BFD4EB0C0541EA045170BD41F480114FF0000E013C00F3AB8014F1360FDEBF002001F0004170BDC4F100049A
:40538000203C35DA0C341BDC04F11404C4F1200500FA05F320FA04F001FA05F240EA020001F0004221F0004110EBD37021FA04F642EB06015EEA430E08BF20EAD37070BD60
:4053C000C4F10C04C4F1200500FA04F320FA05F001FA04F240EA020001F0004110EBD37041F100015EEA430E08BF20EAD37070BDC4F1200500FA05F24EEA020E20FA04F350
:4054000001FA05F243EA020321FA04F001F0004121FA04F220EA020000EBD3705EEA430E08BF20EAD37070BD94F0000F0FD101F00046400041EB010111F4801F08BF013C22
:40544000F7D041EA060195F0000F18BF704703F00046520043EB030313F4801F08BF013DF7D043EA0603704794EA0C0F0CEA135518BF95EA0C0F0CD050EA410618BF52EA1B
:405480004306D1D181EA030101F000414FF0000070BD50EA410606BF1046194652EA430619D094EA0C0F02D150EA013613D195EA0C0F05D152EA03361CBF104619460AD17A
:4054C00081EA030101F0004141F0FE4141F470014FF0000070BD41F0FE4141F4780170BD70B54FF0FF0C4CF4E06C1CEA11541DBF1CEA135594EA0C0F95EA0C0F00F0A7F8CC
:40550000A4EB050481EA030E52EA03354FEA013100F088804FEA03334FF0805545EA131343EA12634FEA022245EA111545EA10654FEA00260EF000419D4208BF964244F15F
:40554000FD0404F5407402D25B084FEA3202B61A65EB03055B084FEA32024FF480104FF4002CB6EB020E75EB030E22BFB61A754640EA0C005B084FEA3202B6EB020E75EBFA
:40558000030E22BFB61A754640EA5C005B084FEA3202B6EB020E75EB030E22BFB61A754640EA9C005B084FEA3202B6EB020E75EB030E22BFB61A754640EADC0055EA060E0D
:4055C00018D04FEA051545EA16754FEA06164FEAC30343EA52734FEAC2025FEA1C1CC0D111F4801F0BD141EA00014FF000004FF0004CB6E711F4801F04BF01430020B4F1DE
:40560000FD0C88BFBCF5E06F3FF6AFAEB5EB030C04BFB6EB020C5FEA500C50F1000041EB045170BD0EF0004E4EEA113114EB5C04C2BFD4EB0C0541EA045170BD41F48011EA
:405640004FF0000E013C90E645EA060E8DE60CEA135594EA0C0F08BF95EA0C0F3FF43BAF94EA0C0F0AD150EA01347FF434AF95EA0C0F7FF425AF104619462CE795EA0C0F83
:4056800006D152EA03353FF4FDAE1046194622E750EA410618BF52EA43067FF4C5AE50EA41047FF40DAF52EA43057FF4EBAE12E74FF0FF3C06E000BF4FF0010C02E000BFFD
:4056C0004FF0010C4DF804CD4FEA410C7FEA6C5C4FEA430C18BF7FEA6C5C1BD001B050EA410C0CBF52EA430C91EA030F02BF90EA020F0020704710F1000F91EA030F58BF24
:40570000994208BF90422CBFD8176FEAE37040F0010070474FEA410C7FEA6C5C02D150EA013C07D14FEA430C7FEA6C5CD6D152EA033CD3D05DF8040B704700BF8446104636
:4057400062468C461946634600E000BF01B5FFF7B7FF002848BF10F1000F01BD4DF808EDFFF7F4FF0CBF012000205DF808FB00BF4DF808EDFFF7EAFF34BF012000205DF8C1
:4057800008FB00BF4DF808EDFFF7E0FF94BF012000205DF808FB00BF4DF808EDFFF7CEFF94BF012000205DF808FB00BF4DF808EDFFF7C4FF34BF012000205DF808FB00BF87
:4057C0004FEA410C7FEA6C5C02D150EA013C0AD14FEA430C7FEA6C5C02D152EA033C02D14FF0000070474FF001007047014B1868704700BF6882FF1F0E4B70B51E460E4C80
:405800000025E41AA410A54204D056F8253098470135F8E720F072F9084B094C1E46E41AA4100025A54204D056F8253098470135F8E770BD085B0200085B0200085B020033
:40584000105B0200024B0146186800F06BB800BF6882FF1F024B0146186800F017B800BF6882FF1F10B5431E0A44914204D011F8014B03F8014FF8E710BD03460244934268
:4058800002D003F8011BFAE77047000038B50546002944D051F8043C0C1F002BB8BFE41800F0AEF81E4A1368114613B96360146030E0A3420DD92268A018834201BF1868AB
:4058C0005B681218226063600C6023E0A24203D813465A68002AF9D118681918A1420BD12168014458188242196013D110685268014419605A600DE002D90C232B6009E055
:4059000021686018824201BF106852680918216062605C602846BDE8384000F072B838BDDC82FF1F70B5CD1C25F0030508350C2D38BF0C25002D064601DBA94202D90C2367
:40594000336046E000F05CF8234B1C681A462146A1B10B685B1B0ED40B2B03D90B60CC18CD501EE08C420BBF63684B681360636018BF0C4615E00C464968E9E7174C2368AD
:405980001BB9304600F02CF820602946304600F027F8431C18D0C41C24F00304A0420DD12560304600F02DF804F10B00231D20F00700C31A0ED05A42E25070BD211A304645
:4059C00000F00EF80130EBD10C233360304600F018F8002070BD00BFDC82FF1FD882FF1F38B5064C0023054608462360FBF778FA431C02D1236803B12B6038BD68330020FE
:405A00007047704700000000035B00402443004040000000005100401000305100404000C0510040100000000140001000140140000800400140000A004C01400002005058
:405A400001402000FF0001010202020203030303030303030404040404040404040404040404040405050505050505050505050505050505050505050505050505050505D8
:405A8000050505050606060606060606060606060606060606060606060606060606060606060606060606060606060606060606060606060606060606060606060606066A
:405AC00006060606070707070707070707070707070707070707070707070707070707070707070707070707070707070707070707070707070707070707070707070707EA
:405B000007070707070707070707070707070707070707070707070707070707070707070707070707070707070707070707070707070707070707070707070707070707A5
:405B400007070707010000004C5B00000000000000000000020000000000000000000000FFFFFFFF000000000000000000000000000000000000000010270000010000002B
:405B8000000000000000000000000000010000000100000001000000010000008000000002000000040000000100000002000000040000000800000010000000200000001C
:405BC00040000000800000000001000001000000020000000400000051010000AD01000081010000D1260000D1260000D12600000000000000000000000000000100000075
:405C0000616C726D5F6D61696E00000065765F70757368427574746F6E00000065765F7352656365697665640000000065765F73616D706C696E6746696E697368656400AB
:405C400065765F73656E640065765F6F52656365697665640000000065765F726553616D706C650065765F73656E64464654000065765F7452656365697665640000000064
:405C800065765F6E52656365697665640000000074736B5F696E69740000000074736B5F6261636B67726F756E64000074736B5F636F6E74726F6C0000000040000000C02D
:405CC000026FF33F3C0100C005DEE63FEF0400C0094DDA3F1A0B00C00FBCCD3FBD1300C0162BC13FD81E00C01F9AB43F6A2C00C02C09A83F743C00C03C789B3FF54E00C078
:405D000050E78E3FEE6300C06856823F5F7B00C085C5753F479500C0A834693FA7B100C0D0A35C3F7ED000C0FE12503FCEF100C03482433F941501C070F1363FD33B01C07E
:405D4000B4602A3F896401C001D01D3FB68F01C0563F113F5CBD01C0B5AE043F78ED01C01D1EF83E0D2002C08F8DEB3E195502C00CFDDE3E9C8C02C0946CD23E97C602C027
:405D800028DCC53E0A0303C0C84BB93EF44103C074BBAC3E568303C02E2BA03E2FC703C0F59A933E800D04C0CA0A873E485604C0AE7A7A3E88A104C0A1EA6D3E3FEF04C0C4
:405DC000A35A613E6E3F05C0B5CA543E149205C0D83A483E31E705C00BAB3B3EC63E06C0501B2F3ED39806C0A78B223E56F506C011FC153E525407C08D6C093EC4B507C0B2
:405E00001DDDFC3DAE1908C0C04DF03D0F8008C078BEE33DE8E808C0452FD73D385409C027A0CA3DFFC109C01E11BE3D3D320AC02C82B13DF3A40AC051F3A43D201A0BC063
:405E40008D64983DC4910BC0E1D58B3DE00B0CC04D477F3D72880CC0D2B8723D7C070DC0702A663DFD880DC0289C593DF50C0EC0F90D4D3D64930EC0E67F403D4A1C0FC044
:405E8000EDF1333DA8A70FC01064273D7C3510C050D61A3DC7C510C0AB480E3D8A5811C024BB013DC3ED11C0BB2DF53C748512C06FA0E83C9B1F13C04213DC3C39BC13C0DC
:405EC0003486CF3C4E5B14C045F9C23CDAFC14C0776CB63CDDA015C0C8DFA93C574716C03B539D3C47F016C0CFC6903CAE9B17C0853A843C8C4918C05EAE773CE1F918C0C1
:405F000059226B3CACAC19C078965E3CEE611AC0BA0A523CA7191BC0217F453CD6D31BC0ACF3383C7C901CC05D682C3C994F1DC034DD1F3C2B111EC03152133C35D51EC07E
:405F400054C7063CB59B1FC09F3CFA3BAB6420C012B2ED3B183021C0AC27E13BFBFD21C0709DD43B54CE22C05C13C83B24A123C07389BB3B6A7624C0B3FFAE3B274E25C0D4
:405F80001E76A23B592826C0B4EC953B020527C07563893B21E427C063DA7C3BB6C528C07D51703BC1A929C0C4C8633B42902AC03940573B39792BC0DBB74A3BA6642CC065
:405FC000AC2F3E3B89522DC0ACA7313BE2422EC0DC1F253BB1352FC03B98183BF52A30C0CB100C3BB02231C08C89FF3AE01C32C07E02F33A861933C0A27BE63AA21834C004
:40600000F8F4D93A331A35C0816ECD3A3A1E36C03DE8C03AB62437C02D62B43AA82D38C052DCA73A103939C0AB569B3AED463AC039D18E3A3F573BC0FD4B823A076A3CC079
:40604000F8C6753A447F3DC02942693AF6963EC091BD5C3A1DB13FC03039503ABACD40C008B5433ACCEC41C01931373A530E43C062AD2A3A4F3244C0E5291E3AC05845C0A3
:40608000A3A6113AA68146C09A23053A01AD47C0CDA0F839D1DA48C03B1EEC39160B4AC0E69BDF39CF3D4BC0CC19D339FE724CC0F097C639A1AA4DC05116BA39B8E44EC075
:4060C000F094AD39452150C0CD13A139456051C0EA929439BBA152C045128839A5E553C0E1917B39032C55C0BC116F39D67456C0D99162391DC057C037125639D80D59C0D6
:40610000D7924939075E5AC0B8133D39ABB05BC0DD943039C3055DC0451624394E5D5EC0F09717394EB75FC0E0190B39C21361C0159CFE38AA7262C08E1EF23805D463C0D9
:406140004DA1E538D43765C05224D938189E66C09EA7CC38CE0668C0312BC038F97169C00CAFB33897DF6AC02E33A738A84F6CC099B79A382EC26DC04D3C8E3826376FC092
:406180004BC1813892AE70C092467538712872C024CC6838C3A473C001525C38892375C029D84F38C2A476C09D5E43386E2878C05DE536388CAE79C06A6C2A381E377BC015
:4061C000C5F31D3823C27CC06D7B11389B4F7EC06403053885DF7FC0A98BF837E27181C03E14EC37B20683C0229DDF37F49D84C05726D337A93786C0DCAFC637D0D387C0A1
:40620000B339BA376A7289C0DBC3AD3776138BC0554EA137F5B68CC022D99437E55C8EC042648837480590C0B5EF7B371DB091C07D7B6F37645D93C0990763371D0D95C05E
:406240000A94563748BF96C0D0204A37E47398C0EDAD3D37F32A9AC0603B313773E49BC02AC9243765A09DC04B571837C85E9FC0C4E50B379D1FA1C09674FF36E3E2A2C0A8
:40628000C003F3369BA8A4C04493E636C470A6C02123DA365E3BA8C059B3CD366A08AAC0EC43C136E6D7ABC0D9D4B436D4A9ADC02366A836337EAFC0C9F79B360255B1C0CF
:4062C000CB898F36422EB3C02B1C8336F309B5C0E8AE763615E8B6C003426A36A7C8B8C07DD55D36AAABBAC0566951361D91BCC08FFD44360179BEC0289238365563C0C02E
:4063000021272C361950C2C07BBC1F364D3FC4C037521336F230C6C054E806360625C8C0D47EFA358A1BCAC0B715EE357F14CCC0FDACE135E30FCEC0A744D535B60DD0C042
:40634000B6DCC835FA0DD2C02975BC35AD10D4C0020EB035CF15D6C040A7A335611DD8C0E54097356227DAC0F0DA8A35D233DCC063757E35B242DEC03D1072350154E0C08D
:4063800080AB6535BE67E2C02B475935EB7DE4C03FE34C358696E6C0BD7F403590B1E8C0A51C343509CFEAC0F7B92735F1EEECC0B5571B354711EFC0DEF50E350B36F1C098
:4063C000739402353E5DF3C07433F634DF86F5C0E3D2E934EEB2F7C0BE72DD346BE1F9C00813D1345712FCC0C0B3C434B045FEC0E754B834777B00C17EF6AB34ACB302C105
:4064000084989F344FEE04C1FA3A93345F2B07C1E1DD8634DD6A09C139817A34C8AC0BC104256E3420F10DC140C96134E63710C1EF6D5534198112C111134934B9CC14C16A
:40644000A7B83C34C61A17C1B05E30343F6B19C12F05243426BE1BC122AC173479131EC18B530B34396B20C16AFBFE3366C522C1BFA3F233FF2125C18C4CE633048127C19E
:40648000CFF5D93376E229C18B9FCD3353462CC1BF49C1339DAC2EC16CF4B433531531C1929FA833758033C1324B9C3302EE35C14DF78F33FB5D38C1E2A3833360D03AC161
:4064C000F250773330453DC17EFE6A336CBC3FC186AC5E33133642C10B5B523325B244C10D0A4633A33047C18DB939338BB149C18A692D33DF344CC1071A21339DBA4EC175
:4065000002CB1433C64251C17D7C08335ACD53C1772EFC32585A56C1F2E0EF32C1E958C1EF93E332947B5BC16C47D732D10F5EC16BFBCA3278A660C1EDAFBE328A3F63C1D5
:40654000F264B23205DB65C17A1AA632EB7868C185D099323A196BC115878D32F3BB6DC12A3E8132156170C1C3F57432A10873C1E3AD683296B275C188665C32F45E78C161
:40658000B51F5032BB0D7BC168D94332ECBE7DC1A3933732857280C1664E2B32882883C1B1091F32F3E085C185C51232C69B88C1E381063203598BC1CB3EFA31A7188EC125
:4065C0003DFCED31B4DA90C13ABAE131299F93C1C278D531066696C1D637C9314C2F99C177F7BC31F9FA9BC1A4B7B0310DC99EC15E78A4318A99A1C1A63998316E6CA4C132
:406600007DFB8B31B941A7C1E2BD7F316C19AAC1D680733186F3ACC15944673107D0AFC16D085B31F0AEB2C111CD4E313F90B5C147924231F573B8C10D583631115ABBC195
:40664000661E2A319442BEC151E51D317E2DC1C1CFAC1131CE1AC4C1E0740531840AC7C1863DF930A0FCC9C1BF06ED3022F1CCC18DD0E0300AE8CFC1F19AD43058E1D2C18D
:40668000EA65C8300CDDD5C17A31BC3025DBD8C1A0FDAF30A3DBDBC15DCAA33087DEDEC1B2979730D0E3E1C19F658B307EEBE4C124347F3091F5E7C1420373300902EBC14A
:4066C000FAD26630E510EEC14CA35A302722F1C138744E30CC35F4C1C0454230D64BF7C1E21736304564FAC1A1EA2930177FFDC1FBBD1D304E9C00C2F3911130E8BB03C217
:4067000087660530E6DD06C2BA3BF92F48020AC28A11ED2F0D290DC2F9E7E02F365210C208BFD42FC27D13C2B596C82FB1AB16C2036FBC2F03DC19C2F247B02FB80E1DC24C
:406740008121A42FD04320C2B2FB972F4B7B23C285D68B2F28B526C2FAB17F2F67F129C2128E732F09302DC2CE6A672F0D7130C22D485B2F73B433C230264F2F3BFA36C257
:40678000D804432F65423AC226E4362FF18C3DC219C42A2FDED940C2B2A41E2F2C2944C2F285122FDC7A47C2D967062FEDCE4AC2674AFA2E5E254EC29D2DEE2E317E51C2A9
:4067C0007C11E22E65D954C204F6D52EF93658C235DBC92EEE965BC210C1BD2E43F95EC296A7B12EF85D62C2C68EA52E0EC565C2A176992E832E69C2295F8D2E589A6CC2CF
:406800005C48812E8E0870C23C32752E227973C2C91C692E16EC76C204085D2E6A617AC2EDF3502E1CD97DC284E0442E2E5381C2CBCD382E9FCF84C2C1BB2C2E6E4E88C24E
:4068400067AA202E9CCF8BC2BD99142E29538FC2C489082E14D992C27C7AFC2D5D6196C2E66BF02D05EC99C2035EE42D0A799DC2D250D82D6D08A1C25444CC2D2E9AA4C2D7
:406880008A38C02D4D2EA8C2742DB42DC9C4ABC21323A82DA25DAFC267199C2DD8F8B2C27010902D6C96B6C22F08842D5C36BAC2A500782DA9D8BDC2D1F96B2D527DC1C215
:4068C000B5F35F2D5924C5C251EE532DBBCDC8C2A5E9472D7979CCC2B1E53B2D9427D0C277E22F2D0AD8D3C2F7DF232DDD8AD7C231DE172D0A40DBC225DD0B2D94F7DEC2D1
:40690000D4DCFF2C78B1E2C23FDDF32CB86DE6C266DEE72C532CEAC24AE0DB2C49EDEDC2EAE2CF2C99B0F1C248E6C32C4476F5C263EAB72C4A3EF9C23DEFAB2CA908FDC2D8
:40694000D6F49F2C63D500C32EFB932C77A404C34502882CE57508C31D0A7C2CAD490CC3B512702CCE1F10C30E1C642C48F813C32926582C1CD317C306314C2C49B01BC3F4
:40698000A53C402CCF8F1FC30849342CAE7123C32D56282CE55527C317641C2C753C2BC3C472102C5E252FC33782042C9E1033C36F92F82B37FE36C36CA3EC2B27EE3AC339
:4069C0002FB5E02B70E03EC3BAC7D42B10D542C30BDBC82B07CC46C323EFBC2B56C54AC30404B12BFCC04EC3AD19A52BF9BE52C31F30992B4DBF56C35B478D2BF7C15AC39D
:406A0000605F812BF8C65EC32F78752B50CE62C3CA91692BFDD766C32FAC5D2B01E46AC360C7512B5BF26EC35DE3452B0A0373C327003A2B0F1677C3BE1D2E2B6A2B7BC31B
:406A4000223C222B19437FC3545B162B1E5D83C3547B0A2B787987C3249CFE2A27988BC3C3BDF22A2AB98FC331E0E62A82DC93C37003DB2A2F0298C37F27CF2A2F2A9CC3E7
:406A8000604CC32A8454A0C31272B72A2C81A4C39698AB2A28B0A8C3EDBF9F2A78E1ACC317E8932A1B15B1C31411882A114BB5C3E53A7C2A5A83B9C38A65702AF6BDBDC321
:406AC0000591642AE5FAC1C354BD582A263AC6C379EA4C2ABA7BCAC37418412AA0BFCEC34647352AD805D3C3EF76292A624ED7C370A71D2A3E99DBC3C8D8112A6CE6DFC30E
:406B0000F90A062AEA35E4C3033EFA29BB87E8C3E671EE29DCDBECC3A3A6E2294E32F1C33BDCD629108BF5C3AD12CB2924E6F9C3FA49BF298843FEC32382B3293CA302C4F0
:406B400028BBA729400507C409F59B2994690BC4C72F902937D00FC4636B84292B3914C4DDA778296DA418C435E56C29FF111DC46C236129E08121C48262552910F425C424
:406B800078A249298F682AC44EE33D295CDF2EC405253229775833C49C672629E1D337C416AB1A2999513CC471EF0E299ED140C4AF340329F25345C4CF7AF72892D849C420
:406BC000D3C1EB28805F4EC4BA09E028BCE852C48652D428447457C4379CC82819025CC4CDE6BC283B9260C44832B128A92465C4A97EA52863B969C4F1CB992869506EC45D
:406C0000201A8E28BCE972C4366982285A8577C434B9762844237CC41A0A6B2879C380C4E95B5F28F96585C4A1AE5328C40A8AC443024828DBB18EC4CF563C283C5B93C45B
:406C400045AC3028E70698C4A7022528DDB49CC4F45919281C65A1C42DB20D28A617A6C4520B02287ACCAAC46465F6279783AFC463C0EA27FD3CB4C4501CDF27ADF8B8C4C6
:406C80002B79D327A6B6BDC4F4D6C727E876C2C4AD35BC277239C7C45595B02745FECBC4EDF5A42760C5D0C476579927C38ED5C4EFB98D276F5ADAC4591D82276228DFC443
:406CC000B68176279CF8E3C404E76A271ECBE8C4454D5F27E79FEDC479B45327F776F2C4A11C48274E50F7C4BC853C27EC2BFCC4CCEF3027D00901C5D15A2527FBE905C585
:406D0000CBC619276BCC0AC5BB330E2721B10FC5A1A102271D9814C57E10F7265F8119C55280EB26E66C1EC51DF1DF26B25A23C5E162D426C34A28C59CD5C826183D2DC555
:406D40005149BD26B33132C5FFBDB126912837C5A633A626B4213CC548AA9A261B1D41C5E5218F26C61A46C57C9A8326B41A4BC510147826E51C50C59F8E6C265A2155C599
:406D80002A0A612612285AC5B38655260D315FC538044A264A3C64C5BC823E26CA4969C53E0233268C596EC5BE822726906B73C53D041C26D67F78C5BC8610265D967DC538
:406DC0003B0A052626AF82C5BB8EF92531CA87C53B14EE257CE78CC5BC9AE225080792C54022D725D52897C5C5AACB25E34C9CC54D34C0253073A1C5D8BEB425BE9BA6C538
:406E0000674AA9258CC6ABC5F9D69D2599F3B0C590649225E622B6C52CF386257254BBC5CD827B253D88C0C57413702547BEC5C521A5642590F6CAC5D53759251831D0C591
:406E40008FCB4D25DD6DD5C551604225E1ACDAC51BF6362522EEDFC5EE8C2B25A131E5C5C92420255E77EAC5ADBD142558BFEFC59B5709258F09F5C594F2FD240356FAC563
:406E8000968EF224B3A4FFC5A42BE724A0F504C6BDC9DB24C9480AC6E268D0242E9E0FC61409C524CFF514C652AAB924AC4F1AC69D4CAE24C4AB1FC6F6EFA224180A25C6E0
:406EC0005D949724A66A2AC6D3398C246FCD2FC657E08024733235C6EB877524B1993AC68F306A24290340C643DA5E24DB6E45C607855324C7DC4AC6DD304824ED4C50C639
:406F0000C4DD3C244CBF55C6BE8B3124E4335BC6C93A2624B5AA60C6E8EA1A24BE2366C61A9C0F24019F6BC6604E04247B1C71C6BA01F9232E9C76C628B6ED23181E7CC6C4
:406F4000AC6BE2233AA281C64522D723942887C6F4D9CB2324B18CC6B992C023EC3B92C6954CB523EBC897C68807AA2320589DC693C39E238BE9A2C6B68093232D7DA8C6E2
:406F8000F23E88230413AEC647FE7C2312ABB3C6B5BE71235445B9C63C806623CDE1BEC6DF425B237A80C4C69B0650235C21CAC673CB442372C4CFC667913923BE69D5C6F1
:406FC00076582E233D11DBC6A2202323F0BAE0C6EBE91723D766E6C651B40C23F214ECC6D57F012340C5F1C6774CF622C177F7C6371AEB22752CFDC617E9DF225CE302C779
:4070000016B9D422759C08C7358AC922C0570EC7745CBE223E1514C7D42FB322EDD419C75604A822CE961FC7F8D99C22E05A25C7BDB0912223212BC7A488862297E930C7FA
:40704000AF617B223CB436C7DC3B702211813CC72E176522165042C7A3F359224C2148C73DD14E22B1F44DC7FCAF432246CA53C7E18F38220AA259C7EB702D22FE7B5FC720
:407080001C532222205865C77436172271366BC7F31A0C22F01671C7990001229DF976C768E7F52179DE7CC75FCFEA2182C582C77FB8DF21B9AE88C7C8A2D4211D9A8EC795
:4070C0003B8EC921AE8794C7D87ABE216C779AC7A068B3215769A0C79357A8216E5DA6C7B1479D21B153ACC7FB389221204CB2C7722B8721BA46B8C7151F7C218143BEC714
:40710000E51371217242C4C7E30966218F43CAC710015B21D646D0C76AF94F21474CD6C7F3F24421E353DCC7ACED3921AA5DE2C795E92E219A69E8C7ADE62321B377EEC772
:40714000F6E41821F687F4C770E40D21629AFAC71CE50221F7AE00C8F9E6F720B5C506C809EAEC209BDE0CC84BEEE120A9F912C8C1F3D620DF1619C86AFACB203D361FC88B
:407180004702C120C35725C8580BB620707B2BC89E15AB2043A131C81A21A0203EC937C8CB2D95205FF33DC8B23B8A20A61F44C8CF4A7F20144E4AC8245B7420A77E50C843
:4071C000B06C692060B156C8747F5E203EE65CC86F935320421D63C8A4A848206A5669C811BF3D20B7916FC8B8D6322028CF75C899EF2720BD0E7CC8B4091D20775082C8B5
:407200000A251220549488C89B41072054DA8EC8675FFC1F782295C8707EF11FBF6C9BC8B49EE61F28B9A1C836C0DB1FB407A8C8F5E2D01F6258AEC8F106C61F32ABB4C8E3
